{
  "_format": "hh-sol-artifact-1",
  "contractName": "YourContract",
  "sourceName": "contracts/YourContract.sol",
  "abi": [
    {
      "inputs": [],
      "name": "PAYMENT_PERIODS_TO_SECONDS",
      "outputs": [
        {
          "internalType": "uint256",
          "name": "",
          "type": "uint256"
        }
      ],
      "stateMutability": "view",
      "type": "function"
    },
    {
      "inputs": [
        {
          "internalType": "uint256",
          "name": "_listingIndex",
          "type": "uint256"
        }
      ],
      "name": "acceptPaymentPlan",
      "outputs": [],
      "stateMutability": "payable",
      "type": "function"
    },
    {
      "inputs": [
        {
          "internalType": "uint256",
          "name": "_listingIndex",
          "type": "uint256"
        },
        {
          "internalType": "address",
          "name": "_to",
          "type": "address"
        }
      ],
      "name": "buyerWithdrawNft",
      "outputs": [],
      "stateMutability": "nonpayable",
      "type": "function"
    },
    {
      "inputs": [
        {
          "internalType": "address",
          "name": "_nftContractAddress",
          "type": "address"
        },
        {
          "internalType": "uint256",
          "name": "_tokenId",
          "type": "uint256"
        },
        {
          "internalType": "uint256",
          "name": "_payPeriods",
          "type": "uint256"
        },
        {
          "internalType": "uint256",
          "name": "_price",
          "type": "uint256"
        },
        {
          "internalType": "uint256",
          "name": "_initialPayment",
          "type": "uint256"
        }
      ],
      "name": "createListing",
      "outputs": [],
      "stateMutability": "nonpayable",
      "type": "function"
    },
    {
      "inputs": [],
      "name": "currentTime",
      "outputs": [
        {
          "internalType": "uint256",
          "name": "",
          "type": "uint256"
        }
      ],
      "stateMutability": "view",
      "type": "function"
    },
    {
      "inputs": [
        {
          "internalType": "uint256",
          "name": "_listingIndex",
          "type": "uint256"
        }
      ],
      "name": "deactivateListing",
      "outputs": [],
      "stateMutability": "nonpayable",
      "type": "function"
    },
    {
      "inputs": [
        {
          "internalType": "uint256",
          "name": "_listingIndex",
          "type": "uint256"
        }
      ],
      "name": "getAmountDueByPayment",
      "outputs": [
        {
          "internalType": "uint256",
          "name": "",
          "type": "uint256"
        }
      ],
      "stateMutability": "view",
      "type": "function"
    },
    {
      "inputs": [
        {
          "internalType": "uint256",
          "name": "_listingIndex",
          "type": "uint256"
        }
      ],
      "name": "getAmountPaid",
      "outputs": [
        {
          "internalType": "uint256",
          "name": "",
          "type": "uint256"
        }
      ],
      "stateMutability": "view",
      "type": "function"
    },
    {
      "inputs": [
        {
          "internalType": "uint256",
          "name": "_listingIndex",
          "type": "uint256"
        }
      ],
      "name": "getAmountPerPayPeriod",
      "outputs": [
        {
          "internalType": "uint256",
          "name": "",
          "type": "uint256"
        }
      ],
      "stateMutability": "view",
      "type": "function"
    },
    {
      "inputs": [
        {
          "internalType": "uint256",
          "name": "_listingIndex",
          "type": "uint256"
        }
      ],
      "name": "getNextPaymemtTime",
      "outputs": [
        {
          "internalType": "uint256",
          "name": "",
          "type": "uint256"
        }
      ],
      "stateMutability": "view",
      "type": "function"
    },
    {
      "inputs": [
        {
          "internalType": "uint256",
          "name": "_listingIndex",
          "type": "uint256"
        }
      ],
      "name": "getTimesDue",
      "outputs": [
        {
          "internalType": "uint256[]",
          "name": "",
          "type": "uint256[]"
        }
      ],
      "stateMutability": "view",
      "type": "function"
    },
    {
      "inputs": [
        {
          "internalType": "uint256",
          "name": "_listingIndex",
          "type": "uint256"
        }
      ],
      "name": "hasDefaulted",
      "outputs": [
        {
          "internalType": "bool",
          "name": "",
          "type": "bool"
        }
      ],
      "stateMutability": "view",
      "type": "function"
    },
    {
      "inputs": [
        {
          "internalType": "uint256",
          "name": "_listingIndex",
          "type": "uint256"
        }
      ],
      "name": "isActive",
      "outputs": [
        {
          "internalType": "bool",
          "name": "",
          "type": "bool"
        }
      ],
      "stateMutability": "view",
      "type": "function"
    },
    {
      "inputs": [
        {
          "internalType": "uint256",
          "name": "_listingIndex",
          "type": "uint256"
        }
      ],
      "name": "isPaidOff",
      "outputs": [
        {
          "internalType": "bool",
          "name": "",
          "type": "bool"
        }
      ],
      "stateMutability": "view",
      "type": "function"
    },
    {
      "inputs": [
        {
          "internalType": "uint256",
          "name": "",
          "type": "uint256"
        }
      ],
      "name": "listings",
      "outputs": [
        {
          "internalType": "bool",
          "name": "isActive",
          "type": "bool"
        },
        {
          "internalType": "address",
          "name": "seller",
          "type": "address"
        },
        {
          "internalType": "address",
          "name": "buyer",
          "type": "address"
        },
        {
          "internalType": "address",
          "name": "nftContractAddress",
          "type": "address"
        },
        {
          "internalType": "uint256",
          "name": "tokenId",
          "type": "uint256"
        },
        {
          "internalType": "uint256",
          "name": "lockTime",
          "type": "uint256"
        },
        {
          "internalType": "uint256",
          "name": "timeAtLock",
          "type": "uint256"
        },
        {
          "internalType": "uint256",
          "name": "paymentPeriods",
          "type": "uint256"
        },
        {
          "internalType": "uint256",
          "name": "initialPayment",
          "type": "uint256"
        },
        {
          "internalType": "uint256",
          "name": "price",
          "type": "uint256"
        },
        {
          "internalType": "uint256",
          "name": "amountPaid",
          "type": "uint256"
        },
        {
          "internalType": "bool",
          "name": "hasBuyer",
          "type": "bool"
        }
      ],
      "stateMutability": "view",
      "type": "function"
    },
    {
      "inputs": [
        {
          "internalType": "uint256",
          "name": "_listingIndex",
          "type": "uint256"
        }
      ],
      "name": "makePayment",
      "outputs": [],
      "stateMutability": "payable",
      "type": "function"
    },
    {
      "inputs": [
        {
          "internalType": "uint256",
          "name": "_listingIndex",
          "type": "uint256"
        }
      ],
      "name": "reActivateListing",
      "outputs": [],
      "stateMutability": "nonpayable",
      "type": "function"
    },
    {
      "inputs": [
        {
          "internalType": "uint256",
          "name": "",
          "type": "uint256"
        }
      ],
      "name": "sellerBalances",
      "outputs": [
        {
          "internalType": "uint256",
          "name": "",
          "type": "uint256"
        }
      ],
      "stateMutability": "view",
      "type": "function"
    },
    {
      "inputs": [
        {
          "internalType": "uint256",
          "name": "_listingIndex",
          "type": "uint256"
        }
      ],
      "name": "sellerWithdrawBalance",
      "outputs": [],
      "stateMutability": "nonpayable",
      "type": "function"
    },
    {
      "inputs": [
        {
          "internalType": "uint256",
          "name": "_listingIndex",
          "type": "uint256"
        },
        {
          "internalType": "address",
          "name": "_to",
          "type": "address"
        }
      ],
      "name": "sellerWithdrawNft",
      "outputs": [],
      "stateMutability": "nonpayable",
      "type": "function"
    },
    {
      "inputs": [
        {
          "internalType": "uint256",
          "name": "_listingIndex",
          "type": "uint256"
        }
      ],
      "name": "timeOfFinalPayment",
      "outputs": [
        {
          "internalType": "uint256",
          "name": "",
          "type": "uint256"
        }
      ],
      "stateMutability": "view",
      "type": "function"
    }
  ],
  "bytecode": "0x608060405234801561001057600080fd5b50612040806100206000396000f3fe60806040526004361061012a5760003560e01c80639057f289116100ab578063bac94b7a1161006f578063bac94b7a1461032b578063c262cadc1461034b578063c7e380e11461035e578063d18e81b31461037e578063de74e57b14610391578063faf6a54a1461041d57600080fd5b80639057f2891461027e57806391627eb01461029e57806394049ae2146102be5780639f63b5b1146102de578063a646e664146102fe57600080fd5b80635d54e2cb116100f25780635d54e2cb146101d75780635f54ffd6146101f757806368d70e831461021757806382afd23b1461022e57806382e5f0e01461025e57600080fd5b8063314bc6cd1461012f5780633b8d915f1461016257806344193de8146101845780635114cb52146101a45780635b4112df146101b7575b600080fd5b34801561013b57600080fd5b5061014f61014a366004611e27565b61043d565b6040519081526020015b60405180910390f35b34801561016e57600080fd5b5061018261017d366004611e27565b6104be565b005b34801561019057600080fd5b5061014f61019f366004611e27565b61059b565b6101826101b2366004611e27565b61067e565b3480156101c357600080fd5b5061014f6101d2366004611e27565b61080f565b3480156101e357600080fd5b5061014f6101f2366004611e27565b610916565b34801561020357600080fd5b50610182610212366004611e27565b610a06565b34801561022357600080fd5b5061014f62278d0081565b34801561023a57600080fd5b5061024e610249366004611e27565b610bd2565b6040519015158152602001610159565b34801561026a57600080fd5b50610182610279366004611e3f565b610c11565b34801561028a57600080fd5b50610182610299366004611de4565b610d7a565b3480156102aa57600080fd5b506101826102b9366004611e3f565b61111f565b3480156102ca57600080fd5b5061024e6102d9366004611e27565b6111d7565b3480156102ea57600080fd5b506101826102f9366004611e27565b611348565b34801561030a57600080fd5b5061031e610319366004611e27565b6115cf565b6040516101599190611e6e565b34801561033757600080fd5b5061024e610346366004611e27565b6116ce565b610182610359366004611e27565b6117c7565b34801561036a57600080fd5b5061014f610379366004611e27565b611cd9565b34801561038a57600080fd5b504261014f565b34801561039d57600080fd5b506103b16103ac366004611e27565b611d21565b604080519c15158d526001600160a01b039b8c1660208e0152998b16998c01999099529890961660608a0152608089019490945260a088019290925260c087015260e0860152610100850152610120840152610140830191909152151561016082015261018001610159565b34801561042957600080fd5b5061014f610438366004611e27565b611da7565b6000806000838154811061046157634e487b7160e01b600052603260045260246000fd5b90600052602060002090600b0201905060008160050154426104839190611f80565b9050600061049462278d0083611fb2565b905060006104a58262278d00611f80565b905060006104b38242611f35565b979650505050505050565b60008082815481106104e057634e487b7160e01b600052603260045260246000fd5b60009182526020909120600b90910201805490915061010090046001600160a01b031633146105515760405162461bcd60e51b815260206004820152601860248201527774686973206973206e6f7420796f7572206c697374696e6760401b60448201526064015b60405180910390fd5b61055a826111d7565b8061056a5750600a81015460ff16155b6105905760405162461bcd60e51b81526020600482015260006024820152604401610548565b805460ff1916905550565b600080600083815481106105bf57634e487b7160e01b600052603260045260246000fd5b60009182526020918290206040805161018081018252600b909302909101805460ff808216151585526001600160a01b036101009283900481169686019690965260018301548616938501939093526002820154909416606084015260038101546080840152600481015460a0840152600581015460c0840152600681015460e0840152600781015493830193909352600883015461012083015260098301546101408301819052600a90930154161515610160909101529392505050565b600034116106de5760405162461bcd60e51b815260206004820152602760248201527f746865726520776173206e6f206574682073656e7420776974682074686973206044820152661c185e5b595b9d60ca1b6064820152608401610548565b6106e7816111d7565b1561072a5760405162461bcd60e51b8152602060048201526013602482015272189d5e595c881a185cc8191959985d5b1d1959606a1b6044820152606401610548565b600080828154811061074c57634e487b7160e01b600052603260045260246000fd5b60009182526020909120600b90910201805490915060ff166107b05760405162461bcd60e51b815260206004820152601a60248201527f74686973206c697374696e67206973206e6f74206163746976650000000000006044820152606401610548565b348160090160008282546107c49190611f35565b9250508190555034600183815481106107ed57634e487b7160e01b600052603260045260246000fd5b9060005260206000200160008282546108069190611f35565b90915550505050565b6000806000838154811061083357634e487b7160e01b600052603260045260246000fd5b60009182526020918290206040805161018081018252600b909302909101805460ff808216151585526001600160a01b036101009283900481169686019690965260018301548616938501939093526002820154909416606084015260038101546080840152600481015460a0840152600581015460c0840152600681015460e084018190526007820154948401859052600882015461012085018190526009830154610140860152600a909201549092161515610160840152919350916108fa91611f80565b6109049190611f4d565b61090f906001611f35565b9392505050565b6000806000838154811061093a57634e487b7160e01b600052603260045260246000fd5b90600052602060002090600b02019050610953836111d7565b156109ac5760405162461bcd60e51b8152602060048201526024808201527f74686973207061796d656e742061677265656d656e74206861732064656661756044820152631b1d195960e21b6064820152608401610548565b60008160050154426109be9190611f80565b905060006109cf62278d0083611f4d565b905060006109dc8661080f565b9050600084600901548360016109f29190611f35565b6109fc9084611f61565b6104b39190611f80565b6000808281548110610a2857634e487b7160e01b600052603260045260246000fd5b60009182526020909120600b90910201805490915061010090046001600160a01b03163314610a695760405162461bcd60e51b815260040161054890611eb2565b600060018381548110610a8c57634e487b7160e01b600052603260045260246000fd5b906000526020600020015411610ae45760405162461bcd60e51b815260206004820152601c60248201527f7468657265206973206e6f7468696e6720746f207769746864726177000000006044820152606401610548565b600060018381548110610b0757634e487b7160e01b600052603260045260246000fd5b90600052602060002001549050600060018481548110610b3757634e487b7160e01b600052603260045260246000fd5b6000918252602082200191909155604051339083908381818185875af1925050503d8060008114610b84576040519150601f19603f3d011682016040523d82523d6000602084013e610b89565b606091505b5050905080610bcc5760405162461bcd60e51b815260206004820152600f60248201526e1d1c985b9cd9995c8819985a5b1959608a1b6044820152606401610548565b50505050565b60008060008381548110610bf657634e487b7160e01b600052603260045260246000fd5b60009182526020909120600b909102015460ff169392505050565b6000808381548110610c3357634e487b7160e01b600052603260045260246000fd5b600091825260209091206001600b90920201908101549091506001600160a01b03163314610cad5760405162461bcd60e51b815260206004820152602160248201527f796f7520617265206e6f7420746865206275796572206f662074686973206e666044820152601d60fa1b6064820152608401610548565b610cb6836116ce565b610d025760405162461bcd60e51b815260206004820152601e60248201527f74686973206e667420686173206e6f74206265656e2070616964206f666600006044820152606401610548565b600281015460038201546040516323b872dd60e01b81523060048201526001600160a01b03858116602483015260448201929092529116906323b872dd90606401600060405180830381600087803b158015610d5d57600080fd5b505af1158015610d71573d6000803e3d6000fd5b50505050505050565b6040516331a9108f60e11b81526004810185905233906001600160a01b03871690636352211e9060240160206040518083038186803b158015610dbc57600080fd5b505afa158015610dd0573d6000803e3d6000fd5b505050506040513d601f19601f82011682018060405250810190610df49190611dc8565b6001600160a01b031614610e1a5760405162461bcd60e51b815260040161054890611ef4565b60405163020604bf60e21b81526004810185905230906001600160a01b0387169063081812fc9060240160206040518083038186803b158015610e5c57600080fd5b505afa158015610e70573d6000803e3d6000fd5b505050506040513d601f19601f82011682018060405250810190610e949190611dc8565b6001600160a01b031614610f005760405162461bcd60e51b815260206004820152602d60248201527f7468697320636f6e747261637420686173206e6f74206265656e20617070726f60448201526c3b32b210313c9039b2b63632b960991b6064820152608401610548565b60008311610f0d57600080fd5b6000610f1c62278d0085611f61565b9050610f29601e82611fb2565b15610f3357600080fd5b6000604051806101800160405280600115158152602001336001600160a01b0316815260200160006001600160a01b03168152602001886001600160a01b03168152602001878152602001838152602001600081526020018681526020018481526020018581526020016000815260200160001515815250905060008190806001815401808255809150506001900390600052602060002090600b020160009091909190915060008201518160000160006101000a81548160ff02191690831515021790555060208201518160000160016101000a8154816001600160a01b0302191690836001600160a01b0316021790555060408201518160010160006101000a8154816001600160a01b0302191690836001600160a01b0316021790555060608201518160020160006101000a8154816001600160a01b0302191690836001600160a01b031602179055506080820151816003015560a0820151816004015560c0820151816005015560e0820151816006015561010082015181600701556101208201518160080155610140820151816009015561016082015181600a0160006101000a81548160ff021916908315150217905550505060016000908060018154018082558091505060019003906000526020600020016000909190919091505550505050505050565b600080838154811061114157634e487b7160e01b600052603260045260246000fd5b60009182526020909120600b90910201805490915061010090046001600160a01b031633146111825760405162461bcd60e51b815260040161054890611eb2565b61118b836111d7565b610d025760405162461bcd60e51b815260206004820152601d60248201527f746869732073656c6c657220686173206e6f742064656661756c7465640000006044820152606401610548565b600080600083815481106111fb57634e487b7160e01b600052603260045260246000fd5b600091825260208083206040805161018081018252600b909402909101805460ff808216151586526001600160a01b036101009283900481169587019590955260018301548516938601939093526002820154909316606085015260038101546080850152600481015460a0850152600581015460c08501819052600682015460e086015260078201549385019390935260088101546101208501526009810154610140850152600a01541615156101608301529092506112bc9042611f80565b905060006112cd62278d0083611f4d565b90508260e0015181106112ee5760018360e001516112eb9190611f80565b90505b60006112f98661080f565b905060008461014001518360016113109190611f35565b61131a9084611f61565b6113249190611f80565b90508181111561133b575060019695505050505050565b5060009695505050505050565b600080828154811061136a57634e487b7160e01b600052603260045260246000fd5b60009182526020909120600b90910201805490915060ff16156113cf5760405162461bcd60e51b815260206004820181905260248201527f74686973206c697374696e6720697320616c726561647920696e6163746976656044820152606401610548565b805461010090046001600160a01b031633146114285760405162461bcd60e51b815260206004820152601860248201527774686973206973206e6f7420796f7572206c697374696e6760401b6044820152606401610548565b600281015460038201546040516331a9108f60e11b8152600481019190915233916001600160a01b031690636352211e9060240160206040518083038186803b15801561147457600080fd5b505afa158015611488573d6000803e3d6000fd5b505050506040513d601f19601f820116820180604052508101906114ac9190611dc8565b6001600160a01b0316146114d25760405162461bcd60e51b815260040161054890611ef4565b6002810154600382015460405163020604bf60e21b8152600481019190915230916001600160a01b03169063081812fc9060240160206040518083038186803b15801561151e57600080fd5b505afa158015611532573d6000803e3d6000fd5b505050506040513d601f19601f820116820180604052508101906115569190611dc8565b6001600160a01b0316146115c15760405162461bcd60e51b815260206004820152602c60248201527f74686973206164647265737320686173206e6f74206265656e20617070726f7660448201526b32b210313c9039b2b63632b960a11b6064820152608401610548565b805460ff1916600117905550565b606060008083815481106115f357634e487b7160e01b600052603260045260246000fd5b90600052602060002090600b0201905060008160060154905060008167ffffffffffffffff81111561163557634e487b7160e01b600052604160045260246000fd5b60405190808252806020026020018201604052801561165e578160200160208202803683370190505b50905060005b828110156116c55761167962278d0082611f61565b84600501546116889190611f35565b8282815181106116a857634e487b7160e01b600052603260045260246000fd5b6020908102919091010152806116bd81611f97565b915050611664565b50949350505050565b600080600083815481106116f257634e487b7160e01b600052603260045260246000fd5b60009182526020918290206040805161018081018252600b909302909101805460ff808216151585526001600160a01b036101009283900481169686019690965260018301548616938501939093526002820154909416606084015260038101546080840152600481015460a0840152600581015460c0840152600681015460e08401526007810154938301939093526008830154610120830181905260098401546101408401819052600a909401549091161515610160830152909250116117be5750600192915050565b50600092915050565b60008082815481106117e957634e487b7160e01b600052603260045260246000fd5b60009182526020909120600b90910201805490915060ff1661184d5760405162461bcd60e51b815260206004820152601d60248201527f74686973206c697374696e67206973206e6f7420617661696c61626c650000006044820152606401610548565b600a81015460ff16156118b45760405162461bcd60e51b815260206004820152602960248201527f546865726520697320616c7265616479206120627579657220666f722074686960448201526873206c697374696e6760b81b6064820152608401610548565b806007015434101561191c5760405162461bcd60e51b815260206004820152602b60248201527f446964206e6f742073656e6420656e6f75676820666f722074686520696e697460448201526a1a585b081c185e5b595b9d60aa1b6064820152608401610548565b8054600282015460038301546040516331a9108f60e11b815260048101919091526101009092046001600160a01b0390811692911690636352211e9060240160206040518083038186803b15801561197357600080fd5b505afa158015611987573d6000803e3d6000fd5b505050506040513d601f19601f820116820180604052508101906119ab9190611dc8565b6001600160a01b031614611a135760405162461bcd60e51b815260206004820152602960248201527f73656c6c6572206973206e6f206c6f6e67657220746865206f776e6572206f66604482015268081d1a1a5cc81b999d60ba1b6064820152608401610548565b6002810154600382015460405163020604bf60e21b8152600481019190915230916001600160a01b03169063081812fc9060240160206040518083038186803b158015611a5f57600080fd5b505afa158015611a73573d6000803e3d6000fd5b505050506040513d601f19601f82011682018060405250810190611a979190611dc8565b6001600160a01b031614611afd5760405162461bcd60e51b815260206004820152602760248201527f7468697320636f6e7472616374206973206e6f7420617070726f7665642062796044820152661039b2b63632b960c91b6064820152608401610548565b6002810154815460038301546040516323b872dd60e01b81526001600160a01b036101009093048316600482015230602482015260448101919091529116906323b872dd90606401600060405180830381600087803b158015611b5f57600080fd5b505af1158015611b73573d6000803e3d6000fd5b50505050600281015460038201546040516331a9108f60e11b8152600481019190915230916001600160a01b031690636352211e9060240160206040518083038186803b158015611bc357600080fd5b505afa158015611bd7573d6000803e3d6000fd5b505050506040513d601f19601f82011682018060405250810190611bfb9190611dc8565b6001600160a01b031614611c6c5760405162461bcd60e51b815260206004820152603260248201527f636f756c64206e6f74207472616e73666572206e66742066726f6d206f776e656044820152711c881d1bc81d1a1a5cc818dbdb9d1c9858dd60721b6064820152608401610548565b346009820155600180820180546001600160a01b03191633179055600a8201805460ff191690911790554260058201819055611ca757600080fd5b3460018381548110611cc957634e487b7160e01b600052603260045260246000fd5b6000918252602090912001555050565b60008060008381548110611cfd57634e487b7160e01b600052603260045260246000fd5b90600052602060002090600b020190508060040154816005015461090f9190611f35565b60008181548110611d3157600080fd5b60009182526020909120600b9091020180546001820154600283015460038401546004850154600586015460068701546007880154600889015460098a0154600a909a015460ff808b169c50610100909a046001600160a01b039081169b9981169a98169896979596949593949293919291168c565b60018181548110611db757600080fd5b600091825260209091200154905081565b600060208284031215611dd9578081fd5b815161090f81611ff2565b600080600080600060a08688031215611dfb578081fd5b8535611e0681611ff2565b97602087013597506040870135966060810135965060800135945092505050565b600060208284031215611e38578081fd5b5035919050565b60008060408385031215611e51578182fd5b823591506020830135611e6381611ff2565b809150509250929050565b6020808252825182820181905260009190848201906040850190845b81811015611ea657835183529284019291840191600101611e8a565b50909695505050505050565b60208082526022908201527f796f7520617265206e6f74207468652073656c6c6572206f662074686973206e604082015261199d60f21b606082015260800190565b60208082526021908201527f796f7520617265206e6f7420746865206f776e6572206f662074686973206e666040820152601d60fa1b606082015260800190565b60008219821115611f4857611f48611fc6565b500190565b600082611f5c57611f5c611fdc565b500490565b6000816000190483118215151615611f7b57611f7b611fc6565b500290565b600082821015611f9257611f92611fc6565b500390565b6000600019821415611fab57611fab611fc6565b5060010190565b600082611fc157611fc1611fdc565b500690565b634e487b7160e01b600052601160045260246000fd5b634e487b7160e01b600052601260045260246000fd5b6001600160a01b038116811461200757600080fd5b5056fea264697066735822122004769183e844a5cee393b11c52c7b4628267ba1dfba6b3028d552608b1bc1ffd64736f6c63430008040033",
  "linkReferences": {},
  "deployedLinkReferences": {}
}