{"contracts/YourContract.sol":{"YourContract":{"abi":[{"inputs":[],"name":"THIRTY_DAYS_TO_SECONDS_CONVERSION","outputs":[{"internalType":"uint256","name":"","type":"uint256"}],"stateMutability":"view","type":"function"},{"inputs":[{"internalType":"uint256","name":"_listingIndex","type":"uint256"}],"name":"acceptPaymentPlan","outputs":[],"stateMutability":"payable","type":"function"},{"inputs":[{"internalType":"uint256","name":"_listingIndex","type":"uint256"},{"internalType":"address","name":"_to","type":"address"}],"name":"buyerWithdrawNft","outputs":[],"stateMutability":"nonpayable","type":"function"},{"inputs":[{"internalType":"address","name":"_nftContractAddress","type":"address"},{"internalType":"uint256","name":"_tokenId","type":"uint256"},{"internalType":"uint256","name":"_payPeriods","type":"uint256"},{"internalType":"uint256","name":"_price","type":"uint256"},{"internalType":"uint256","name":"_initialPayment","type":"uint256"}],"name":"createListing","outputs":[],"stateMutability":"nonpayable","type":"function"},{"inputs":[],"name":"currentTime","outputs":[{"internalType":"uint256","name":"","type":"uint256"}],"stateMutability":"view","type":"function"},{"inputs":[{"internalType":"uint256","name":"_listingIndex","type":"uint256"}],"name":"deactivateListing","outputs":[],"stateMutability":"nonpayable","type":"function"},{"inputs":[{"internalType":"uint256","name":"_listingIndex","type":"uint256"}],"name":"getAmountDueByPayment","outputs":[{"internalType":"uint256","name":"","type":"uint256"}],"stateMutability":"view","type":"function"},{"inputs":[{"internalType":"uint256","name":"_listingIndex","type":"uint256"}],"name":"getAmountPerPayPeriod","outputs":[{"internalType":"uint256","name":"","type":"uint256"}],"stateMutability":"view","type":"function"},{"inputs":[{"internalType":"uint256","name":"_listingIndex","type":"uint256"}],"name":"getNextPaymemtTime","outputs":[{"internalType":"uint256","name":"","type":"uint256"}],"stateMutability":"view","type":"function"},{"inputs":[{"internalType":"uint256","name":"_listingIndex","type":"uint256"}],"name":"getTimesDue","outputs":[{"internalType":"uint256[]","name":"","type":"uint256[]"}],"stateMutability":"view","type":"function"},{"inputs":[{"internalType":"uint256","name":"_listingIndex","type":"uint256"}],"name":"hasDefaulted","outputs":[{"internalType":"bool","name":"","type":"bool"}],"stateMutability":"view","type":"function"},{"inputs":[{"internalType":"uint256","name":"_listingIndex","type":"uint256"}],"name":"isActive","outputs":[{"internalType":"bool","name":"","type":"bool"}],"stateMutability":"view","type":"function"},{"inputs":[{"internalType":"uint256","name":"_listingIndex","type":"uint256"}],"name":"isPaidOff","outputs":[{"internalType":"bool","name":"","type":"bool"}],"stateMutability":"view","type":"function"},{"inputs":[{"internalType":"uint256","name":"","type":"uint256"}],"name":"listings","outputs":[{"internalType":"bool","name":"isActive","type":"bool"},{"internalType":"address","name":"seller","type":"address"},{"internalType":"address","name":"buyer","type":"address"},{"internalType":"address","name":"nftContractAddress","type":"address"},{"internalType":"uint256","name":"tokenId","type":"uint256"},{"internalType":"uint256","name":"lockTime","type":"uint256"},{"internalType":"uint256","name":"timeAtLock","type":"uint256"},{"internalType":"uint256","name":"paymentPeriods","type":"uint256"},{"internalType":"uint256","name":"initialPayment","type":"uint256"},{"internalType":"uint256","name":"price","type":"uint256"},{"internalType":"uint256","name":"amountPaid","type":"uint256"},{"internalType":"bool","name":"hasBuyer","type":"bool"}],"stateMutability":"view","type":"function"},{"inputs":[{"internalType":"uint256","name":"_listingIndex","type":"uint256"}],"name":"makePayment","outputs":[],"stateMutability":"payable","type":"function"},{"inputs":[{"internalType":"uint256","name":"_listingIndex","type":"uint256"}],"name":"reActivateListing","outputs":[],"stateMutability":"nonpayable","type":"function"},{"inputs":[{"internalType":"uint256","name":"","type":"uint256"}],"name":"sellerBalances","outputs":[{"internalType":"uint256","name":"","type":"uint256"}],"stateMutability":"view","type":"function"},{"inputs":[{"internalType":"uint256","name":"_listingIndex","type":"uint256"}],"name":"sellerWithdrawBalance","outputs":[],"stateMutability":"nonpayable","type":"function"},{"inputs":[{"internalType":"uint256","name":"_listingIndex","type":"uint256"},{"internalType":"address","name":"_to","type":"address"}],"name":"sellerWithdrawNft","outputs":[],"stateMutability":"nonpayable","type":"function"},{"inputs":[{"internalType":"uint256","name":"_listingIndex","type":"uint256"}],"name":"timeOfFinalPayment","outputs":[{"internalType":"uint256","name":"","type":"uint256"}],"stateMutability":"view","type":"function"}],"devdoc":{"kind":"dev","methods":{},"version":1},"evm":{"bytecode":{"linkReferences":{},"object":"608060405234801561001057600080fd5b50611f66806100206000396000f3fe60806040526004361061011f5760003560e01c806391627eb0116100a0578063c262cadc11610064578063c262cadc14610320578063c7e380e114610333578063d18e81b314610353578063de74e57b14610366578063faf6a54a146103f257600080fd5b806391627eb01461027357806394049ae2146102935780639f63b5b1146102b3578063a646e664146102d3578063bac94b7a1461030057600080fd5b80635d54e2cb116100e75780635d54e2cb146101c35780635f54ffd6146101e357806382afd23b1461020357806382e5f0e0146102335780639057f2891461025357600080fd5b806307eb192f14610124578063314bc6cd1461014e5780633b8d915f1461016e5780635114cb52146101905780635b4112df146101a3575b600080fd5b34801561013057600080fd5b5061013b62278d0081565b6040519081526020015b60405180910390f35b34801561015a57600080fd5b5061013b610169366004611d01565b610412565b34801561017a57600080fd5b5061018e610189366004611d01565b610493565b005b61018e61019e366004611d01565b610570565b3480156101af57600080fd5b5061013b6101be366004611d01565b610764565b3480156101cf57600080fd5b5061013b6101de366004611d01565b61086b565b3480156101ef57600080fd5b5061018e6101fe366004611d01565b61095b565b34801561020f57600080fd5b5061022361021e366004611d01565b610b37565b6040519015158152602001610145565b34801561023f57600080fd5b5061018e61024e366004611d19565b610b76565b34801561025f57600080fd5b5061018e61026e366004611cbe565b610cdf565b34801561027f57600080fd5b5061018e61028e366004611d19565b61103e565b34801561029f57600080fd5b506102236102ae366004611d01565b6110f6565b3480156102bf57600080fd5b5061018e6102ce366004611d01565b611267565b3480156102df57600080fd5b506102f36102ee366004611d01565b6114a9565b6040516101459190611d48565b34801561030c57600080fd5b5061022361031b366004611d01565b6115a8565b61018e61032e366004611d01565b6116a1565b34801561033f57600080fd5b5061013b61034e366004611d01565b611bb3565b34801561035f57600080fd5b504261013b565b34801561037257600080fd5b50610386610381366004611d01565b611bfb565b604080519c15158d526001600160a01b039b8c1660208e0152998b16998c01999099529890961660608a0152608089019490945260a088019290925260c087015260e0860152610100850152610120840152610140830191909152151561016082015261018001610145565b3480156103fe57600080fd5b5061013b61040d366004611d01565b611c81565b6000806000838154811061043657634e487b7160e01b600052603260045260246000fd5b90600052602060002090600b0201905060008160050154426104589190611ea6565b9050600061046962278d0083611ed8565b9050600061047a8262278d00611ea6565b905060006104888242611e5b565b979650505050505050565b60008082815481106104b557634e487b7160e01b600052603260045260246000fd5b60009182526020909120600b90910201805490915061010090046001600160a01b031633146105265760405162461bcd60e51b815260206004820152601860248201527774686973206973206e6f7420796f7572206c697374696e6760401b60448201526064015b60405180910390fd5b61052f826110f6565b8061053f5750600a81015460ff16155b6105655760405162461bcd60e51b8152602060048201526000602482015260440161051d565b805460ff1916905550565b600034116105d05760405162461bcd60e51b815260206004820152602760248201527f746865726520776173206e6f206574682073656e7420776974682074686973206044820152661c185e5b595b9d60ca1b606482015260840161051d565b6105d9816110f6565b1561061c5760405162461bcd60e51b8152602060048201526013602482015272189d5e595c881a185cc8191959985d5b1d1959606a1b604482015260640161051d565b600080828154811061063e57634e487b7160e01b600052603260045260246000fd5b60009182526020918290206040805161018081018252600b909302909101805460ff80821615158086526001600160a01b036101009384900481169787019790975260018401548716948601949094526002830154909516606085015260038201546080850152600482015460a0850152600582015460c0850152600682015460e085015260078201549084015260088101546101208401526009810154610140840152600a0154909216151561016082015291506106fc57600080fd5b34816101400181815161070f9190611e5b565b905250600180543491908490811061073757634e487b7160e01b600052603260045260246000fd5b9060005260206000200160008282546107509190611e5b565b9091555061075f9050826115a8565b505050565b6000806000838154811061078857634e487b7160e01b600052603260045260246000fd5b60009182526020918290206040805161018081018252600b909302909101805460ff808216151585526001600160a01b036101009283900481169686019690965260018301548616938501939093526002820154909416606084015260038101546080840152600481015460a0840152600581015460c0840152600681015460e084018190526007820154948401859052600882015461012085018190526009830154610140860152600a9092015490921615156101608401529193509161084f91611ea6565b6108599190611e73565b610864906001611e5b565b9392505050565b6000806000838154811061088f57634e487b7160e01b600052603260045260246000fd5b90600052602060002090600b020190506108a8836110f6565b156109015760405162461bcd60e51b8152602060048201526024808201527f74686973207061796d656e742061677265656d656e74206861732064656661756044820152631b1d195960e21b606482015260840161051d565b60008160050154426109139190611ea6565b9050600061092462278d0083611e73565b9050600061093186610764565b9050600084600901548360016109479190611e5b565b6109519084611e87565b6104889190611ea6565b600080828154811061097d57634e487b7160e01b600052603260045260246000fd5b60009182526020909120600b90910201805490915061010090046001600160a01b031633146109be5760405162461bcd60e51b815260040161051d90611dd8565b6000600183815481106109e157634e487b7160e01b600052603260045260246000fd5b906000526020600020015411610a395760405162461bcd60e51b815260206004820152601c60248201527f7468657265206973206e6f7468696e6720746f20776974686472617700000000604482015260640161051d565b600060018381548110610a5c57634e487b7160e01b600052603260045260246000fd5b9060005260206000200154905081600801548110610a7957600080fd5b600060018481548110610a9c57634e487b7160e01b600052603260045260246000fd5b6000918252602082200191909155604051339083908381818185875af1925050503d8060008114610ae9576040519150601f19603f3d011682016040523d82523d6000602084013e610aee565b606091505b5050905080610b315760405162461bcd60e51b815260206004820152600f60248201526e1d1c985b9cd9995c8819985a5b1959608a1b604482015260640161051d565b50505050565b60008060008381548110610b5b57634e487b7160e01b600052603260045260246000fd5b60009182526020909120600b909102015460ff169392505050565b6000808381548110610b9857634e487b7160e01b600052603260045260246000fd5b600091825260209091206001600b90920201908101549091506001600160a01b03163314610c125760405162461bcd60e51b815260206004820152602160248201527f796f7520617265206e6f7420746865206275796572206f662074686973206e666044820152601d60fa1b606482015260840161051d565b610c1b836115a8565b610c675760405162461bcd60e51b815260206004820152601e60248201527f74686973206e667420686173206e6f74206265656e2070616964206f66660000604482015260640161051d565b600281015460038201546040516323b872dd60e01b81523060048201526001600160a01b03858116602483015260448201929092529116906323b872dd90606401600060405180830381600087803b158015610cc257600080fd5b505af1158015610cd6573d6000803e3d6000fd5b50505050505050565b6040516331a9108f60e11b81526004810185905233906001600160a01b03871690636352211e9060240160206040518083038186803b158015610d2157600080fd5b505afa158015610d35573d6000803e3d6000fd5b505050506040513d601f19601f82011682018060405250810190610d599190611ca2565b6001600160a01b031614610d7f5760405162461bcd60e51b815260040161051d90611e1a565b60405163020604bf60e21b81526004810185905230906001600160a01b0387169063081812fc9060240160206040518083038186803b158015610dc157600080fd5b505afa158015610dd5573d6000803e3d6000fd5b505050506040513d601f19601f82011682018060405250810190610df99190611ca2565b6001600160a01b031614610e1f5760405162461bcd60e51b815260040161051d90611d8c565b60008311610e2c57600080fd5b6000610e3b62278d0085611e87565b9050610e48601e82611ed8565b15610e5257600080fd5b6000604051806101800160405280600115158152602001336001600160a01b0316815260200160006001600160a01b03168152602001886001600160a01b03168152602001878152602001838152602001600081526020018681526020018481526020018581526020016000815260200160001515815250905060008190806001815401808255809150506001900390600052602060002090600b020160009091909190915060008201518160000160006101000a81548160ff02191690831515021790555060208201518160000160016101000a8154816001600160a01b0302191690836001600160a01b0316021790555060408201518160010160006101000a8154816001600160a01b0302191690836001600160a01b0316021790555060608201518160020160006101000a8154816001600160a01b0302191690836001600160a01b031602179055506080820151816003015560a0820151816004015560c0820151816005015560e0820151816006015561010082015181600701556101208201518160080155610140820151816009015561016082015181600a0160006101000a81548160ff021916908315150217905550505060016000908060018154018082558091505060019003906000526020600020016000909190919091505550505050505050565b600080838154811061106057634e487b7160e01b600052603260045260246000fd5b60009182526020909120600b90910201805490915061010090046001600160a01b031633146110a15760405162461bcd60e51b815260040161051d90611dd8565b6110aa836110f6565b610c675760405162461bcd60e51b815260206004820152601d60248201527f746869732073656c6c657220686173206e6f742064656661756c746564000000604482015260640161051d565b6000806000838154811061111a57634e487b7160e01b600052603260045260246000fd5b600091825260208083206040805161018081018252600b909402909101805460ff808216151586526001600160a01b036101009283900481169587019590955260018301548516938601939093526002820154909316606085015260038101546080850152600481015460a0850152600581015460c08501819052600682015460e086015260078201549385019390935260088101546101208501526009810154610140850152600a01541615156101608301529092506111db9042611ea6565b905060006111ec62278d0083611e73565b90508260e00151811061120d5760018360e0015161120a9190611ea6565b90505b600061121886610764565b9050600084610140015183600161122f9190611e5b565b6112399084611e87565b6112439190611ea6565b90508181111561125a575060019695505050505050565b5060009695505050505050565b600080828154811061128957634e487b7160e01b600052603260045260246000fd5b60009182526020909120600b90910201805490915060ff16156112ee5760405162461bcd60e51b815260206004820181905260248201527f74686973206c697374696e6720697320616c726561647920696e616374697665604482015260640161051d565b805461010090046001600160a01b031633146113475760405162461bcd60e51b815260206004820152601860248201527774686973206973206e6f7420796f7572206c697374696e6760401b604482015260640161051d565b600281015460038201546040516331a9108f60e11b8152600481019190915233916001600160a01b031690636352211e9060240160206040518083038186803b15801561139357600080fd5b505afa1580156113a7573d6000803e3d6000fd5b505050506040513d601f19601f820116820180604052508101906113cb9190611ca2565b6001600160a01b0316146113f15760405162461bcd60e51b815260040161051d90611e1a565b6002810154600382015460405163020604bf60e21b8152600481019190915230916001600160a01b03169063081812fc9060240160206040518083038186803b15801561143d57600080fd5b505afa158015611451573d6000803e3d6000fd5b505050506040513d601f19601f820116820180604052508101906114759190611ca2565b6001600160a01b03161461149b5760405162461bcd60e51b815260040161051d90611d8c565b805460ff1916600117905550565b606060008083815481106114cd57634e487b7160e01b600052603260045260246000fd5b90600052602060002090600b0201905060008160060154905060008167ffffffffffffffff81111561150f57634e487b7160e01b600052604160045260246000fd5b604051908082528060200260200182016040528015611538578160200160208202803683370190505b50905060005b8281101561159f5761155362278d0082611e87565b84600501546115629190611e5b565b82828151811061158257634e487b7160e01b600052603260045260246000fd5b60209081029190910101528061159781611ebd565b91505061153e565b50949350505050565b600080600083815481106115cc57634e487b7160e01b600052603260045260246000fd5b60009182526020918290206040805161018081018252600b909302909101805460ff808216151585526001600160a01b036101009283900481169686019690965260018301548616938501939093526002820154909416606084015260038101546080840152600481015460a0840152600581015460c0840152600681015460e08401526007810154938301939093526008830154610120830181905260098401546101408401819052600a909401549091161515610160830152909250116116985750600192915050565b50600092915050565b60008082815481106116c357634e487b7160e01b600052603260045260246000fd5b60009182526020909120600b90910201805490915060ff166117275760405162461bcd60e51b815260206004820152601d60248201527f74686973206c697374696e67206973206e6f7420617661696c61626c65000000604482015260640161051d565b600a81015460ff161561178e5760405162461bcd60e51b815260206004820152602960248201527f546865726520697320616c7265616479206120627579657220666f722074686960448201526873206c697374696e6760b81b606482015260840161051d565b80600701543410156117f65760405162461bcd60e51b815260206004820152602b60248201527f446964206e6f742073656e6420656e6f75676820666f722074686520696e697460448201526a1a585b081c185e5b595b9d60aa1b606482015260840161051d565b8054600282015460038301546040516331a9108f60e11b815260048101919091526101009092046001600160a01b0390811692911690636352211e9060240160206040518083038186803b15801561184d57600080fd5b505afa158015611861573d6000803e3d6000fd5b505050506040513d601f19601f820116820180604052508101906118859190611ca2565b6001600160a01b0316146118ed5760405162461bcd60e51b815260206004820152602960248201527f73656c6c6572206973206e6f206c6f6e67657220746865206f776e6572206f66604482015268081d1a1a5cc81b999d60ba1b606482015260840161051d565b6002810154600382015460405163020604bf60e21b8152600481019190915230916001600160a01b03169063081812fc9060240160206040518083038186803b15801561193957600080fd5b505afa15801561194d573d6000803e3d6000fd5b505050506040513d601f19601f820116820180604052508101906119719190611ca2565b6001600160a01b0316146119d75760405162461bcd60e51b815260206004820152602760248201527f7468697320636f6e7472616374206973206e6f7420617070726f7665642062796044820152661039b2b63632b960c91b606482015260840161051d565b6002810154815460038301546040516323b872dd60e01b81526001600160a01b036101009093048316600482015230602482015260448101919091529116906323b872dd90606401600060405180830381600087803b158015611a3957600080fd5b505af1158015611a4d573d6000803e3d6000fd5b50505050600281015460038201546040516331a9108f60e11b8152600481019190915230916001600160a01b031690636352211e9060240160206040518083038186803b158015611a9d57600080fd5b505afa158015611ab1573d6000803e3d6000fd5b505050506040513d601f19601f82011682018060405250810190611ad59190611ca2565b6001600160a01b031614611b465760405162461bcd60e51b815260206004820152603260248201527f636f756c64206e6f74207472616e73666572206e66742066726f6d206f776e656044820152711c881d1bc81d1a1a5cc818dbdb9d1c9858dd60721b606482015260840161051d565b346009820155600180820180546001600160a01b03191633179055600a8201805460ff191690911790554260058201819055611b8157600080fd5b3460018381548110611ba357634e487b7160e01b600052603260045260246000fd5b6000918252602090912001555050565b60008060008381548110611bd757634e487b7160e01b600052603260045260246000fd5b90600052602060002090600b02019050806004015481600501546108649190611e5b565b60008181548110611c0b57600080fd5b60009182526020909120600b9091020180546001820154600283015460038401546004850154600586015460068701546007880154600889015460098a0154600a909a015460ff808b169c50610100909a046001600160a01b039081169b9981169a98169896979596949593949293919291168c565b60018181548110611c9157600080fd5b600091825260209091200154905081565b600060208284031215611cb3578081fd5b815161086481611f18565b600080600080600060a08688031215611cd5578081fd5b8535611ce081611f18565b97602087013597506040870135966060810135965060800135945092505050565b600060208284031215611d12578081fd5b5035919050565b60008060408385031215611d2b578182fd5b823591506020830135611d3d81611f18565b809150509250929050565b6020808252825182820181905260009190848201906040850190845b81811015611d8057835183529284019291840191600101611d64565b50909695505050505050565b6020808252602c908201527f74686973206164647265737320686173206e6f74206265656e20617070726f7660408201526b32b210313c9039b2b63632b960a11b606082015260800190565b60208082526022908201527f796f7520617265206e6f74207468652073656c6c6572206f662074686973206e604082015261199d60f21b606082015260800190565b60208082526021908201527f796f7520617265206e6f7420746865206f776e6572206f662074686973206e666040820152601d60fa1b606082015260800190565b60008219821115611e6e57611e6e611eec565b500190565b600082611e8257611e82611f02565b500490565b6000816000190483118215151615611ea157611ea1611eec565b500290565b600082821015611eb857611eb8611eec565b500390565b6000600019821415611ed157611ed1611eec565b5060010190565b600082611ee757611ee7611f02565b500690565b634e487b7160e01b600052601160045260246000fd5b634e487b7160e01b600052601260045260246000fd5b6001600160a01b0381168114611f2d57600080fd5b5056fea26469706673582212200ed57b260fda37d71120c362d97b8966fca43060b813fc5b136647367e4e61a064736f6c63430008040033","opcodes":"PUSH1 0x80 PUSH1 0x40 MSTORE CALLVALUE DUP1 ISZERO PUSH2 0x10 JUMPI PUSH1 0x0 DUP1 REVERT JUMPDEST POP PUSH2 0x1F66 DUP1 PUSH2 0x20 PUSH1 0x0 CODECOPY PUSH1 0x0 RETURN INVALID PUSH1 0x80 PUSH1 0x40 MSTORE PUSH1 0x4 CALLDATASIZE LT PUSH2 0x11F JUMPI PUSH1 0x0 CALLDATALOAD PUSH1 0xE0 SHR DUP1 PUSH4 0x91627EB0 GT PUSH2 0xA0 JUMPI DUP1 PUSH4 0xC262CADC GT PUSH2 0x64 JUMPI DUP1 PUSH4 0xC262CADC EQ PUSH2 0x320 JUMPI DUP1 PUSH4 0xC7E380E1 EQ PUSH2 0x333 JUMPI DUP1 PUSH4 0xD18E81B3 EQ PUSH2 0x353 JUMPI DUP1 PUSH4 0xDE74E57B EQ PUSH2 0x366 JUMPI DUP1 PUSH4 0xFAF6A54A EQ PUSH2 0x3F2 JUMPI PUSH1 0x0 DUP1 REVERT JUMPDEST DUP1 PUSH4 0x91627EB0 EQ PUSH2 0x273 JUMPI DUP1 PUSH4 0x94049AE2 EQ PUSH2 0x293 JUMPI DUP1 PUSH4 0x9F63B5B1 EQ PUSH2 0x2B3 JUMPI DUP1 PUSH4 0xA646E664 EQ PUSH2 0x2D3 JUMPI DUP1 PUSH4 0xBAC94B7A EQ PUSH2 0x300 JUMPI PUSH1 0x0 DUP1 REVERT JUMPDEST DUP1 PUSH4 0x5D54E2CB GT PUSH2 0xE7 JUMPI DUP1 PUSH4 0x5D54E2CB EQ PUSH2 0x1C3 JUMPI DUP1 PUSH4 0x5F54FFD6 EQ PUSH2 0x1E3 JUMPI DUP1 PUSH4 0x82AFD23B EQ PUSH2 0x203 JUMPI DUP1 PUSH4 0x82E5F0E0 EQ PUSH2 0x233 JUMPI DUP1 PUSH4 0x9057F289 EQ PUSH2 0x253 JUMPI PUSH1 0x0 DUP1 REVERT JUMPDEST DUP1 PUSH4 0x7EB192F EQ PUSH2 0x124 JUMPI DUP1 PUSH4 0x314BC6CD EQ PUSH2 0x14E JUMPI DUP1 PUSH4 0x3B8D915F EQ PUSH2 0x16E JUMPI DUP1 PUSH4 0x5114CB52 EQ PUSH2 0x190 JUMPI DUP1 PUSH4 0x5B4112DF EQ PUSH2 0x1A3 JUMPI JUMPDEST PUSH1 0x0 DUP1 REVERT JUMPDEST CALLVALUE DUP1 ISZERO PUSH2 0x130 JUMPI PUSH1 0x0 DUP1 REVERT JUMPDEST POP PUSH2 0x13B PUSH3 0x278D00 DUP2 JUMP JUMPDEST PUSH1 0x40 MLOAD SWAP1 DUP2 MSTORE PUSH1 0x20 ADD JUMPDEST PUSH1 0x40 MLOAD DUP1 SWAP2 SUB SWAP1 RETURN JUMPDEST CALLVALUE DUP1 ISZERO PUSH2 0x15A JUMPI PUSH1 0x0 DUP1 REVERT JUMPDEST POP PUSH2 0x13B PUSH2 0x169 CALLDATASIZE PUSH1 0x4 PUSH2 0x1D01 JUMP JUMPDEST PUSH2 0x412 JUMP JUMPDEST CALLVALUE DUP1 ISZERO PUSH2 0x17A JUMPI PUSH1 0x0 DUP1 REVERT JUMPDEST POP PUSH2 0x18E PUSH2 0x189 CALLDATASIZE PUSH1 0x4 PUSH2 0x1D01 JUMP JUMPDEST PUSH2 0x493 JUMP JUMPDEST STOP JUMPDEST PUSH2 0x18E PUSH2 0x19E CALLDATASIZE PUSH1 0x4 PUSH2 0x1D01 JUMP JUMPDEST PUSH2 0x570 JUMP JUMPDEST CALLVALUE DUP1 ISZERO PUSH2 0x1AF JUMPI PUSH1 0x0 DUP1 REVERT JUMPDEST POP PUSH2 0x13B PUSH2 0x1BE CALLDATASIZE PUSH1 0x4 PUSH2 0x1D01 JUMP JUMPDEST PUSH2 0x764 JUMP JUMPDEST CALLVALUE DUP1 ISZERO PUSH2 0x1CF JUMPI PUSH1 0x0 DUP1 REVERT JUMPDEST POP PUSH2 0x13B PUSH2 0x1DE CALLDATASIZE PUSH1 0x4 PUSH2 0x1D01 JUMP JUMPDEST PUSH2 0x86B JUMP JUMPDEST CALLVALUE DUP1 ISZERO PUSH2 0x1EF JUMPI PUSH1 0x0 DUP1 REVERT JUMPDEST POP PUSH2 0x18E PUSH2 0x1FE CALLDATASIZE PUSH1 0x4 PUSH2 0x1D01 JUMP JUMPDEST PUSH2 0x95B JUMP JUMPDEST CALLVALUE DUP1 ISZERO PUSH2 0x20F JUMPI PUSH1 0x0 DUP1 REVERT JUMPDEST POP PUSH2 0x223 PUSH2 0x21E CALLDATASIZE PUSH1 0x4 PUSH2 0x1D01 JUMP JUMPDEST PUSH2 0xB37 JUMP JUMPDEST PUSH1 0x40 MLOAD SWAP1 ISZERO ISZERO DUP2 MSTORE PUSH1 0x20 ADD PUSH2 0x145 JUMP JUMPDEST CALLVALUE DUP1 ISZERO PUSH2 0x23F JUMPI PUSH1 0x0 DUP1 REVERT JUMPDEST POP PUSH2 0x18E PUSH2 0x24E CALLDATASIZE PUSH1 0x4 PUSH2 0x1D19 JUMP JUMPDEST PUSH2 0xB76 JUMP JUMPDEST CALLVALUE DUP1 ISZERO PUSH2 0x25F JUMPI PUSH1 0x0 DUP1 REVERT JUMPDEST POP PUSH2 0x18E PUSH2 0x26E CALLDATASIZE PUSH1 0x4 PUSH2 0x1CBE JUMP JUMPDEST PUSH2 0xCDF JUMP JUMPDEST CALLVALUE DUP1 ISZERO PUSH2 0x27F JUMPI PUSH1 0x0 DUP1 REVERT JUMPDEST POP PUSH2 0x18E PUSH2 0x28E CALLDATASIZE PUSH1 0x4 PUSH2 0x1D19 JUMP JUMPDEST PUSH2 0x103E JUMP JUMPDEST CALLVALUE DUP1 ISZERO PUSH2 0x29F JUMPI PUSH1 0x0 DUP1 REVERT JUMPDEST POP PUSH2 0x223 PUSH2 0x2AE CALLDATASIZE PUSH1 0x4 PUSH2 0x1D01 JUMP JUMPDEST PUSH2 0x10F6 JUMP JUMPDEST CALLVALUE DUP1 ISZERO PUSH2 0x2BF JUMPI PUSH1 0x0 DUP1 REVERT JUMPDEST POP PUSH2 0x18E PUSH2 0x2CE CALLDATASIZE PUSH1 0x4 PUSH2 0x1D01 JUMP JUMPDEST PUSH2 0x1267 JUMP JUMPDEST CALLVALUE DUP1 ISZERO PUSH2 0x2DF JUMPI PUSH1 0x0 DUP1 REVERT JUMPDEST POP PUSH2 0x2F3 PUSH2 0x2EE CALLDATASIZE PUSH1 0x4 PUSH2 0x1D01 JUMP JUMPDEST PUSH2 0x14A9 JUMP JUMPDEST PUSH1 0x40 MLOAD PUSH2 0x145 SWAP2 SWAP1 PUSH2 0x1D48 JUMP JUMPDEST CALLVALUE DUP1 ISZERO PUSH2 0x30C JUMPI PUSH1 0x0 DUP1 REVERT JUMPDEST POP PUSH2 0x223 PUSH2 0x31B CALLDATASIZE PUSH1 0x4 PUSH2 0x1D01 JUMP JUMPDEST PUSH2 0x15A8 JUMP JUMPDEST PUSH2 0x18E PUSH2 0x32E CALLDATASIZE PUSH1 0x4 PUSH2 0x1D01 JUMP JUMPDEST PUSH2 0x16A1 JUMP JUMPDEST CALLVALUE DUP1 ISZERO PUSH2 0x33F JUMPI PUSH1 0x0 DUP1 REVERT JUMPDEST POP PUSH2 0x13B PUSH2 0x34E CALLDATASIZE PUSH1 0x4 PUSH2 0x1D01 JUMP JUMPDEST PUSH2 0x1BB3 JUMP JUMPDEST CALLVALUE DUP1 ISZERO PUSH2 0x35F JUMPI PUSH1 0x0 DUP1 REVERT JUMPDEST POP TIMESTAMP PUSH2 0x13B JUMP JUMPDEST CALLVALUE DUP1 ISZERO PUSH2 0x372 JUMPI PUSH1 0x0 DUP1 REVERT JUMPDEST POP PUSH2 0x386 PUSH2 0x381 CALLDATASIZE PUSH1 0x4 PUSH2 0x1D01 JUMP JUMPDEST PUSH2 0x1BFB JUMP JUMPDEST PUSH1 0x40 DUP1 MLOAD SWAP13 ISZERO ISZERO DUP14 MSTORE PUSH1 0x1 PUSH1 0x1 PUSH1 0xA0 SHL SUB SWAP12 DUP13 AND PUSH1 0x20 DUP15 ADD MSTORE SWAP10 DUP12 AND SWAP10 DUP13 ADD SWAP10 SWAP1 SWAP10 MSTORE SWAP9 SWAP1 SWAP7 AND PUSH1 0x60 DUP11 ADD MSTORE PUSH1 0x80 DUP10 ADD SWAP5 SWAP1 SWAP5 MSTORE PUSH1 0xA0 DUP9 ADD SWAP3 SWAP1 SWAP3 MSTORE PUSH1 0xC0 DUP8 ADD MSTORE PUSH1 0xE0 DUP7 ADD MSTORE PUSH2 0x100 DUP6 ADD MSTORE PUSH2 0x120 DUP5 ADD MSTORE PUSH2 0x140 DUP4 ADD SWAP2 SWAP1 SWAP2 MSTORE ISZERO ISZERO PUSH2 0x160 DUP3 ADD MSTORE PUSH2 0x180 ADD PUSH2 0x145 JUMP JUMPDEST CALLVALUE DUP1 ISZERO PUSH2 0x3FE JUMPI PUSH1 0x0 DUP1 REVERT JUMPDEST POP PUSH2 0x13B PUSH2 0x40D CALLDATASIZE PUSH1 0x4 PUSH2 0x1D01 JUMP JUMPDEST PUSH2 0x1C81 JUMP JUMPDEST PUSH1 0x0 DUP1 PUSH1 0x0 DUP4 DUP2 SLOAD DUP2 LT PUSH2 0x436 JUMPI PUSH4 0x4E487B71 PUSH1 0xE0 SHL PUSH1 0x0 MSTORE PUSH1 0x32 PUSH1 0x4 MSTORE PUSH1 0x24 PUSH1 0x0 REVERT JUMPDEST SWAP1 PUSH1 0x0 MSTORE PUSH1 0x20 PUSH1 0x0 KECCAK256 SWAP1 PUSH1 0xB MUL ADD SWAP1 POP PUSH1 0x0 DUP2 PUSH1 0x5 ADD SLOAD TIMESTAMP PUSH2 0x458 SWAP2 SWAP1 PUSH2 0x1EA6 JUMP JUMPDEST SWAP1 POP PUSH1 0x0 PUSH2 0x469 PUSH3 0x278D00 DUP4 PUSH2 0x1ED8 JUMP JUMPDEST SWAP1 POP PUSH1 0x0 PUSH2 0x47A DUP3 PUSH3 0x278D00 PUSH2 0x1EA6 JUMP JUMPDEST SWAP1 POP PUSH1 0x0 PUSH2 0x488 DUP3 TIMESTAMP PUSH2 0x1E5B JUMP JUMPDEST SWAP8 SWAP7 POP POP POP POP POP POP POP JUMP JUMPDEST PUSH1 0x0 DUP1 DUP3 DUP2 SLOAD DUP2 LT PUSH2 0x4B5 JUMPI PUSH4 0x4E487B71 PUSH1 0xE0 SHL PUSH1 0x0 MSTORE PUSH1 0x32 PUSH1 0x4 MSTORE PUSH1 0x24 PUSH1 0x0 REVERT JUMPDEST PUSH1 0x0 SWAP2 DUP3 MSTORE PUSH1 0x20 SWAP1 SWAP2 KECCAK256 PUSH1 0xB SWAP1 SWAP2 MUL ADD DUP1 SLOAD SWAP1 SWAP2 POP PUSH2 0x100 SWAP1 DIV PUSH1 0x1 PUSH1 0x1 PUSH1 0xA0 SHL SUB AND CALLER EQ PUSH2 0x526 JUMPI PUSH1 0x40 MLOAD PUSH3 0x461BCD PUSH1 0xE5 SHL DUP2 MSTORE PUSH1 0x20 PUSH1 0x4 DUP3 ADD MSTORE PUSH1 0x18 PUSH1 0x24 DUP3 ADD MSTORE PUSH24 0x74686973206973206E6F7420796F7572206C697374696E67 PUSH1 0x40 SHL PUSH1 0x44 DUP3 ADD MSTORE PUSH1 0x64 ADD JUMPDEST PUSH1 0x40 MLOAD DUP1 SWAP2 SUB SWAP1 REVERT JUMPDEST PUSH2 0x52F DUP3 PUSH2 0x10F6 JUMP JUMPDEST DUP1 PUSH2 0x53F JUMPI POP PUSH1 0xA DUP2 ADD SLOAD PUSH1 0xFF AND ISZERO JUMPDEST PUSH2 0x565 JUMPI PUSH1 0x40 MLOAD PUSH3 0x461BCD PUSH1 0xE5 SHL DUP2 MSTORE PUSH1 0x20 PUSH1 0x4 DUP3 ADD MSTORE PUSH1 0x0 PUSH1 0x24 DUP3 ADD MSTORE PUSH1 0x44 ADD PUSH2 0x51D JUMP JUMPDEST DUP1 SLOAD PUSH1 0xFF NOT AND SWAP1 SSTORE POP JUMP JUMPDEST PUSH1 0x0 CALLVALUE GT PUSH2 0x5D0 JUMPI PUSH1 0x40 MLOAD PUSH3 0x461BCD PUSH1 0xE5 SHL DUP2 MSTORE PUSH1 0x20 PUSH1 0x4 DUP3 ADD MSTORE PUSH1 0x27 PUSH1 0x24 DUP3 ADD MSTORE PUSH32 0x746865726520776173206E6F206574682073656E742077697468207468697320 PUSH1 0x44 DUP3 ADD MSTORE PUSH7 0x1C185E5B595B9D PUSH1 0xCA SHL PUSH1 0x64 DUP3 ADD MSTORE PUSH1 0x84 ADD PUSH2 0x51D JUMP JUMPDEST PUSH2 0x5D9 DUP2 PUSH2 0x10F6 JUMP JUMPDEST ISZERO PUSH2 0x61C JUMPI PUSH1 0x40 MLOAD PUSH3 0x461BCD PUSH1 0xE5 SHL DUP2 MSTORE PUSH1 0x20 PUSH1 0x4 DUP3 ADD MSTORE PUSH1 0x13 PUSH1 0x24 DUP3 ADD MSTORE PUSH19 0x189D5E595C881A185CC8191959985D5B1D1959 PUSH1 0x6A SHL PUSH1 0x44 DUP3 ADD MSTORE PUSH1 0x64 ADD PUSH2 0x51D JUMP JUMPDEST PUSH1 0x0 DUP1 DUP3 DUP2 SLOAD DUP2 LT PUSH2 0x63E JUMPI PUSH4 0x4E487B71 PUSH1 0xE0 SHL PUSH1 0x0 MSTORE PUSH1 0x32 PUSH1 0x4 MSTORE PUSH1 0x24 PUSH1 0x0 REVERT JUMPDEST PUSH1 0x0 SWAP2 DUP3 MSTORE PUSH1 0x20 SWAP2 DUP3 SWAP1 KECCAK256 PUSH1 0x40 DUP1 MLOAD PUSH2 0x180 DUP2 ADD DUP3 MSTORE PUSH1 0xB SWAP1 SWAP4 MUL SWAP1 SWAP2 ADD DUP1 SLOAD PUSH1 0xFF DUP1 DUP3 AND ISZERO ISZERO DUP1 DUP7 MSTORE PUSH1 0x1 PUSH1 0x1 PUSH1 0xA0 SHL SUB PUSH2 0x100 SWAP4 DUP5 SWAP1 DIV DUP2 AND SWAP8 DUP8 ADD SWAP8 SWAP1 SWAP8 MSTORE PUSH1 0x1 DUP5 ADD SLOAD DUP8 AND SWAP5 DUP7 ADD SWAP5 SWAP1 SWAP5 MSTORE PUSH1 0x2 DUP4 ADD SLOAD SWAP1 SWAP6 AND PUSH1 0x60 DUP6 ADD MSTORE PUSH1 0x3 DUP3 ADD SLOAD PUSH1 0x80 DUP6 ADD MSTORE PUSH1 0x4 DUP3 ADD SLOAD PUSH1 0xA0 DUP6 ADD MSTORE PUSH1 0x5 DUP3 ADD SLOAD PUSH1 0xC0 DUP6 ADD MSTORE PUSH1 0x6 DUP3 ADD SLOAD PUSH1 0xE0 DUP6 ADD MSTORE PUSH1 0x7 DUP3 ADD SLOAD SWAP1 DUP5 ADD MSTORE PUSH1 0x8 DUP2 ADD SLOAD PUSH2 0x120 DUP5 ADD MSTORE PUSH1 0x9 DUP2 ADD SLOAD PUSH2 0x140 DUP5 ADD MSTORE PUSH1 0xA ADD SLOAD SWAP1 SWAP3 AND ISZERO ISZERO PUSH2 0x160 DUP3 ADD MSTORE SWAP2 POP PUSH2 0x6FC JUMPI PUSH1 0x0 DUP1 REVERT JUMPDEST CALLVALUE DUP2 PUSH2 0x140 ADD DUP2 DUP2 MLOAD PUSH2 0x70F SWAP2 SWAP1 PUSH2 0x1E5B JUMP JUMPDEST SWAP1 MSTORE POP PUSH1 0x1 DUP1 SLOAD CALLVALUE SWAP2 SWAP1 DUP5 SWAP1 DUP2 LT PUSH2 0x737 JUMPI PUSH4 0x4E487B71 PUSH1 0xE0 SHL PUSH1 0x0 MSTORE PUSH1 0x32 PUSH1 0x4 MSTORE PUSH1 0x24 PUSH1 0x0 REVERT JUMPDEST SWAP1 PUSH1 0x0 MSTORE PUSH1 0x20 PUSH1 0x0 KECCAK256 ADD PUSH1 0x0 DUP3 DUP3 SLOAD PUSH2 0x750 SWAP2 SWAP1 PUSH2 0x1E5B JUMP JUMPDEST SWAP1 SWAP2 SSTORE POP PUSH2 0x75F SWAP1 POP DUP3 PUSH2 0x15A8 JUMP JUMPDEST POP POP POP JUMP JUMPDEST PUSH1 0x0 DUP1 PUSH1 0x0 DUP4 DUP2 SLOAD DUP2 LT PUSH2 0x788 JUMPI PUSH4 0x4E487B71 PUSH1 0xE0 SHL PUSH1 0x0 MSTORE PUSH1 0x32 PUSH1 0x4 MSTORE PUSH1 0x24 PUSH1 0x0 REVERT JUMPDEST PUSH1 0x0 SWAP2 DUP3 MSTORE PUSH1 0x20 SWAP2 DUP3 SWAP1 KECCAK256 PUSH1 0x40 DUP1 MLOAD PUSH2 0x180 DUP2 ADD DUP3 MSTORE PUSH1 0xB SWAP1 SWAP4 MUL SWAP1 SWAP2 ADD DUP1 SLOAD PUSH1 0xFF DUP1 DUP3 AND ISZERO ISZERO DUP6 MSTORE PUSH1 0x1 PUSH1 0x1 PUSH1 0xA0 SHL SUB PUSH2 0x100 SWAP3 DUP4 SWAP1 DIV DUP2 AND SWAP7 DUP7 ADD SWAP7 SWAP1 SWAP7 MSTORE PUSH1 0x1 DUP4 ADD SLOAD DUP7 AND SWAP4 DUP6 ADD SWAP4 SWAP1 SWAP4 MSTORE PUSH1 0x2 DUP3 ADD SLOAD SWAP1 SWAP5 AND PUSH1 0x60 DUP5 ADD MSTORE PUSH1 0x3 DUP2 ADD SLOAD PUSH1 0x80 DUP5 ADD MSTORE PUSH1 0x4 DUP2 ADD SLOAD PUSH1 0xA0 DUP5 ADD MSTORE PUSH1 0x5 DUP2 ADD SLOAD PUSH1 0xC0 DUP5 ADD MSTORE PUSH1 0x6 DUP2 ADD SLOAD PUSH1 0xE0 DUP5 ADD DUP2 SWAP1 MSTORE PUSH1 0x7 DUP3 ADD SLOAD SWAP5 DUP5 ADD DUP6 SWAP1 MSTORE PUSH1 0x8 DUP3 ADD SLOAD PUSH2 0x120 DUP6 ADD DUP2 SWAP1 MSTORE PUSH1 0x9 DUP4 ADD SLOAD PUSH2 0x140 DUP7 ADD MSTORE PUSH1 0xA SWAP1 SWAP3 ADD SLOAD SWAP1 SWAP3 AND ISZERO ISZERO PUSH2 0x160 DUP5 ADD MSTORE SWAP2 SWAP4 POP SWAP2 PUSH2 0x84F SWAP2 PUSH2 0x1EA6 JUMP JUMPDEST PUSH2 0x859 SWAP2 SWAP1 PUSH2 0x1E73 JUMP JUMPDEST PUSH2 0x864 SWAP1 PUSH1 0x1 PUSH2 0x1E5B JUMP JUMPDEST SWAP4 SWAP3 POP POP POP JUMP JUMPDEST PUSH1 0x0 DUP1 PUSH1 0x0 DUP4 DUP2 SLOAD DUP2 LT PUSH2 0x88F JUMPI PUSH4 0x4E487B71 PUSH1 0xE0 SHL PUSH1 0x0 MSTORE PUSH1 0x32 PUSH1 0x4 MSTORE PUSH1 0x24 PUSH1 0x0 REVERT JUMPDEST SWAP1 PUSH1 0x0 MSTORE PUSH1 0x20 PUSH1 0x0 KECCAK256 SWAP1 PUSH1 0xB MUL ADD SWAP1 POP PUSH2 0x8A8 DUP4 PUSH2 0x10F6 JUMP JUMPDEST ISZERO PUSH2 0x901 JUMPI PUSH1 0x40 MLOAD PUSH3 0x461BCD PUSH1 0xE5 SHL DUP2 MSTORE PUSH1 0x20 PUSH1 0x4 DUP3 ADD MSTORE PUSH1 0x24 DUP1 DUP3 ADD MSTORE PUSH32 0x74686973207061796D656E742061677265656D656E7420686173206465666175 PUSH1 0x44 DUP3 ADD MSTORE PUSH4 0x1B1D1959 PUSH1 0xE2 SHL PUSH1 0x64 DUP3 ADD MSTORE PUSH1 0x84 ADD PUSH2 0x51D JUMP JUMPDEST PUSH1 0x0 DUP2 PUSH1 0x5 ADD SLOAD TIMESTAMP PUSH2 0x913 SWAP2 SWAP1 PUSH2 0x1EA6 JUMP JUMPDEST SWAP1 POP PUSH1 0x0 PUSH2 0x924 PUSH3 0x278D00 DUP4 PUSH2 0x1E73 JUMP JUMPDEST SWAP1 POP PUSH1 0x0 PUSH2 0x931 DUP7 PUSH2 0x764 JUMP JUMPDEST SWAP1 POP PUSH1 0x0 DUP5 PUSH1 0x9 ADD SLOAD DUP4 PUSH1 0x1 PUSH2 0x947 SWAP2 SWAP1 PUSH2 0x1E5B JUMP JUMPDEST PUSH2 0x951 SWAP1 DUP5 PUSH2 0x1E87 JUMP JUMPDEST PUSH2 0x488 SWAP2 SWAP1 PUSH2 0x1EA6 JUMP JUMPDEST PUSH1 0x0 DUP1 DUP3 DUP2 SLOAD DUP2 LT PUSH2 0x97D JUMPI PUSH4 0x4E487B71 PUSH1 0xE0 SHL PUSH1 0x0 MSTORE PUSH1 0x32 PUSH1 0x4 MSTORE PUSH1 0x24 PUSH1 0x0 REVERT JUMPDEST PUSH1 0x0 SWAP2 DUP3 MSTORE PUSH1 0x20 SWAP1 SWAP2 KECCAK256 PUSH1 0xB SWAP1 SWAP2 MUL ADD DUP1 SLOAD SWAP1 SWAP2 POP PUSH2 0x100 SWAP1 DIV PUSH1 0x1 PUSH1 0x1 PUSH1 0xA0 SHL SUB AND CALLER EQ PUSH2 0x9BE JUMPI PUSH1 0x40 MLOAD PUSH3 0x461BCD PUSH1 0xE5 SHL DUP2 MSTORE PUSH1 0x4 ADD PUSH2 0x51D SWAP1 PUSH2 0x1DD8 JUMP JUMPDEST PUSH1 0x0 PUSH1 0x1 DUP4 DUP2 SLOAD DUP2 LT PUSH2 0x9E1 JUMPI PUSH4 0x4E487B71 PUSH1 0xE0 SHL PUSH1 0x0 MSTORE PUSH1 0x32 PUSH1 0x4 MSTORE PUSH1 0x24 PUSH1 0x0 REVERT JUMPDEST SWAP1 PUSH1 0x0 MSTORE PUSH1 0x20 PUSH1 0x0 KECCAK256 ADD SLOAD GT PUSH2 0xA39 JUMPI PUSH1 0x40 MLOAD PUSH3 0x461BCD PUSH1 0xE5 SHL DUP2 MSTORE PUSH1 0x20 PUSH1 0x4 DUP3 ADD MSTORE PUSH1 0x1C PUSH1 0x24 DUP3 ADD MSTORE PUSH32 0x7468657265206973206E6F7468696E6720746F20776974686472617700000000 PUSH1 0x44 DUP3 ADD MSTORE PUSH1 0x64 ADD PUSH2 0x51D JUMP JUMPDEST PUSH1 0x0 PUSH1 0x1 DUP4 DUP2 SLOAD DUP2 LT PUSH2 0xA5C JUMPI PUSH4 0x4E487B71 PUSH1 0xE0 SHL PUSH1 0x0 MSTORE PUSH1 0x32 PUSH1 0x4 MSTORE PUSH1 0x24 PUSH1 0x0 REVERT JUMPDEST SWAP1 PUSH1 0x0 MSTORE PUSH1 0x20 PUSH1 0x0 KECCAK256 ADD SLOAD SWAP1 POP DUP2 PUSH1 0x8 ADD SLOAD DUP2 LT PUSH2 0xA79 JUMPI PUSH1 0x0 DUP1 REVERT JUMPDEST PUSH1 0x0 PUSH1 0x1 DUP5 DUP2 SLOAD DUP2 LT PUSH2 0xA9C JUMPI PUSH4 0x4E487B71 PUSH1 0xE0 SHL PUSH1 0x0 MSTORE PUSH1 0x32 PUSH1 0x4 MSTORE PUSH1 0x24 PUSH1 0x0 REVERT JUMPDEST PUSH1 0x0 SWAP2 DUP3 MSTORE PUSH1 0x20 DUP3 KECCAK256 ADD SWAP2 SWAP1 SWAP2 SSTORE PUSH1 0x40 MLOAD CALLER SWAP1 DUP4 SWAP1 DUP4 DUP2 DUP2 DUP2 DUP6 DUP8 GAS CALL SWAP3 POP POP POP RETURNDATASIZE DUP1 PUSH1 0x0 DUP2 EQ PUSH2 0xAE9 JUMPI PUSH1 0x40 MLOAD SWAP2 POP PUSH1 0x1F NOT PUSH1 0x3F RETURNDATASIZE ADD AND DUP3 ADD PUSH1 0x40 MSTORE RETURNDATASIZE DUP3 MSTORE RETURNDATASIZE PUSH1 0x0 PUSH1 0x20 DUP5 ADD RETURNDATACOPY PUSH2 0xAEE JUMP JUMPDEST PUSH1 0x60 SWAP2 POP JUMPDEST POP POP SWAP1 POP DUP1 PUSH2 0xB31 JUMPI PUSH1 0x40 MLOAD PUSH3 0x461BCD PUSH1 0xE5 SHL DUP2 MSTORE PUSH1 0x20 PUSH1 0x4 DUP3 ADD MSTORE PUSH1 0xF PUSH1 0x24 DUP3 ADD MSTORE PUSH15 0x1D1C985B9CD9995C8819985A5B1959 PUSH1 0x8A SHL PUSH1 0x44 DUP3 ADD MSTORE PUSH1 0x64 ADD PUSH2 0x51D JUMP JUMPDEST POP POP POP POP JUMP JUMPDEST PUSH1 0x0 DUP1 PUSH1 0x0 DUP4 DUP2 SLOAD DUP2 LT PUSH2 0xB5B JUMPI PUSH4 0x4E487B71 PUSH1 0xE0 SHL PUSH1 0x0 MSTORE PUSH1 0x32 PUSH1 0x4 MSTORE PUSH1 0x24 PUSH1 0x0 REVERT JUMPDEST PUSH1 0x0 SWAP2 DUP3 MSTORE PUSH1 0x20 SWAP1 SWAP2 KECCAK256 PUSH1 0xB SWAP1 SWAP2 MUL ADD SLOAD PUSH1 0xFF AND SWAP4 SWAP3 POP POP POP JUMP JUMPDEST PUSH1 0x0 DUP1 DUP4 DUP2 SLOAD DUP2 LT PUSH2 0xB98 JUMPI PUSH4 0x4E487B71 PUSH1 0xE0 SHL PUSH1 0x0 MSTORE PUSH1 0x32 PUSH1 0x4 MSTORE PUSH1 0x24 PUSH1 0x0 REVERT JUMPDEST PUSH1 0x0 SWAP2 DUP3 MSTORE PUSH1 0x20 SWAP1 SWAP2 KECCAK256 PUSH1 0x1 PUSH1 0xB SWAP1 SWAP3 MUL ADD SWAP1 DUP2 ADD SLOAD SWAP1 SWAP2 POP PUSH1 0x1 PUSH1 0x1 PUSH1 0xA0 SHL SUB AND CALLER EQ PUSH2 0xC12 JUMPI PUSH1 0x40 MLOAD PUSH3 0x461BCD PUSH1 0xE5 SHL DUP2 MSTORE PUSH1 0x20 PUSH1 0x4 DUP3 ADD MSTORE PUSH1 0x21 PUSH1 0x24 DUP3 ADD MSTORE PUSH32 0x796F7520617265206E6F7420746865206275796572206F662074686973206E66 PUSH1 0x44 DUP3 ADD MSTORE PUSH1 0x1D PUSH1 0xFA SHL PUSH1 0x64 DUP3 ADD MSTORE PUSH1 0x84 ADD PUSH2 0x51D JUMP JUMPDEST PUSH2 0xC1B DUP4 PUSH2 0x15A8 JUMP JUMPDEST PUSH2 0xC67 JUMPI PUSH1 0x40 MLOAD PUSH3 0x461BCD PUSH1 0xE5 SHL DUP2 MSTORE PUSH1 0x20 PUSH1 0x4 DUP3 ADD MSTORE PUSH1 0x1E PUSH1 0x24 DUP3 ADD MSTORE PUSH32 0x74686973206E667420686173206E6F74206265656E2070616964206F66660000 PUSH1 0x44 DUP3 ADD MSTORE PUSH1 0x64 ADD PUSH2 0x51D JUMP JUMPDEST PUSH1 0x2 DUP2 ADD SLOAD PUSH1 0x3 DUP3 ADD SLOAD PUSH1 0x40 MLOAD PUSH4 0x23B872DD PUSH1 0xE0 SHL DUP2 MSTORE ADDRESS PUSH1 0x4 DUP3 ADD MSTORE PUSH1 0x1 PUSH1 0x1 PUSH1 0xA0 SHL SUB DUP6 DUP2 AND PUSH1 0x24 DUP4 ADD MSTORE PUSH1 0x44 DUP3 ADD SWAP3 SWAP1 SWAP3 MSTORE SWAP2 AND SWAP1 PUSH4 0x23B872DD SWAP1 PUSH1 0x64 ADD PUSH1 0x0 PUSH1 0x40 MLOAD DUP1 DUP4 SUB DUP2 PUSH1 0x0 DUP8 DUP1 EXTCODESIZE ISZERO DUP1 ISZERO PUSH2 0xCC2 JUMPI PUSH1 0x0 DUP1 REVERT JUMPDEST POP GAS CALL ISZERO DUP1 ISZERO PUSH2 0xCD6 JUMPI RETURNDATASIZE PUSH1 0x0 DUP1 RETURNDATACOPY RETURNDATASIZE PUSH1 0x0 REVERT JUMPDEST POP POP POP POP POP POP POP JUMP JUMPDEST PUSH1 0x40 MLOAD PUSH4 0x31A9108F PUSH1 0xE1 SHL DUP2 MSTORE PUSH1 0x4 DUP2 ADD DUP6 SWAP1 MSTORE CALLER SWAP1 PUSH1 0x1 PUSH1 0x1 PUSH1 0xA0 SHL SUB DUP8 AND SWAP1 PUSH4 0x6352211E SWAP1 PUSH1 0x24 ADD PUSH1 0x20 PUSH1 0x40 MLOAD DUP1 DUP4 SUB DUP2 DUP7 DUP1 EXTCODESIZE ISZERO DUP1 ISZERO PUSH2 0xD21 JUMPI PUSH1 0x0 DUP1 REVERT JUMPDEST POP GAS STATICCALL ISZERO DUP1 ISZERO PUSH2 0xD35 JUMPI RETURNDATASIZE PUSH1 0x0 DUP1 RETURNDATACOPY RETURNDATASIZE PUSH1 0x0 REVERT JUMPDEST POP POP POP POP PUSH1 0x40 MLOAD RETURNDATASIZE PUSH1 0x1F NOT PUSH1 0x1F DUP3 ADD AND DUP3 ADD DUP1 PUSH1 0x40 MSTORE POP DUP2 ADD SWAP1 PUSH2 0xD59 SWAP2 SWAP1 PUSH2 0x1CA2 JUMP JUMPDEST PUSH1 0x1 PUSH1 0x1 PUSH1 0xA0 SHL SUB AND EQ PUSH2 0xD7F JUMPI PUSH1 0x40 MLOAD PUSH3 0x461BCD PUSH1 0xE5 SHL DUP2 MSTORE PUSH1 0x4 ADD PUSH2 0x51D SWAP1 PUSH2 0x1E1A JUMP JUMPDEST PUSH1 0x40 MLOAD PUSH4 0x20604BF PUSH1 0xE2 SHL DUP2 MSTORE PUSH1 0x4 DUP2 ADD DUP6 SWAP1 MSTORE ADDRESS SWAP1 PUSH1 0x1 PUSH1 0x1 PUSH1 0xA0 SHL SUB DUP8 AND SWAP1 PUSH4 0x81812FC SWAP1 PUSH1 0x24 ADD PUSH1 0x20 PUSH1 0x40 MLOAD DUP1 DUP4 SUB DUP2 DUP7 DUP1 EXTCODESIZE ISZERO DUP1 ISZERO PUSH2 0xDC1 JUMPI PUSH1 0x0 DUP1 REVERT JUMPDEST POP GAS STATICCALL ISZERO DUP1 ISZERO PUSH2 0xDD5 JUMPI RETURNDATASIZE PUSH1 0x0 DUP1 RETURNDATACOPY RETURNDATASIZE PUSH1 0x0 REVERT JUMPDEST POP POP POP POP PUSH1 0x40 MLOAD RETURNDATASIZE PUSH1 0x1F NOT PUSH1 0x1F DUP3 ADD AND DUP3 ADD DUP1 PUSH1 0x40 MSTORE POP DUP2 ADD SWAP1 PUSH2 0xDF9 SWAP2 SWAP1 PUSH2 0x1CA2 JUMP JUMPDEST PUSH1 0x1 PUSH1 0x1 PUSH1 0xA0 SHL SUB AND EQ PUSH2 0xE1F JUMPI PUSH1 0x40 MLOAD PUSH3 0x461BCD PUSH1 0xE5 SHL DUP2 MSTORE PUSH1 0x4 ADD PUSH2 0x51D SWAP1 PUSH2 0x1D8C JUMP JUMPDEST PUSH1 0x0 DUP4 GT PUSH2 0xE2C JUMPI PUSH1 0x0 DUP1 REVERT JUMPDEST PUSH1 0x0 PUSH2 0xE3B PUSH3 0x278D00 DUP6 PUSH2 0x1E87 JUMP JUMPDEST SWAP1 POP PUSH2 0xE48 PUSH1 0x1E DUP3 PUSH2 0x1ED8 JUMP JUMPDEST ISZERO PUSH2 0xE52 JUMPI PUSH1 0x0 DUP1 REVERT JUMPDEST PUSH1 0x0 PUSH1 0x40 MLOAD DUP1 PUSH2 0x180 ADD PUSH1 0x40 MSTORE DUP1 PUSH1 0x1 ISZERO ISZERO DUP2 MSTORE PUSH1 0x20 ADD CALLER PUSH1 0x1 PUSH1 0x1 PUSH1 0xA0 SHL SUB AND DUP2 MSTORE PUSH1 0x20 ADD PUSH1 0x0 PUSH1 0x1 PUSH1 0x1 PUSH1 0xA0 SHL SUB AND DUP2 MSTORE PUSH1 0x20 ADD DUP9 PUSH1 0x1 PUSH1 0x1 PUSH1 0xA0 SHL SUB AND DUP2 MSTORE PUSH1 0x20 ADD DUP8 DUP2 MSTORE PUSH1 0x20 ADD DUP4 DUP2 MSTORE PUSH1 0x20 ADD PUSH1 0x0 DUP2 MSTORE PUSH1 0x20 ADD DUP7 DUP2 MSTORE PUSH1 0x20 ADD DUP5 DUP2 MSTORE PUSH1 0x20 ADD DUP6 DUP2 MSTORE PUSH1 0x20 ADD PUSH1 0x0 DUP2 MSTORE PUSH1 0x20 ADD PUSH1 0x0 ISZERO ISZERO DUP2 MSTORE POP SWAP1 POP PUSH1 0x0 DUP2 SWAP1 DUP1 PUSH1 0x1 DUP2 SLOAD ADD DUP1 DUP3 SSTORE DUP1 SWAP2 POP POP PUSH1 0x1 SWAP1 SUB SWAP1 PUSH1 0x0 MSTORE PUSH1 0x20 PUSH1 0x0 KECCAK256 SWAP1 PUSH1 0xB MUL ADD PUSH1 0x0 SWAP1 SWAP2 SWAP1 SWAP2 SWAP1 SWAP2 POP PUSH1 0x0 DUP3 ADD MLOAD DUP2 PUSH1 0x0 ADD PUSH1 0x0 PUSH2 0x100 EXP DUP2 SLOAD DUP2 PUSH1 0xFF MUL NOT AND SWAP1 DUP4 ISZERO ISZERO MUL OR SWAP1 SSTORE POP PUSH1 0x20 DUP3 ADD MLOAD DUP2 PUSH1 0x0 ADD PUSH1 0x1 PUSH2 0x100 EXP DUP2 SLOAD DUP2 PUSH1 0x1 PUSH1 0x1 PUSH1 0xA0 SHL SUB MUL NOT AND SWAP1 DUP4 PUSH1 0x1 PUSH1 0x1 PUSH1 0xA0 SHL SUB AND MUL OR SWAP1 SSTORE POP PUSH1 0x40 DUP3 ADD MLOAD DUP2 PUSH1 0x1 ADD PUSH1 0x0 PUSH2 0x100 EXP DUP2 SLOAD DUP2 PUSH1 0x1 PUSH1 0x1 PUSH1 0xA0 SHL SUB MUL NOT AND SWAP1 DUP4 PUSH1 0x1 PUSH1 0x1 PUSH1 0xA0 SHL SUB AND MUL OR SWAP1 SSTORE POP PUSH1 0x60 DUP3 ADD MLOAD DUP2 PUSH1 0x2 ADD PUSH1 0x0 PUSH2 0x100 EXP DUP2 SLOAD DUP2 PUSH1 0x1 PUSH1 0x1 PUSH1 0xA0 SHL SUB MUL NOT AND SWAP1 DUP4 PUSH1 0x1 PUSH1 0x1 PUSH1 0xA0 SHL SUB AND MUL OR SWAP1 SSTORE POP PUSH1 0x80 DUP3 ADD MLOAD DUP2 PUSH1 0x3 ADD SSTORE PUSH1 0xA0 DUP3 ADD MLOAD DUP2 PUSH1 0x4 ADD SSTORE PUSH1 0xC0 DUP3 ADD MLOAD DUP2 PUSH1 0x5 ADD SSTORE PUSH1 0xE0 DUP3 ADD MLOAD DUP2 PUSH1 0x6 ADD SSTORE PUSH2 0x100 DUP3 ADD MLOAD DUP2 PUSH1 0x7 ADD SSTORE PUSH2 0x120 DUP3 ADD MLOAD DUP2 PUSH1 0x8 ADD SSTORE PUSH2 0x140 DUP3 ADD MLOAD DUP2 PUSH1 0x9 ADD SSTORE PUSH2 0x160 DUP3 ADD MLOAD DUP2 PUSH1 0xA ADD PUSH1 0x0 PUSH2 0x100 EXP DUP2 SLOAD DUP2 PUSH1 0xFF MUL NOT AND SWAP1 DUP4 ISZERO ISZERO MUL OR SWAP1 SSTORE POP POP POP PUSH1 0x1 PUSH1 0x0 SWAP1 DUP1 PUSH1 0x1 DUP2 SLOAD ADD DUP1 DUP3 SSTORE DUP1 SWAP2 POP POP PUSH1 0x1 SWAP1 SUB SWAP1 PUSH1 0x0 MSTORE PUSH1 0x20 PUSH1 0x0 KECCAK256 ADD PUSH1 0x0 SWAP1 SWAP2 SWAP1 SWAP2 SWAP1 SWAP2 POP SSTORE POP POP POP POP POP POP POP JUMP JUMPDEST PUSH1 0x0 DUP1 DUP4 DUP2 SLOAD DUP2 LT PUSH2 0x1060 JUMPI PUSH4 0x4E487B71 PUSH1 0xE0 SHL PUSH1 0x0 MSTORE PUSH1 0x32 PUSH1 0x4 MSTORE PUSH1 0x24 PUSH1 0x0 REVERT JUMPDEST PUSH1 0x0 SWAP2 DUP3 MSTORE PUSH1 0x20 SWAP1 SWAP2 KECCAK256 PUSH1 0xB SWAP1 SWAP2 MUL ADD DUP1 SLOAD SWAP1 SWAP2 POP PUSH2 0x100 SWAP1 DIV PUSH1 0x1 PUSH1 0x1 PUSH1 0xA0 SHL SUB AND CALLER EQ PUSH2 0x10A1 JUMPI PUSH1 0x40 MLOAD PUSH3 0x461BCD PUSH1 0xE5 SHL DUP2 MSTORE PUSH1 0x4 ADD PUSH2 0x51D SWAP1 PUSH2 0x1DD8 JUMP JUMPDEST PUSH2 0x10AA DUP4 PUSH2 0x10F6 JUMP JUMPDEST PUSH2 0xC67 JUMPI PUSH1 0x40 MLOAD PUSH3 0x461BCD PUSH1 0xE5 SHL DUP2 MSTORE PUSH1 0x20 PUSH1 0x4 DUP3 ADD MSTORE PUSH1 0x1D PUSH1 0x24 DUP3 ADD MSTORE PUSH32 0x746869732073656C6C657220686173206E6F742064656661756C746564000000 PUSH1 0x44 DUP3 ADD MSTORE PUSH1 0x64 ADD PUSH2 0x51D JUMP JUMPDEST PUSH1 0x0 DUP1 PUSH1 0x0 DUP4 DUP2 SLOAD DUP2 LT PUSH2 0x111A JUMPI PUSH4 0x4E487B71 PUSH1 0xE0 SHL PUSH1 0x0 MSTORE PUSH1 0x32 PUSH1 0x4 MSTORE PUSH1 0x24 PUSH1 0x0 REVERT JUMPDEST PUSH1 0x0 SWAP2 DUP3 MSTORE PUSH1 0x20 DUP1 DUP4 KECCAK256 PUSH1 0x40 DUP1 MLOAD PUSH2 0x180 DUP2 ADD DUP3 MSTORE PUSH1 0xB SWAP1 SWAP5 MUL SWAP1 SWAP2 ADD DUP1 SLOAD PUSH1 0xFF DUP1 DUP3 AND ISZERO ISZERO DUP7 MSTORE PUSH1 0x1 PUSH1 0x1 PUSH1 0xA0 SHL SUB PUSH2 0x100 SWAP3 DUP4 SWAP1 DIV DUP2 AND SWAP6 DUP8 ADD SWAP6 SWAP1 SWAP6 MSTORE PUSH1 0x1 DUP4 ADD SLOAD DUP6 AND SWAP4 DUP7 ADD SWAP4 SWAP1 SWAP4 MSTORE PUSH1 0x2 DUP3 ADD SLOAD SWAP1 SWAP4 AND PUSH1 0x60 DUP6 ADD MSTORE PUSH1 0x3 DUP2 ADD SLOAD PUSH1 0x80 DUP6 ADD MSTORE PUSH1 0x4 DUP2 ADD SLOAD PUSH1 0xA0 DUP6 ADD MSTORE PUSH1 0x5 DUP2 ADD SLOAD PUSH1 0xC0 DUP6 ADD DUP2 SWAP1 MSTORE PUSH1 0x6 DUP3 ADD SLOAD PUSH1 0xE0 DUP7 ADD MSTORE PUSH1 0x7 DUP3 ADD SLOAD SWAP4 DUP6 ADD SWAP4 SWAP1 SWAP4 MSTORE PUSH1 0x8 DUP2 ADD SLOAD PUSH2 0x120 DUP6 ADD MSTORE PUSH1 0x9 DUP2 ADD SLOAD PUSH2 0x140 DUP6 ADD MSTORE PUSH1 0xA ADD SLOAD AND ISZERO ISZERO PUSH2 0x160 DUP4 ADD MSTORE SWAP1 SWAP3 POP PUSH2 0x11DB SWAP1 TIMESTAMP PUSH2 0x1EA6 JUMP JUMPDEST SWAP1 POP PUSH1 0x0 PUSH2 0x11EC PUSH3 0x278D00 DUP4 PUSH2 0x1E73 JUMP JUMPDEST SWAP1 POP DUP3 PUSH1 0xE0 ADD MLOAD DUP2 LT PUSH2 0x120D JUMPI PUSH1 0x1 DUP4 PUSH1 0xE0 ADD MLOAD PUSH2 0x120A SWAP2 SWAP1 PUSH2 0x1EA6 JUMP JUMPDEST SWAP1 POP JUMPDEST PUSH1 0x0 PUSH2 0x1218 DUP7 PUSH2 0x764 JUMP JUMPDEST SWAP1 POP PUSH1 0x0 DUP5 PUSH2 0x140 ADD MLOAD DUP4 PUSH1 0x1 PUSH2 0x122F SWAP2 SWAP1 PUSH2 0x1E5B JUMP JUMPDEST PUSH2 0x1239 SWAP1 DUP5 PUSH2 0x1E87 JUMP JUMPDEST PUSH2 0x1243 SWAP2 SWAP1 PUSH2 0x1EA6 JUMP JUMPDEST SWAP1 POP DUP2 DUP2 GT ISZERO PUSH2 0x125A JUMPI POP PUSH1 0x1 SWAP7 SWAP6 POP POP POP POP POP POP JUMP JUMPDEST POP PUSH1 0x0 SWAP7 SWAP6 POP POP POP POP POP POP JUMP JUMPDEST PUSH1 0x0 DUP1 DUP3 DUP2 SLOAD DUP2 LT PUSH2 0x1289 JUMPI PUSH4 0x4E487B71 PUSH1 0xE0 SHL PUSH1 0x0 MSTORE PUSH1 0x32 PUSH1 0x4 MSTORE PUSH1 0x24 PUSH1 0x0 REVERT JUMPDEST PUSH1 0x0 SWAP2 DUP3 MSTORE PUSH1 0x20 SWAP1 SWAP2 KECCAK256 PUSH1 0xB SWAP1 SWAP2 MUL ADD DUP1 SLOAD SWAP1 SWAP2 POP PUSH1 0xFF AND ISZERO PUSH2 0x12EE JUMPI PUSH1 0x40 MLOAD PUSH3 0x461BCD PUSH1 0xE5 SHL DUP2 MSTORE PUSH1 0x20 PUSH1 0x4 DUP3 ADD DUP2 SWAP1 MSTORE PUSH1 0x24 DUP3 ADD MSTORE PUSH32 0x74686973206C697374696E6720697320616C726561647920696E616374697665 PUSH1 0x44 DUP3 ADD MSTORE PUSH1 0x64 ADD PUSH2 0x51D JUMP JUMPDEST DUP1 SLOAD PUSH2 0x100 SWAP1 DIV PUSH1 0x1 PUSH1 0x1 PUSH1 0xA0 SHL SUB AND CALLER EQ PUSH2 0x1347 JUMPI PUSH1 0x40 MLOAD PUSH3 0x461BCD PUSH1 0xE5 SHL DUP2 MSTORE PUSH1 0x20 PUSH1 0x4 DUP3 ADD MSTORE PUSH1 0x18 PUSH1 0x24 DUP3 ADD MSTORE PUSH24 0x74686973206973206E6F7420796F7572206C697374696E67 PUSH1 0x40 SHL PUSH1 0x44 DUP3 ADD MSTORE PUSH1 0x64 ADD PUSH2 0x51D JUMP JUMPDEST PUSH1 0x2 DUP2 ADD SLOAD PUSH1 0x3 DUP3 ADD SLOAD PUSH1 0x40 MLOAD PUSH4 0x31A9108F PUSH1 0xE1 SHL DUP2 MSTORE PUSH1 0x4 DUP2 ADD SWAP2 SWAP1 SWAP2 MSTORE CALLER SWAP2 PUSH1 0x1 PUSH1 0x1 PUSH1 0xA0 SHL SUB AND SWAP1 PUSH4 0x6352211E SWAP1 PUSH1 0x24 ADD PUSH1 0x20 PUSH1 0x40 MLOAD DUP1 DUP4 SUB DUP2 DUP7 DUP1 EXTCODESIZE ISZERO DUP1 ISZERO PUSH2 0x1393 JUMPI PUSH1 0x0 DUP1 REVERT JUMPDEST POP GAS STATICCALL ISZERO DUP1 ISZERO PUSH2 0x13A7 JUMPI RETURNDATASIZE PUSH1 0x0 DUP1 RETURNDATACOPY RETURNDATASIZE PUSH1 0x0 REVERT JUMPDEST POP POP POP POP PUSH1 0x40 MLOAD RETURNDATASIZE PUSH1 0x1F NOT PUSH1 0x1F DUP3 ADD AND DUP3 ADD DUP1 PUSH1 0x40 MSTORE POP DUP2 ADD SWAP1 PUSH2 0x13CB SWAP2 SWAP1 PUSH2 0x1CA2 JUMP JUMPDEST PUSH1 0x1 PUSH1 0x1 PUSH1 0xA0 SHL SUB AND EQ PUSH2 0x13F1 JUMPI PUSH1 0x40 MLOAD PUSH3 0x461BCD PUSH1 0xE5 SHL DUP2 MSTORE PUSH1 0x4 ADD PUSH2 0x51D SWAP1 PUSH2 0x1E1A JUMP JUMPDEST PUSH1 0x2 DUP2 ADD SLOAD PUSH1 0x3 DUP3 ADD SLOAD PUSH1 0x40 MLOAD PUSH4 0x20604BF PUSH1 0xE2 SHL DUP2 MSTORE PUSH1 0x4 DUP2 ADD SWAP2 SWAP1 SWAP2 MSTORE ADDRESS SWAP2 PUSH1 0x1 PUSH1 0x1 PUSH1 0xA0 SHL SUB AND SWAP1 PUSH4 0x81812FC SWAP1 PUSH1 0x24 ADD PUSH1 0x20 PUSH1 0x40 MLOAD DUP1 DUP4 SUB DUP2 DUP7 DUP1 EXTCODESIZE ISZERO DUP1 ISZERO PUSH2 0x143D JUMPI PUSH1 0x0 DUP1 REVERT JUMPDEST POP GAS STATICCALL ISZERO DUP1 ISZERO PUSH2 0x1451 JUMPI RETURNDATASIZE PUSH1 0x0 DUP1 RETURNDATACOPY RETURNDATASIZE PUSH1 0x0 REVERT JUMPDEST POP POP POP POP PUSH1 0x40 MLOAD RETURNDATASIZE PUSH1 0x1F NOT PUSH1 0x1F DUP3 ADD AND DUP3 ADD DUP1 PUSH1 0x40 MSTORE POP DUP2 ADD SWAP1 PUSH2 0x1475 SWAP2 SWAP1 PUSH2 0x1CA2 JUMP JUMPDEST PUSH1 0x1 PUSH1 0x1 PUSH1 0xA0 SHL SUB AND EQ PUSH2 0x149B JUMPI PUSH1 0x40 MLOAD PUSH3 0x461BCD PUSH1 0xE5 SHL DUP2 MSTORE PUSH1 0x4 ADD PUSH2 0x51D SWAP1 PUSH2 0x1D8C JUMP JUMPDEST DUP1 SLOAD PUSH1 0xFF NOT AND PUSH1 0x1 OR SWAP1 SSTORE POP JUMP JUMPDEST PUSH1 0x60 PUSH1 0x0 DUP1 DUP4 DUP2 SLOAD DUP2 LT PUSH2 0x14CD JUMPI PUSH4 0x4E487B71 PUSH1 0xE0 SHL PUSH1 0x0 MSTORE PUSH1 0x32 PUSH1 0x4 MSTORE PUSH1 0x24 PUSH1 0x0 REVERT JUMPDEST SWAP1 PUSH1 0x0 MSTORE PUSH1 0x20 PUSH1 0x0 KECCAK256 SWAP1 PUSH1 0xB MUL ADD SWAP1 POP PUSH1 0x0 DUP2 PUSH1 0x6 ADD SLOAD SWAP1 POP PUSH1 0x0 DUP2 PUSH8 0xFFFFFFFFFFFFFFFF DUP2 GT ISZERO PUSH2 0x150F JUMPI PUSH4 0x4E487B71 PUSH1 0xE0 SHL PUSH1 0x0 MSTORE PUSH1 0x41 PUSH1 0x4 MSTORE PUSH1 0x24 PUSH1 0x0 REVERT JUMPDEST PUSH1 0x40 MLOAD SWAP1 DUP1 DUP3 MSTORE DUP1 PUSH1 0x20 MUL PUSH1 0x20 ADD DUP3 ADD PUSH1 0x40 MSTORE DUP1 ISZERO PUSH2 0x1538 JUMPI DUP2 PUSH1 0x20 ADD PUSH1 0x20 DUP3 MUL DUP1 CALLDATASIZE DUP4 CALLDATACOPY ADD SWAP1 POP JUMPDEST POP SWAP1 POP PUSH1 0x0 JUMPDEST DUP3 DUP2 LT ISZERO PUSH2 0x159F JUMPI PUSH2 0x1553 PUSH3 0x278D00 DUP3 PUSH2 0x1E87 JUMP JUMPDEST DUP5 PUSH1 0x5 ADD SLOAD PUSH2 0x1562 SWAP2 SWAP1 PUSH2 0x1E5B JUMP JUMPDEST DUP3 DUP3 DUP2 MLOAD DUP2 LT PUSH2 0x1582 JUMPI PUSH4 0x4E487B71 PUSH1 0xE0 SHL PUSH1 0x0 MSTORE PUSH1 0x32 PUSH1 0x4 MSTORE PUSH1 0x24 PUSH1 0x0 REVERT JUMPDEST PUSH1 0x20 SWAP1 DUP2 MUL SWAP2 SWAP1 SWAP2 ADD ADD MSTORE DUP1 PUSH2 0x1597 DUP2 PUSH2 0x1EBD JUMP JUMPDEST SWAP2 POP POP PUSH2 0x153E JUMP JUMPDEST POP SWAP5 SWAP4 POP POP POP POP JUMP JUMPDEST PUSH1 0x0 DUP1 PUSH1 0x0 DUP4 DUP2 SLOAD DUP2 LT PUSH2 0x15CC JUMPI PUSH4 0x4E487B71 PUSH1 0xE0 SHL PUSH1 0x0 MSTORE PUSH1 0x32 PUSH1 0x4 MSTORE PUSH1 0x24 PUSH1 0x0 REVERT JUMPDEST PUSH1 0x0 SWAP2 DUP3 MSTORE PUSH1 0x20 SWAP2 DUP3 SWAP1 KECCAK256 PUSH1 0x40 DUP1 MLOAD PUSH2 0x180 DUP2 ADD DUP3 MSTORE PUSH1 0xB SWAP1 SWAP4 MUL SWAP1 SWAP2 ADD DUP1 SLOAD PUSH1 0xFF DUP1 DUP3 AND ISZERO ISZERO DUP6 MSTORE PUSH1 0x1 PUSH1 0x1 PUSH1 0xA0 SHL SUB PUSH2 0x100 SWAP3 DUP4 SWAP1 DIV DUP2 AND SWAP7 DUP7 ADD SWAP7 SWAP1 SWAP7 MSTORE PUSH1 0x1 DUP4 ADD SLOAD DUP7 AND SWAP4 DUP6 ADD SWAP4 SWAP1 SWAP4 MSTORE PUSH1 0x2 DUP3 ADD SLOAD SWAP1 SWAP5 AND PUSH1 0x60 DUP5 ADD MSTORE PUSH1 0x3 DUP2 ADD SLOAD PUSH1 0x80 DUP5 ADD MSTORE PUSH1 0x4 DUP2 ADD SLOAD PUSH1 0xA0 DUP5 ADD MSTORE PUSH1 0x5 DUP2 ADD SLOAD PUSH1 0xC0 DUP5 ADD MSTORE PUSH1 0x6 DUP2 ADD SLOAD PUSH1 0xE0 DUP5 ADD MSTORE PUSH1 0x7 DUP2 ADD SLOAD SWAP4 DUP4 ADD SWAP4 SWAP1 SWAP4 MSTORE PUSH1 0x8 DUP4 ADD SLOAD PUSH2 0x120 DUP4 ADD DUP2 SWAP1 MSTORE PUSH1 0x9 DUP5 ADD SLOAD PUSH2 0x140 DUP5 ADD DUP2 SWAP1 MSTORE PUSH1 0xA SWAP1 SWAP5 ADD SLOAD SWAP1 SWAP2 AND ISZERO ISZERO PUSH2 0x160 DUP4 ADD MSTORE SWAP1 SWAP3 POP GT PUSH2 0x1698 JUMPI POP PUSH1 0x1 SWAP3 SWAP2 POP POP JUMP JUMPDEST POP PUSH1 0x0 SWAP3 SWAP2 POP POP JUMP JUMPDEST PUSH1 0x0 DUP1 DUP3 DUP2 SLOAD DUP2 LT PUSH2 0x16C3 JUMPI PUSH4 0x4E487B71 PUSH1 0xE0 SHL PUSH1 0x0 MSTORE PUSH1 0x32 PUSH1 0x4 MSTORE PUSH1 0x24 PUSH1 0x0 REVERT JUMPDEST PUSH1 0x0 SWAP2 DUP3 MSTORE PUSH1 0x20 SWAP1 SWAP2 KECCAK256 PUSH1 0xB SWAP1 SWAP2 MUL ADD DUP1 SLOAD SWAP1 SWAP2 POP PUSH1 0xFF AND PUSH2 0x1727 JUMPI PUSH1 0x40 MLOAD PUSH3 0x461BCD PUSH1 0xE5 SHL DUP2 MSTORE PUSH1 0x20 PUSH1 0x4 DUP3 ADD MSTORE PUSH1 0x1D PUSH1 0x24 DUP3 ADD MSTORE PUSH32 0x74686973206C697374696E67206973206E6F7420617661696C61626C65000000 PUSH1 0x44 DUP3 ADD MSTORE PUSH1 0x64 ADD PUSH2 0x51D JUMP JUMPDEST PUSH1 0xA DUP2 ADD SLOAD PUSH1 0xFF AND ISZERO PUSH2 0x178E JUMPI PUSH1 0x40 MLOAD PUSH3 0x461BCD PUSH1 0xE5 SHL DUP2 MSTORE PUSH1 0x20 PUSH1 0x4 DUP3 ADD MSTORE PUSH1 0x29 PUSH1 0x24 DUP3 ADD MSTORE PUSH32 0x546865726520697320616C7265616479206120627579657220666F7220746869 PUSH1 0x44 DUP3 ADD MSTORE PUSH9 0x73206C697374696E67 PUSH1 0xB8 SHL PUSH1 0x64 DUP3 ADD MSTORE PUSH1 0x84 ADD PUSH2 0x51D JUMP JUMPDEST DUP1 PUSH1 0x7 ADD SLOAD CALLVALUE LT ISZERO PUSH2 0x17F6 JUMPI PUSH1 0x40 MLOAD PUSH3 0x461BCD PUSH1 0xE5 SHL DUP2 MSTORE PUSH1 0x20 PUSH1 0x4 DUP3 ADD MSTORE PUSH1 0x2B PUSH1 0x24 DUP3 ADD MSTORE PUSH32 0x446964206E6F742073656E6420656E6F75676820666F722074686520696E6974 PUSH1 0x44 DUP3 ADD MSTORE PUSH11 0x1A585B081C185E5B595B9D PUSH1 0xAA SHL PUSH1 0x64 DUP3 ADD MSTORE PUSH1 0x84 ADD PUSH2 0x51D JUMP JUMPDEST DUP1 SLOAD PUSH1 0x2 DUP3 ADD SLOAD PUSH1 0x3 DUP4 ADD SLOAD PUSH1 0x40 MLOAD PUSH4 0x31A9108F PUSH1 0xE1 SHL DUP2 MSTORE PUSH1 0x4 DUP2 ADD SWAP2 SWAP1 SWAP2 MSTORE PUSH2 0x100 SWAP1 SWAP3 DIV PUSH1 0x1 PUSH1 0x1 PUSH1 0xA0 SHL SUB SWAP1 DUP2 AND SWAP3 SWAP2 AND SWAP1 PUSH4 0x6352211E SWAP1 PUSH1 0x24 ADD PUSH1 0x20 PUSH1 0x40 MLOAD DUP1 DUP4 SUB DUP2 DUP7 DUP1 EXTCODESIZE ISZERO DUP1 ISZERO PUSH2 0x184D JUMPI PUSH1 0x0 DUP1 REVERT JUMPDEST POP GAS STATICCALL ISZERO DUP1 ISZERO PUSH2 0x1861 JUMPI RETURNDATASIZE PUSH1 0x0 DUP1 RETURNDATACOPY RETURNDATASIZE PUSH1 0x0 REVERT JUMPDEST POP POP POP POP PUSH1 0x40 MLOAD RETURNDATASIZE PUSH1 0x1F NOT PUSH1 0x1F DUP3 ADD AND DUP3 ADD DUP1 PUSH1 0x40 MSTORE POP DUP2 ADD SWAP1 PUSH2 0x1885 SWAP2 SWAP1 PUSH2 0x1CA2 JUMP JUMPDEST PUSH1 0x1 PUSH1 0x1 PUSH1 0xA0 SHL SUB AND EQ PUSH2 0x18ED JUMPI PUSH1 0x40 MLOAD PUSH3 0x461BCD PUSH1 0xE5 SHL DUP2 MSTORE PUSH1 0x20 PUSH1 0x4 DUP3 ADD MSTORE PUSH1 0x29 PUSH1 0x24 DUP3 ADD MSTORE PUSH32 0x73656C6C6572206973206E6F206C6F6E67657220746865206F776E6572206F66 PUSH1 0x44 DUP3 ADD MSTORE PUSH9 0x81D1A1A5CC81B999D PUSH1 0xBA SHL PUSH1 0x64 DUP3 ADD MSTORE PUSH1 0x84 ADD PUSH2 0x51D JUMP JUMPDEST PUSH1 0x2 DUP2 ADD SLOAD PUSH1 0x3 DUP3 ADD SLOAD PUSH1 0x40 MLOAD PUSH4 0x20604BF PUSH1 0xE2 SHL DUP2 MSTORE PUSH1 0x4 DUP2 ADD SWAP2 SWAP1 SWAP2 MSTORE ADDRESS SWAP2 PUSH1 0x1 PUSH1 0x1 PUSH1 0xA0 SHL SUB AND SWAP1 PUSH4 0x81812FC SWAP1 PUSH1 0x24 ADD PUSH1 0x20 PUSH1 0x40 MLOAD DUP1 DUP4 SUB DUP2 DUP7 DUP1 EXTCODESIZE ISZERO DUP1 ISZERO PUSH2 0x1939 JUMPI PUSH1 0x0 DUP1 REVERT JUMPDEST POP GAS STATICCALL ISZERO DUP1 ISZERO PUSH2 0x194D JUMPI RETURNDATASIZE PUSH1 0x0 DUP1 RETURNDATACOPY RETURNDATASIZE PUSH1 0x0 REVERT JUMPDEST POP POP POP POP PUSH1 0x40 MLOAD RETURNDATASIZE PUSH1 0x1F NOT PUSH1 0x1F DUP3 ADD AND DUP3 ADD DUP1 PUSH1 0x40 MSTORE POP DUP2 ADD SWAP1 PUSH2 0x1971 SWAP2 SWAP1 PUSH2 0x1CA2 JUMP JUMPDEST PUSH1 0x1 PUSH1 0x1 PUSH1 0xA0 SHL SUB AND EQ PUSH2 0x19D7 JUMPI PUSH1 0x40 MLOAD PUSH3 0x461BCD PUSH1 0xE5 SHL DUP2 MSTORE PUSH1 0x20 PUSH1 0x4 DUP3 ADD MSTORE PUSH1 0x27 PUSH1 0x24 DUP3 ADD MSTORE PUSH32 0x7468697320636F6E7472616374206973206E6F7420617070726F766564206279 PUSH1 0x44 DUP3 ADD MSTORE PUSH7 0x1039B2B63632B9 PUSH1 0xC9 SHL PUSH1 0x64 DUP3 ADD MSTORE PUSH1 0x84 ADD PUSH2 0x51D JUMP JUMPDEST PUSH1 0x2 DUP2 ADD SLOAD DUP2 SLOAD PUSH1 0x3 DUP4 ADD SLOAD PUSH1 0x40 MLOAD PUSH4 0x23B872DD PUSH1 0xE0 SHL DUP2 MSTORE PUSH1 0x1 PUSH1 0x1 PUSH1 0xA0 SHL SUB PUSH2 0x100 SWAP1 SWAP4 DIV DUP4 AND PUSH1 0x4 DUP3 ADD MSTORE ADDRESS PUSH1 0x24 DUP3 ADD MSTORE PUSH1 0x44 DUP2 ADD SWAP2 SWAP1 SWAP2 MSTORE SWAP2 AND SWAP1 PUSH4 0x23B872DD SWAP1 PUSH1 0x64 ADD PUSH1 0x0 PUSH1 0x40 MLOAD DUP1 DUP4 SUB DUP2 PUSH1 0x0 DUP8 DUP1 EXTCODESIZE ISZERO DUP1 ISZERO PUSH2 0x1A39 JUMPI PUSH1 0x0 DUP1 REVERT JUMPDEST POP GAS CALL ISZERO DUP1 ISZERO PUSH2 0x1A4D JUMPI RETURNDATASIZE PUSH1 0x0 DUP1 RETURNDATACOPY RETURNDATASIZE PUSH1 0x0 REVERT JUMPDEST POP POP POP POP PUSH1 0x2 DUP2 ADD SLOAD PUSH1 0x3 DUP3 ADD SLOAD PUSH1 0x40 MLOAD PUSH4 0x31A9108F PUSH1 0xE1 SHL DUP2 MSTORE PUSH1 0x4 DUP2 ADD SWAP2 SWAP1 SWAP2 MSTORE ADDRESS SWAP2 PUSH1 0x1 PUSH1 0x1 PUSH1 0xA0 SHL SUB AND SWAP1 PUSH4 0x6352211E SWAP1 PUSH1 0x24 ADD PUSH1 0x20 PUSH1 0x40 MLOAD DUP1 DUP4 SUB DUP2 DUP7 DUP1 EXTCODESIZE ISZERO DUP1 ISZERO PUSH2 0x1A9D JUMPI PUSH1 0x0 DUP1 REVERT JUMPDEST POP GAS STATICCALL ISZERO DUP1 ISZERO PUSH2 0x1AB1 JUMPI RETURNDATASIZE PUSH1 0x0 DUP1 RETURNDATACOPY RETURNDATASIZE PUSH1 0x0 REVERT JUMPDEST POP POP POP POP PUSH1 0x40 MLOAD RETURNDATASIZE PUSH1 0x1F NOT PUSH1 0x1F DUP3 ADD AND DUP3 ADD DUP1 PUSH1 0x40 MSTORE POP DUP2 ADD SWAP1 PUSH2 0x1AD5 SWAP2 SWAP1 PUSH2 0x1CA2 JUMP JUMPDEST PUSH1 0x1 PUSH1 0x1 PUSH1 0xA0 SHL SUB AND EQ PUSH2 0x1B46 JUMPI PUSH1 0x40 MLOAD PUSH3 0x461BCD PUSH1 0xE5 SHL DUP2 MSTORE PUSH1 0x20 PUSH1 0x4 DUP3 ADD MSTORE PUSH1 0x32 PUSH1 0x24 DUP3 ADD MSTORE PUSH32 0x636F756C64206E6F74207472616E73666572206E66742066726F6D206F776E65 PUSH1 0x44 DUP3 ADD MSTORE PUSH18 0x1C881D1BC81D1A1A5CC818DBDB9D1C9858DD PUSH1 0x72 SHL PUSH1 0x64 DUP3 ADD MSTORE PUSH1 0x84 ADD PUSH2 0x51D JUMP JUMPDEST CALLVALUE PUSH1 0x9 DUP3 ADD SSTORE PUSH1 0x1 DUP1 DUP3 ADD DUP1 SLOAD PUSH1 0x1 PUSH1 0x1 PUSH1 0xA0 SHL SUB NOT AND CALLER OR SWAP1 SSTORE PUSH1 0xA DUP3 ADD DUP1 SLOAD PUSH1 0xFF NOT AND SWAP1 SWAP2 OR SWAP1 SSTORE TIMESTAMP PUSH1 0x5 DUP3 ADD DUP2 SWAP1 SSTORE PUSH2 0x1B81 JUMPI PUSH1 0x0 DUP1 REVERT JUMPDEST CALLVALUE PUSH1 0x1 DUP4 DUP2 SLOAD DUP2 LT PUSH2 0x1BA3 JUMPI PUSH4 0x4E487B71 PUSH1 0xE0 SHL PUSH1 0x0 MSTORE PUSH1 0x32 PUSH1 0x4 MSTORE PUSH1 0x24 PUSH1 0x0 REVERT JUMPDEST PUSH1 0x0 SWAP2 DUP3 MSTORE PUSH1 0x20 SWAP1 SWAP2 KECCAK256 ADD SSTORE POP POP JUMP JUMPDEST PUSH1 0x0 DUP1 PUSH1 0x0 DUP4 DUP2 SLOAD DUP2 LT PUSH2 0x1BD7 JUMPI PUSH4 0x4E487B71 PUSH1 0xE0 SHL PUSH1 0x0 MSTORE PUSH1 0x32 PUSH1 0x4 MSTORE PUSH1 0x24 PUSH1 0x0 REVERT JUMPDEST SWAP1 PUSH1 0x0 MSTORE PUSH1 0x20 PUSH1 0x0 KECCAK256 SWAP1 PUSH1 0xB MUL ADD SWAP1 POP DUP1 PUSH1 0x4 ADD SLOAD DUP2 PUSH1 0x5 ADD SLOAD PUSH2 0x864 SWAP2 SWAP1 PUSH2 0x1E5B JUMP JUMPDEST PUSH1 0x0 DUP2 DUP2 SLOAD DUP2 LT PUSH2 0x1C0B JUMPI PUSH1 0x0 DUP1 REVERT JUMPDEST PUSH1 0x0 SWAP2 DUP3 MSTORE PUSH1 0x20 SWAP1 SWAP2 KECCAK256 PUSH1 0xB SWAP1 SWAP2 MUL ADD DUP1 SLOAD PUSH1 0x1 DUP3 ADD SLOAD PUSH1 0x2 DUP4 ADD SLOAD PUSH1 0x3 DUP5 ADD SLOAD PUSH1 0x4 DUP6 ADD SLOAD PUSH1 0x5 DUP7 ADD SLOAD PUSH1 0x6 DUP8 ADD SLOAD PUSH1 0x7 DUP9 ADD SLOAD PUSH1 0x8 DUP10 ADD SLOAD PUSH1 0x9 DUP11 ADD SLOAD PUSH1 0xA SWAP1 SWAP11 ADD SLOAD PUSH1 0xFF DUP1 DUP12 AND SWAP13 POP PUSH2 0x100 SWAP1 SWAP11 DIV PUSH1 0x1 PUSH1 0x1 PUSH1 0xA0 SHL SUB SWAP1 DUP2 AND SWAP12 SWAP10 DUP2 AND SWAP11 SWAP9 AND SWAP9 SWAP7 SWAP8 SWAP6 SWAP7 SWAP5 SWAP6 SWAP4 SWAP5 SWAP3 SWAP4 SWAP2 SWAP3 SWAP2 AND DUP13 JUMP JUMPDEST PUSH1 0x1 DUP2 DUP2 SLOAD DUP2 LT PUSH2 0x1C91 JUMPI PUSH1 0x0 DUP1 REVERT JUMPDEST PUSH1 0x0 SWAP2 DUP3 MSTORE PUSH1 0x20 SWAP1 SWAP2 KECCAK256 ADD SLOAD SWAP1 POP DUP2 JUMP JUMPDEST PUSH1 0x0 PUSH1 0x20 DUP3 DUP5 SUB SLT ISZERO PUSH2 0x1CB3 JUMPI DUP1 DUP2 REVERT JUMPDEST DUP2 MLOAD PUSH2 0x864 DUP2 PUSH2 0x1F18 JUMP JUMPDEST PUSH1 0x0 DUP1 PUSH1 0x0 DUP1 PUSH1 0x0 PUSH1 0xA0 DUP7 DUP9 SUB SLT ISZERO PUSH2 0x1CD5 JUMPI DUP1 DUP2 REVERT JUMPDEST DUP6 CALLDATALOAD PUSH2 0x1CE0 DUP2 PUSH2 0x1F18 JUMP JUMPDEST SWAP8 PUSH1 0x20 DUP8 ADD CALLDATALOAD SWAP8 POP PUSH1 0x40 DUP8 ADD CALLDATALOAD SWAP7 PUSH1 0x60 DUP2 ADD CALLDATALOAD SWAP7 POP PUSH1 0x80 ADD CALLDATALOAD SWAP5 POP SWAP3 POP POP POP JUMP JUMPDEST PUSH1 0x0 PUSH1 0x20 DUP3 DUP5 SUB SLT ISZERO PUSH2 0x1D12 JUMPI DUP1 DUP2 REVERT JUMPDEST POP CALLDATALOAD SWAP2 SWAP1 POP JUMP JUMPDEST PUSH1 0x0 DUP1 PUSH1 0x40 DUP4 DUP6 SUB SLT ISZERO PUSH2 0x1D2B JUMPI DUP2 DUP3 REVERT JUMPDEST DUP3 CALLDATALOAD SWAP2 POP PUSH1 0x20 DUP4 ADD CALLDATALOAD PUSH2 0x1D3D DUP2 PUSH2 0x1F18 JUMP JUMPDEST DUP1 SWAP2 POP POP SWAP3 POP SWAP3 SWAP1 POP JUMP JUMPDEST PUSH1 0x20 DUP1 DUP3 MSTORE DUP3 MLOAD DUP3 DUP3 ADD DUP2 SWAP1 MSTORE PUSH1 0x0 SWAP2 SWAP1 DUP5 DUP3 ADD SWAP1 PUSH1 0x40 DUP6 ADD SWAP1 DUP5 JUMPDEST DUP2 DUP2 LT ISZERO PUSH2 0x1D80 JUMPI DUP4 MLOAD DUP4 MSTORE SWAP3 DUP5 ADD SWAP3 SWAP2 DUP5 ADD SWAP2 PUSH1 0x1 ADD PUSH2 0x1D64 JUMP JUMPDEST POP SWAP1 SWAP7 SWAP6 POP POP POP POP POP POP JUMP JUMPDEST PUSH1 0x20 DUP1 DUP3 MSTORE PUSH1 0x2C SWAP1 DUP3 ADD MSTORE PUSH32 0x74686973206164647265737320686173206E6F74206265656E20617070726F76 PUSH1 0x40 DUP3 ADD MSTORE PUSH12 0x32B210313C9039B2B63632B9 PUSH1 0xA1 SHL PUSH1 0x60 DUP3 ADD MSTORE PUSH1 0x80 ADD SWAP1 JUMP JUMPDEST PUSH1 0x20 DUP1 DUP3 MSTORE PUSH1 0x22 SWAP1 DUP3 ADD MSTORE PUSH32 0x796F7520617265206E6F74207468652073656C6C6572206F662074686973206E PUSH1 0x40 DUP3 ADD MSTORE PUSH2 0x199D PUSH1 0xF2 SHL PUSH1 0x60 DUP3 ADD MSTORE PUSH1 0x80 ADD SWAP1 JUMP JUMPDEST PUSH1 0x20 DUP1 DUP3 MSTORE PUSH1 0x21 SWAP1 DUP3 ADD MSTORE PUSH32 0x796F7520617265206E6F7420746865206F776E6572206F662074686973206E66 PUSH1 0x40 DUP3 ADD MSTORE PUSH1 0x1D PUSH1 0xFA SHL PUSH1 0x60 DUP3 ADD MSTORE PUSH1 0x80 ADD SWAP1 JUMP JUMPDEST PUSH1 0x0 DUP3 NOT DUP3 GT ISZERO PUSH2 0x1E6E JUMPI PUSH2 0x1E6E PUSH2 0x1EEC JUMP JUMPDEST POP ADD SWAP1 JUMP JUMPDEST PUSH1 0x0 DUP3 PUSH2 0x1E82 JUMPI PUSH2 0x1E82 PUSH2 0x1F02 JUMP JUMPDEST POP DIV SWAP1 JUMP JUMPDEST PUSH1 0x0 DUP2 PUSH1 0x0 NOT DIV DUP4 GT DUP3 ISZERO ISZERO AND ISZERO PUSH2 0x1EA1 JUMPI PUSH2 0x1EA1 PUSH2 0x1EEC JUMP JUMPDEST POP MUL SWAP1 JUMP JUMPDEST PUSH1 0x0 DUP3 DUP3 LT ISZERO PUSH2 0x1EB8 JUMPI PUSH2 0x1EB8 PUSH2 0x1EEC JUMP JUMPDEST POP SUB SWAP1 JUMP JUMPDEST PUSH1 0x0 PUSH1 0x0 NOT DUP3 EQ ISZERO PUSH2 0x1ED1 JUMPI PUSH2 0x1ED1 PUSH2 0x1EEC JUMP JUMPDEST POP PUSH1 0x1 ADD SWAP1 JUMP JUMPDEST PUSH1 0x0 DUP3 PUSH2 0x1EE7 JUMPI PUSH2 0x1EE7 PUSH2 0x1F02 JUMP JUMPDEST POP MOD SWAP1 JUMP JUMPDEST PUSH4 0x4E487B71 PUSH1 0xE0 SHL PUSH1 0x0 MSTORE PUSH1 0x11 PUSH1 0x4 MSTORE PUSH1 0x24 PUSH1 0x0 REVERT JUMPDEST PUSH4 0x4E487B71 PUSH1 0xE0 SHL PUSH1 0x0 MSTORE PUSH1 0x12 PUSH1 0x4 MSTORE PUSH1 0x24 PUSH1 0x0 REVERT JUMPDEST PUSH1 0x1 PUSH1 0x1 PUSH1 0xA0 SHL SUB DUP2 AND DUP2 EQ PUSH2 0x1F2D JUMPI PUSH1 0x0 DUP1 REVERT JUMPDEST POP JUMP INVALID LOG2 PUSH5 0x6970667358 0x22 SLT KECCAK256 0xE 0xD5 PUSH28 0x260FDA37D71120C362D97B8966FCA43060B813FC5B136647367E4E61 LOG0 PUSH5 0x736F6C6343 STOP ADDMOD DIV STOP CALLER "},"gasEstimates":{"creation":{"codeDepositCost":"1607600","executionCost":"1687","totalCost":"1609287"},"external":{"THIRTY_DAYS_TO_SECONDS_CONVERSION()":"208","acceptPaymentPlan(uint256)":"infinite","buyerWithdrawNft(uint256,address)":"12504","createListing(address,uint256,uint256,uint256,uint256)":"infinite","currentTime()":"246","deactivateListing(uint256)":"infinite","getAmountDueByPayment(uint256)":"infinite","getAmountPerPayPeriod(uint256)":"10730","getNextPaymemtTime(uint256)":"infinite","getTimesDue(uint256)":"infinite","hasDefaulted(uint256)":"infinite","isActive(uint256)":"2078","isPaidOff(uint256)":"10572","listings(uint256)":"10550","makePayment(uint256)":"infinite","reActivateListing(uint256)":"infinite","sellerBalances(uint256)":"2074","sellerWithdrawBalance(uint256)":"infinite","sellerWithdrawNft(uint256,address)":"infinite","timeOfFinalPayment(uint256)":"2916"}},"methodIdentifiers":{"THIRTY_DAYS_TO_SECONDS_CONVERSION()":"07eb192f","acceptPaymentPlan(uint256)":"c262cadc","buyerWithdrawNft(uint256,address)":"82e5f0e0","createListing(address,uint256,uint256,uint256,uint256)":"9057f289","currentTime()":"d18e81b3","deactivateListing(uint256)":"3b8d915f","getAmountDueByPayment(uint256)":"5d54e2cb","getAmountPerPayPeriod(uint256)":"5b4112df","getNextPaymemtTime(uint256)":"314bc6cd","getTimesDue(uint256)":"a646e664","hasDefaulted(uint256)":"94049ae2","isActive(uint256)":"82afd23b","isPaidOff(uint256)":"bac94b7a","listings(uint256)":"de74e57b","makePayment(uint256)":"5114cb52","reActivateListing(uint256)":"9f63b5b1","sellerBalances(uint256)":"faf6a54a","sellerWithdrawBalance(uint256)":"5f54ffd6","sellerWithdrawNft(uint256,address)":"91627eb0","timeOfFinalPayment(uint256)":"c7e380e1"}},"storageLayout":{"storage":[{"astId":1788,"contract":"contracts/YourContract.sol:YourContract","label":"listings","offset":0,"slot":"0","type":"t_array(t_struct(Listing)1784_storage)dyn_storage"},{"astId":1791,"contract":"contracts/YourContract.sol:YourContract","label":"sellerBalances","offset":0,"slot":"1","type":"t_array(t_uint256)dyn_storage"}],"types":{"t_address":{"encoding":"inplace","label":"address","numberOfBytes":"20"},"t_array(t_struct(Listing)1784_storage)dyn_storage":{"base":"t_struct(Listing)1784_storage","encoding":"dynamic_array","label":"struct YourContract.Listing[]","numberOfBytes":"32"},"t_array(t_uint256)dyn_storage":{"base":"t_uint256","encoding":"dynamic_array","label":"uint256[]","numberOfBytes":"32"},"t_bool":{"encoding":"inplace","label":"bool","numberOfBytes":"1"},"t_struct(Listing)1784_storage":{"encoding":"inplace","label":"struct YourContract.Listing","members":[{"astId":1761,"contract":"contracts/YourContract.sol:YourContract","label":"isActive","offset":0,"slot":"0","type":"t_bool"},{"astId":1763,"contract":"contracts/YourContract.sol:YourContract","label":"seller","offset":1,"slot":"0","type":"t_address"},{"astId":1765,"contract":"contracts/YourContract.sol:YourContract","label":"buyer","offset":0,"slot":"1","type":"t_address"},{"astId":1767,"contract":"contracts/YourContract.sol:YourContract","label":"nftContractAddress","offset":0,"slot":"2","type":"t_address"},{"astId":1769,"contract":"contracts/YourContract.sol:YourContract","label":"tokenId","offset":0,"slot":"3","type":"t_uint256"},{"astId":1771,"contract":"contracts/YourContract.sol:YourContract","label":"lockTime","offset":0,"slot":"4","type":"t_uint256"},{"astId":1773,"contract":"contracts/YourContract.sol:YourContract","label":"timeAtLock","offset":0,"slot":"5","type":"t_uint256"},{"astId":1775,"contract":"contracts/YourContract.sol:YourContract","label":"paymentPeriods","offset":0,"slot":"6","type":"t_uint256"},{"astId":1777,"contract":"contracts/YourContract.sol:YourContract","label":"initialPayment","offset":0,"slot":"7","type":"t_uint256"},{"astId":1779,"contract":"contracts/YourContract.sol:YourContract","label":"price","offset":0,"slot":"8","type":"t_uint256"},{"astId":1781,"contract":"contracts/YourContract.sol:YourContract","label":"amountPaid","offset":0,"slot":"9","type":"t_uint256"},{"astId":1783,"contract":"contracts/YourContract.sol:YourContract","label":"hasBuyer","offset":0,"slot":"10","type":"t_bool"}],"numberOfBytes":"352"},"t_uint256":{"encoding":"inplace","label":"uint256","numberOfBytes":"32"}}},"userdoc":{"kind":"user","methods":{},"version":1}}}}