{"contracts/YourContract.sol":{"YourContract":{"abi":[{"inputs":[],"name":"PAYMENT_PERIODS_TO_SECONDS","outputs":[{"internalType":"uint256","name":"","type":"uint256"}],"stateMutability":"view","type":"function"},{"inputs":[{"internalType":"uint256","name":"_listingIndex","type":"uint256"}],"name":"acceptPaymentPlan","outputs":[],"stateMutability":"payable","type":"function"},{"inputs":[{"internalType":"uint256","name":"_listingIndex","type":"uint256"},{"internalType":"address","name":"_to","type":"address"}],"name":"buyerWithdrawNft","outputs":[],"stateMutability":"nonpayable","type":"function"},{"inputs":[{"internalType":"address","name":"_nftContractAddress","type":"address"},{"internalType":"uint256","name":"_tokenId","type":"uint256"},{"internalType":"uint256","name":"_payPeriods","type":"uint256"},{"internalType":"uint256","name":"_price","type":"uint256"},{"internalType":"uint256","name":"_initialPayment","type":"uint256"}],"name":"createListing","outputs":[],"stateMutability":"nonpayable","type":"function"},{"inputs":[],"name":"currentTime","outputs":[{"internalType":"uint256","name":"","type":"uint256"}],"stateMutability":"view","type":"function"},{"inputs":[{"internalType":"uint256","name":"_listingIndex","type":"uint256"}],"name":"deactivateListing","outputs":[],"stateMutability":"nonpayable","type":"function"},{"inputs":[{"internalType":"uint256","name":"_listingIndex","type":"uint256"}],"name":"getAmountDueByPayment","outputs":[{"internalType":"uint256","name":"","type":"uint256"}],"stateMutability":"view","type":"function"},{"inputs":[{"internalType":"uint256","name":"_listingIndex","type":"uint256"}],"name":"getAmountPaid","outputs":[{"internalType":"uint256","name":"","type":"uint256"}],"stateMutability":"view","type":"function"},{"inputs":[{"internalType":"uint256","name":"_listingIndex","type":"uint256"}],"name":"getAmountPerPayPeriod","outputs":[{"internalType":"uint256","name":"","type":"uint256"}],"stateMutability":"view","type":"function"},{"inputs":[{"internalType":"uint256","name":"_listingIndex","type":"uint256"}],"name":"getNextPaymemtTime","outputs":[{"internalType":"uint256","name":"","type":"uint256"}],"stateMutability":"view","type":"function"},{"inputs":[{"internalType":"uint256","name":"_listingIndex","type":"uint256"}],"name":"getTimesDue","outputs":[{"internalType":"uint256[]","name":"","type":"uint256[]"}],"stateMutability":"view","type":"function"},{"inputs":[{"internalType":"uint256","name":"_listingIndex","type":"uint256"}],"name":"hasDefaulted","outputs":[{"internalType":"bool","name":"","type":"bool"}],"stateMutability":"view","type":"function"},{"inputs":[{"internalType":"uint256","name":"_listingIndex","type":"uint256"}],"name":"isActive","outputs":[{"internalType":"bool","name":"","type":"bool"}],"stateMutability":"view","type":"function"},{"inputs":[{"internalType":"uint256","name":"_listingIndex","type":"uint256"}],"name":"isPaidOff","outputs":[{"internalType":"bool","name":"","type":"bool"}],"stateMutability":"view","type":"function"},{"inputs":[{"internalType":"uint256","name":"","type":"uint256"}],"name":"listings","outputs":[{"internalType":"bool","name":"isActive","type":"bool"},{"internalType":"address","name":"seller","type":"address"},{"internalType":"address","name":"buyer","type":"address"},{"internalType":"address","name":"nftContractAddress","type":"address"},{"internalType":"uint256","name":"tokenId","type":"uint256"},{"internalType":"uint256","name":"lockTime","type":"uint256"},{"internalType":"uint256","name":"timeAtLock","type":"uint256"},{"internalType":"uint256","name":"paymentPeriods","type":"uint256"},{"internalType":"uint256","name":"initialPayment","type":"uint256"},{"internalType":"uint256","name":"price","type":"uint256"},{"internalType":"uint256","name":"amountPaid","type":"uint256"},{"internalType":"bool","name":"hasBuyer","type":"bool"}],"stateMutability":"view","type":"function"},{"inputs":[{"internalType":"uint256","name":"_listingIndex","type":"uint256"}],"name":"makePayment","outputs":[],"stateMutability":"payable","type":"function"},{"inputs":[{"internalType":"uint256","name":"_listingIndex","type":"uint256"}],"name":"reActivateListing","outputs":[],"stateMutability":"nonpayable","type":"function"},{"inputs":[{"internalType":"uint256","name":"","type":"uint256"}],"name":"sellerBalances","outputs":[{"internalType":"uint256","name":"","type":"uint256"}],"stateMutability":"view","type":"function"},{"inputs":[{"internalType":"uint256","name":"_listingIndex","type":"uint256"}],"name":"sellerWithdrawBalance","outputs":[],"stateMutability":"nonpayable","type":"function"},{"inputs":[{"internalType":"uint256","name":"_listingIndex","type":"uint256"},{"internalType":"address","name":"_to","type":"address"}],"name":"sellerWithdrawNft","outputs":[],"stateMutability":"nonpayable","type":"function"},{"inputs":[{"internalType":"uint256","name":"_listingIndex","type":"uint256"}],"name":"timeOfFinalPayment","outputs":[{"internalType":"uint256","name":"","type":"uint256"}],"stateMutability":"view","type":"function"}],"devdoc":{"kind":"dev","methods":{},"version":1},"evm":{"bytecode":{"linkReferences":{},"object":"608060405234801561001057600080fd5b50612040806100206000396000f3fe60806040526004361061012a5760003560e01c80639057f289116100ab578063bac94b7a1161006f578063bac94b7a1461032b578063c262cadc1461034b578063c7e380e11461035e578063d18e81b31461037e578063de74e57b14610391578063faf6a54a1461041d57600080fd5b80639057f2891461027e57806391627eb01461029e57806394049ae2146102be5780639f63b5b1146102de578063a646e664146102fe57600080fd5b80635d54e2cb116100f25780635d54e2cb146101d75780635f54ffd6146101f757806368d70e831461021757806382afd23b1461022e57806382e5f0e01461025e57600080fd5b8063314bc6cd1461012f5780633b8d915f1461016257806344193de8146101845780635114cb52146101a45780635b4112df146101b7575b600080fd5b34801561013b57600080fd5b5061014f61014a366004611e27565b61043d565b6040519081526020015b60405180910390f35b34801561016e57600080fd5b5061018261017d366004611e27565b6104be565b005b34801561019057600080fd5b5061014f61019f366004611e27565b61059b565b6101826101b2366004611e27565b61067e565b3480156101c357600080fd5b5061014f6101d2366004611e27565b61080f565b3480156101e357600080fd5b5061014f6101f2366004611e27565b610916565b34801561020357600080fd5b50610182610212366004611e27565b610a06565b34801561022357600080fd5b5061014f62278d0081565b34801561023a57600080fd5b5061024e610249366004611e27565b610bd2565b6040519015158152602001610159565b34801561026a57600080fd5b50610182610279366004611e3f565b610c11565b34801561028a57600080fd5b50610182610299366004611de4565b610d7a565b3480156102aa57600080fd5b506101826102b9366004611e3f565b61111f565b3480156102ca57600080fd5b5061024e6102d9366004611e27565b6111d7565b3480156102ea57600080fd5b506101826102f9366004611e27565b611348565b34801561030a57600080fd5b5061031e610319366004611e27565b6115cf565b6040516101599190611e6e565b34801561033757600080fd5b5061024e610346366004611e27565b6116ce565b610182610359366004611e27565b6117c7565b34801561036a57600080fd5b5061014f610379366004611e27565b611cd9565b34801561038a57600080fd5b504261014f565b34801561039d57600080fd5b506103b16103ac366004611e27565b611d21565b604080519c15158d526001600160a01b039b8c1660208e0152998b16998c01999099529890961660608a0152608089019490945260a088019290925260c087015260e0860152610100850152610120840152610140830191909152151561016082015261018001610159565b34801561042957600080fd5b5061014f610438366004611e27565b611da7565b6000806000838154811061046157634e487b7160e01b600052603260045260246000fd5b90600052602060002090600b0201905060008160050154426104839190611f80565b9050600061049462278d0083611fb2565b905060006104a58262278d00611f80565b905060006104b38242611f35565b979650505050505050565b60008082815481106104e057634e487b7160e01b600052603260045260246000fd5b60009182526020909120600b90910201805490915061010090046001600160a01b031633146105515760405162461bcd60e51b815260206004820152601860248201527774686973206973206e6f7420796f7572206c697374696e6760401b60448201526064015b60405180910390fd5b61055a826111d7565b8061056a5750600a81015460ff16155b6105905760405162461bcd60e51b81526020600482015260006024820152604401610548565b805460ff1916905550565b600080600083815481106105bf57634e487b7160e01b600052603260045260246000fd5b60009182526020918290206040805161018081018252600b909302909101805460ff808216151585526001600160a01b036101009283900481169686019690965260018301548616938501939093526002820154909416606084015260038101546080840152600481015460a0840152600581015460c0840152600681015460e0840152600781015493830193909352600883015461012083015260098301546101408301819052600a90930154161515610160909101529392505050565b600034116106de5760405162461bcd60e51b815260206004820152602760248201527f746865726520776173206e6f206574682073656e7420776974682074686973206044820152661c185e5b595b9d60ca1b6064820152608401610548565b6106e7816111d7565b1561072a5760405162461bcd60e51b8152602060048201526013602482015272189d5e595c881a185cc8191959985d5b1d1959606a1b6044820152606401610548565b600080828154811061074c57634e487b7160e01b600052603260045260246000fd5b60009182526020909120600b90910201805490915060ff166107b05760405162461bcd60e51b815260206004820152601a60248201527f74686973206c697374696e67206973206e6f74206163746976650000000000006044820152606401610548565b348160090160008282546107c49190611f35565b9250508190555034600183815481106107ed57634e487b7160e01b600052603260045260246000fd5b9060005260206000200160008282546108069190611f35565b90915550505050565b6000806000838154811061083357634e487b7160e01b600052603260045260246000fd5b60009182526020918290206040805161018081018252600b909302909101805460ff808216151585526001600160a01b036101009283900481169686019690965260018301548616938501939093526002820154909416606084015260038101546080840152600481015460a0840152600581015460c0840152600681015460e084018190526007820154948401859052600882015461012085018190526009830154610140860152600a909201549092161515610160840152919350916108fa91611f80565b6109049190611f4d565b61090f906001611f35565b9392505050565b6000806000838154811061093a57634e487b7160e01b600052603260045260246000fd5b90600052602060002090600b02019050610953836111d7565b156109ac5760405162461bcd60e51b8152602060048201526024808201527f74686973207061796d656e742061677265656d656e74206861732064656661756044820152631b1d195960e21b6064820152608401610548565b60008160050154426109be9190611f80565b905060006109cf62278d0083611f4d565b905060006109dc8661080f565b9050600084600901548360016109f29190611f35565b6109fc9084611f61565b6104b39190611f80565b6000808281548110610a2857634e487b7160e01b600052603260045260246000fd5b60009182526020909120600b90910201805490915061010090046001600160a01b03163314610a695760405162461bcd60e51b815260040161054890611eb2565b600060018381548110610a8c57634e487b7160e01b600052603260045260246000fd5b906000526020600020015411610ae45760405162461bcd60e51b815260206004820152601c60248201527f7468657265206973206e6f7468696e6720746f207769746864726177000000006044820152606401610548565b600060018381548110610b0757634e487b7160e01b600052603260045260246000fd5b90600052602060002001549050600060018481548110610b3757634e487b7160e01b600052603260045260246000fd5b6000918252602082200191909155604051339083908381818185875af1925050503d8060008114610b84576040519150601f19603f3d011682016040523d82523d6000602084013e610b89565b606091505b5050905080610bcc5760405162461bcd60e51b815260206004820152600f60248201526e1d1c985b9cd9995c8819985a5b1959608a1b6044820152606401610548565b50505050565b60008060008381548110610bf657634e487b7160e01b600052603260045260246000fd5b60009182526020909120600b909102015460ff169392505050565b6000808381548110610c3357634e487b7160e01b600052603260045260246000fd5b600091825260209091206001600b90920201908101549091506001600160a01b03163314610cad5760405162461bcd60e51b815260206004820152602160248201527f796f7520617265206e6f7420746865206275796572206f662074686973206e666044820152601d60fa1b6064820152608401610548565b610cb6836116ce565b610d025760405162461bcd60e51b815260206004820152601e60248201527f74686973206e667420686173206e6f74206265656e2070616964206f666600006044820152606401610548565b600281015460038201546040516323b872dd60e01b81523060048201526001600160a01b03858116602483015260448201929092529116906323b872dd90606401600060405180830381600087803b158015610d5d57600080fd5b505af1158015610d71573d6000803e3d6000fd5b50505050505050565b6040516331a9108f60e11b81526004810185905233906001600160a01b03871690636352211e9060240160206040518083038186803b158015610dbc57600080fd5b505afa158015610dd0573d6000803e3d6000fd5b505050506040513d601f19601f82011682018060405250810190610df49190611dc8565b6001600160a01b031614610e1a5760405162461bcd60e51b815260040161054890611ef4565b60405163020604bf60e21b81526004810185905230906001600160a01b0387169063081812fc9060240160206040518083038186803b158015610e5c57600080fd5b505afa158015610e70573d6000803e3d6000fd5b505050506040513d601f19601f82011682018060405250810190610e949190611dc8565b6001600160a01b031614610f005760405162461bcd60e51b815260206004820152602d60248201527f7468697320636f6e747261637420686173206e6f74206265656e20617070726f60448201526c3b32b210313c9039b2b63632b960991b6064820152608401610548565b60008311610f0d57600080fd5b6000610f1c62278d0085611f61565b9050610f29601e82611fb2565b15610f3357600080fd5b6000604051806101800160405280600115158152602001336001600160a01b0316815260200160006001600160a01b03168152602001886001600160a01b03168152602001878152602001838152602001600081526020018681526020018481526020018581526020016000815260200160001515815250905060008190806001815401808255809150506001900390600052602060002090600b020160009091909190915060008201518160000160006101000a81548160ff02191690831515021790555060208201518160000160016101000a8154816001600160a01b0302191690836001600160a01b0316021790555060408201518160010160006101000a8154816001600160a01b0302191690836001600160a01b0316021790555060608201518160020160006101000a8154816001600160a01b0302191690836001600160a01b031602179055506080820151816003015560a0820151816004015560c0820151816005015560e0820151816006015561010082015181600701556101208201518160080155610140820151816009015561016082015181600a0160006101000a81548160ff021916908315150217905550505060016000908060018154018082558091505060019003906000526020600020016000909190919091505550505050505050565b600080838154811061114157634e487b7160e01b600052603260045260246000fd5b60009182526020909120600b90910201805490915061010090046001600160a01b031633146111825760405162461bcd60e51b815260040161054890611eb2565b61118b836111d7565b610d025760405162461bcd60e51b815260206004820152601d60248201527f746869732073656c6c657220686173206e6f742064656661756c7465640000006044820152606401610548565b600080600083815481106111fb57634e487b7160e01b600052603260045260246000fd5b600091825260208083206040805161018081018252600b909402909101805460ff808216151586526001600160a01b036101009283900481169587019590955260018301548516938601939093526002820154909316606085015260038101546080850152600481015460a0850152600581015460c08501819052600682015460e086015260078201549385019390935260088101546101208501526009810154610140850152600a01541615156101608301529092506112bc9042611f80565b905060006112cd62278d0083611f4d565b90508260e0015181106112ee5760018360e001516112eb9190611f80565b90505b60006112f98661080f565b905060008461014001518360016113109190611f35565b61131a9084611f61565b6113249190611f80565b90508181111561133b575060019695505050505050565b5060009695505050505050565b600080828154811061136a57634e487b7160e01b600052603260045260246000fd5b60009182526020909120600b90910201805490915060ff16156113cf5760405162461bcd60e51b815260206004820181905260248201527f74686973206c697374696e6720697320616c726561647920696e6163746976656044820152606401610548565b805461010090046001600160a01b031633146114285760405162461bcd60e51b815260206004820152601860248201527774686973206973206e6f7420796f7572206c697374696e6760401b6044820152606401610548565b600281015460038201546040516331a9108f60e11b8152600481019190915233916001600160a01b031690636352211e9060240160206040518083038186803b15801561147457600080fd5b505afa158015611488573d6000803e3d6000fd5b505050506040513d601f19601f820116820180604052508101906114ac9190611dc8565b6001600160a01b0316146114d25760405162461bcd60e51b815260040161054890611ef4565b6002810154600382015460405163020604bf60e21b8152600481019190915230916001600160a01b03169063081812fc9060240160206040518083038186803b15801561151e57600080fd5b505afa158015611532573d6000803e3d6000fd5b505050506040513d601f19601f820116820180604052508101906115569190611dc8565b6001600160a01b0316146115c15760405162461bcd60e51b815260206004820152602c60248201527f74686973206164647265737320686173206e6f74206265656e20617070726f7660448201526b32b210313c9039b2b63632b960a11b6064820152608401610548565b805460ff1916600117905550565b606060008083815481106115f357634e487b7160e01b600052603260045260246000fd5b90600052602060002090600b0201905060008160060154905060008167ffffffffffffffff81111561163557634e487b7160e01b600052604160045260246000fd5b60405190808252806020026020018201604052801561165e578160200160208202803683370190505b50905060005b828110156116c55761167962278d0082611f61565b84600501546116889190611f35565b8282815181106116a857634e487b7160e01b600052603260045260246000fd5b6020908102919091010152806116bd81611f97565b915050611664565b50949350505050565b600080600083815481106116f257634e487b7160e01b600052603260045260246000fd5b60009182526020918290206040805161018081018252600b909302909101805460ff808216151585526001600160a01b036101009283900481169686019690965260018301548616938501939093526002820154909416606084015260038101546080840152600481015460a0840152600581015460c0840152600681015460e08401526007810154938301939093526008830154610120830181905260098401546101408401819052600a909401549091161515610160830152909250116117be5750600192915050565b50600092915050565b60008082815481106117e957634e487b7160e01b600052603260045260246000fd5b60009182526020909120600b90910201805490915060ff1661184d5760405162461bcd60e51b815260206004820152601d60248201527f74686973206c697374696e67206973206e6f7420617661696c61626c650000006044820152606401610548565b600a81015460ff16156118b45760405162461bcd60e51b815260206004820152602960248201527f546865726520697320616c7265616479206120627579657220666f722074686960448201526873206c697374696e6760b81b6064820152608401610548565b806007015434101561191c5760405162461bcd60e51b815260206004820152602b60248201527f446964206e6f742073656e6420656e6f75676820666f722074686520696e697460448201526a1a585b081c185e5b595b9d60aa1b6064820152608401610548565b8054600282015460038301546040516331a9108f60e11b815260048101919091526101009092046001600160a01b0390811692911690636352211e9060240160206040518083038186803b15801561197357600080fd5b505afa158015611987573d6000803e3d6000fd5b505050506040513d601f19601f820116820180604052508101906119ab9190611dc8565b6001600160a01b031614611a135760405162461bcd60e51b815260206004820152602960248201527f73656c6c6572206973206e6f206c6f6e67657220746865206f776e6572206f66604482015268081d1a1a5cc81b999d60ba1b6064820152608401610548565b6002810154600382015460405163020604bf60e21b8152600481019190915230916001600160a01b03169063081812fc9060240160206040518083038186803b158015611a5f57600080fd5b505afa158015611a73573d6000803e3d6000fd5b505050506040513d601f19601f82011682018060405250810190611a979190611dc8565b6001600160a01b031614611afd5760405162461bcd60e51b815260206004820152602760248201527f7468697320636f6e7472616374206973206e6f7420617070726f7665642062796044820152661039b2b63632b960c91b6064820152608401610548565b6002810154815460038301546040516323b872dd60e01b81526001600160a01b036101009093048316600482015230602482015260448101919091529116906323b872dd90606401600060405180830381600087803b158015611b5f57600080fd5b505af1158015611b73573d6000803e3d6000fd5b50505050600281015460038201546040516331a9108f60e11b8152600481019190915230916001600160a01b031690636352211e9060240160206040518083038186803b158015611bc357600080fd5b505afa158015611bd7573d6000803e3d6000fd5b505050506040513d601f19601f82011682018060405250810190611bfb9190611dc8565b6001600160a01b031614611c6c5760405162461bcd60e51b815260206004820152603260248201527f636f756c64206e6f74207472616e73666572206e66742066726f6d206f776e656044820152711c881d1bc81d1a1a5cc818dbdb9d1c9858dd60721b6064820152608401610548565b346009820155600180820180546001600160a01b03191633179055600a8201805460ff191690911790554260058201819055611ca757600080fd5b3460018381548110611cc957634e487b7160e01b600052603260045260246000fd5b6000918252602090912001555050565b60008060008381548110611cfd57634e487b7160e01b600052603260045260246000fd5b90600052602060002090600b020190508060040154816005015461090f9190611f35565b60008181548110611d3157600080fd5b60009182526020909120600b9091020180546001820154600283015460038401546004850154600586015460068701546007880154600889015460098a0154600a909a015460ff808b169c50610100909a046001600160a01b039081169b9981169a98169896979596949593949293919291168c565b60018181548110611db757600080fd5b600091825260209091200154905081565b600060208284031215611dd9578081fd5b815161090f81611ff2565b600080600080600060a08688031215611dfb578081fd5b8535611e0681611ff2565b97602087013597506040870135966060810135965060800135945092505050565b600060208284031215611e38578081fd5b5035919050565b60008060408385031215611e51578182fd5b823591506020830135611e6381611ff2565b809150509250929050565b6020808252825182820181905260009190848201906040850190845b81811015611ea657835183529284019291840191600101611e8a565b50909695505050505050565b60208082526022908201527f796f7520617265206e6f74207468652073656c6c6572206f662074686973206e604082015261199d60f21b606082015260800190565b60208082526021908201527f796f7520617265206e6f7420746865206f776e6572206f662074686973206e666040820152601d60fa1b606082015260800190565b60008219821115611f4857611f48611fc6565b500190565b600082611f5c57611f5c611fdc565b500490565b6000816000190483118215151615611f7b57611f7b611fc6565b500290565b600082821015611f9257611f92611fc6565b500390565b6000600019821415611fab57611fab611fc6565b5060010190565b600082611fc157611fc1611fdc565b500690565b634e487b7160e01b600052601160045260246000fd5b634e487b7160e01b600052601260045260246000fd5b6001600160a01b038116811461200757600080fd5b5056fea264697066735822122004769183e844a5cee393b11c52c7b4628267ba1dfba6b3028d552608b1bc1ffd64736f6c63430008040033","opcodes":"PUSH1 0x80 PUSH1 0x40 MSTORE CALLVALUE DUP1 ISZERO PUSH2 0x10 JUMPI PUSH1 0x0 DUP1 REVERT JUMPDEST POP PUSH2 0x2040 DUP1 PUSH2 0x20 PUSH1 0x0 CODECOPY PUSH1 0x0 RETURN INVALID PUSH1 0x80 PUSH1 0x40 MSTORE PUSH1 0x4 CALLDATASIZE LT PUSH2 0x12A JUMPI PUSH1 0x0 CALLDATALOAD PUSH1 0xE0 SHR DUP1 PUSH4 0x9057F289 GT PUSH2 0xAB JUMPI DUP1 PUSH4 0xBAC94B7A GT PUSH2 0x6F JUMPI DUP1 PUSH4 0xBAC94B7A EQ PUSH2 0x32B JUMPI DUP1 PUSH4 0xC262CADC EQ PUSH2 0x34B JUMPI DUP1 PUSH4 0xC7E380E1 EQ PUSH2 0x35E JUMPI DUP1 PUSH4 0xD18E81B3 EQ PUSH2 0x37E JUMPI DUP1 PUSH4 0xDE74E57B EQ PUSH2 0x391 JUMPI DUP1 PUSH4 0xFAF6A54A EQ PUSH2 0x41D JUMPI PUSH1 0x0 DUP1 REVERT JUMPDEST DUP1 PUSH4 0x9057F289 EQ PUSH2 0x27E JUMPI DUP1 PUSH4 0x91627EB0 EQ PUSH2 0x29E JUMPI DUP1 PUSH4 0x94049AE2 EQ PUSH2 0x2BE JUMPI DUP1 PUSH4 0x9F63B5B1 EQ PUSH2 0x2DE JUMPI DUP1 PUSH4 0xA646E664 EQ PUSH2 0x2FE JUMPI PUSH1 0x0 DUP1 REVERT JUMPDEST DUP1 PUSH4 0x5D54E2CB GT PUSH2 0xF2 JUMPI DUP1 PUSH4 0x5D54E2CB EQ PUSH2 0x1D7 JUMPI DUP1 PUSH4 0x5F54FFD6 EQ PUSH2 0x1F7 JUMPI DUP1 PUSH4 0x68D70E83 EQ PUSH2 0x217 JUMPI DUP1 PUSH4 0x82AFD23B EQ PUSH2 0x22E JUMPI DUP1 PUSH4 0x82E5F0E0 EQ PUSH2 0x25E JUMPI PUSH1 0x0 DUP1 REVERT JUMPDEST DUP1 PUSH4 0x314BC6CD EQ PUSH2 0x12F JUMPI DUP1 PUSH4 0x3B8D915F EQ PUSH2 0x162 JUMPI DUP1 PUSH4 0x44193DE8 EQ PUSH2 0x184 JUMPI DUP1 PUSH4 0x5114CB52 EQ PUSH2 0x1A4 JUMPI DUP1 PUSH4 0x5B4112DF EQ PUSH2 0x1B7 JUMPI JUMPDEST PUSH1 0x0 DUP1 REVERT JUMPDEST CALLVALUE DUP1 ISZERO PUSH2 0x13B JUMPI PUSH1 0x0 DUP1 REVERT JUMPDEST POP PUSH2 0x14F PUSH2 0x14A CALLDATASIZE PUSH1 0x4 PUSH2 0x1E27 JUMP JUMPDEST PUSH2 0x43D JUMP JUMPDEST PUSH1 0x40 MLOAD SWAP1 DUP2 MSTORE PUSH1 0x20 ADD JUMPDEST PUSH1 0x40 MLOAD DUP1 SWAP2 SUB SWAP1 RETURN JUMPDEST CALLVALUE DUP1 ISZERO PUSH2 0x16E JUMPI PUSH1 0x0 DUP1 REVERT JUMPDEST POP PUSH2 0x182 PUSH2 0x17D CALLDATASIZE PUSH1 0x4 PUSH2 0x1E27 JUMP JUMPDEST PUSH2 0x4BE JUMP JUMPDEST STOP JUMPDEST CALLVALUE DUP1 ISZERO PUSH2 0x190 JUMPI PUSH1 0x0 DUP1 REVERT JUMPDEST POP PUSH2 0x14F PUSH2 0x19F CALLDATASIZE PUSH1 0x4 PUSH2 0x1E27 JUMP JUMPDEST PUSH2 0x59B JUMP JUMPDEST PUSH2 0x182 PUSH2 0x1B2 CALLDATASIZE PUSH1 0x4 PUSH2 0x1E27 JUMP JUMPDEST PUSH2 0x67E JUMP JUMPDEST CALLVALUE DUP1 ISZERO PUSH2 0x1C3 JUMPI PUSH1 0x0 DUP1 REVERT JUMPDEST POP PUSH2 0x14F PUSH2 0x1D2 CALLDATASIZE PUSH1 0x4 PUSH2 0x1E27 JUMP JUMPDEST PUSH2 0x80F JUMP JUMPDEST CALLVALUE DUP1 ISZERO PUSH2 0x1E3 JUMPI PUSH1 0x0 DUP1 REVERT JUMPDEST POP PUSH2 0x14F PUSH2 0x1F2 CALLDATASIZE PUSH1 0x4 PUSH2 0x1E27 JUMP JUMPDEST PUSH2 0x916 JUMP JUMPDEST CALLVALUE DUP1 ISZERO PUSH2 0x203 JUMPI PUSH1 0x0 DUP1 REVERT JUMPDEST POP PUSH2 0x182 PUSH2 0x212 CALLDATASIZE PUSH1 0x4 PUSH2 0x1E27 JUMP JUMPDEST PUSH2 0xA06 JUMP JUMPDEST CALLVALUE DUP1 ISZERO PUSH2 0x223 JUMPI PUSH1 0x0 DUP1 REVERT JUMPDEST POP PUSH2 0x14F PUSH3 0x278D00 DUP2 JUMP JUMPDEST CALLVALUE DUP1 ISZERO PUSH2 0x23A JUMPI PUSH1 0x0 DUP1 REVERT JUMPDEST POP PUSH2 0x24E PUSH2 0x249 CALLDATASIZE PUSH1 0x4 PUSH2 0x1E27 JUMP JUMPDEST PUSH2 0xBD2 JUMP JUMPDEST PUSH1 0x40 MLOAD SWAP1 ISZERO ISZERO DUP2 MSTORE PUSH1 0x20 ADD PUSH2 0x159 JUMP JUMPDEST CALLVALUE DUP1 ISZERO PUSH2 0x26A JUMPI PUSH1 0x0 DUP1 REVERT JUMPDEST POP PUSH2 0x182 PUSH2 0x279 CALLDATASIZE PUSH1 0x4 PUSH2 0x1E3F JUMP JUMPDEST PUSH2 0xC11 JUMP JUMPDEST CALLVALUE DUP1 ISZERO PUSH2 0x28A JUMPI PUSH1 0x0 DUP1 REVERT JUMPDEST POP PUSH2 0x182 PUSH2 0x299 CALLDATASIZE PUSH1 0x4 PUSH2 0x1DE4 JUMP JUMPDEST PUSH2 0xD7A JUMP JUMPDEST CALLVALUE DUP1 ISZERO PUSH2 0x2AA JUMPI PUSH1 0x0 DUP1 REVERT JUMPDEST POP PUSH2 0x182 PUSH2 0x2B9 CALLDATASIZE PUSH1 0x4 PUSH2 0x1E3F JUMP JUMPDEST PUSH2 0x111F JUMP JUMPDEST CALLVALUE DUP1 ISZERO PUSH2 0x2CA JUMPI PUSH1 0x0 DUP1 REVERT JUMPDEST POP PUSH2 0x24E PUSH2 0x2D9 CALLDATASIZE PUSH1 0x4 PUSH2 0x1E27 JUMP JUMPDEST PUSH2 0x11D7 JUMP JUMPDEST CALLVALUE DUP1 ISZERO PUSH2 0x2EA JUMPI PUSH1 0x0 DUP1 REVERT JUMPDEST POP PUSH2 0x182 PUSH2 0x2F9 CALLDATASIZE PUSH1 0x4 PUSH2 0x1E27 JUMP JUMPDEST PUSH2 0x1348 JUMP JUMPDEST CALLVALUE DUP1 ISZERO PUSH2 0x30A JUMPI PUSH1 0x0 DUP1 REVERT JUMPDEST POP PUSH2 0x31E PUSH2 0x319 CALLDATASIZE PUSH1 0x4 PUSH2 0x1E27 JUMP JUMPDEST PUSH2 0x15CF JUMP JUMPDEST PUSH1 0x40 MLOAD PUSH2 0x159 SWAP2 SWAP1 PUSH2 0x1E6E JUMP JUMPDEST CALLVALUE DUP1 ISZERO PUSH2 0x337 JUMPI PUSH1 0x0 DUP1 REVERT JUMPDEST POP PUSH2 0x24E PUSH2 0x346 CALLDATASIZE PUSH1 0x4 PUSH2 0x1E27 JUMP JUMPDEST PUSH2 0x16CE JUMP JUMPDEST PUSH2 0x182 PUSH2 0x359 CALLDATASIZE PUSH1 0x4 PUSH2 0x1E27 JUMP JUMPDEST PUSH2 0x17C7 JUMP JUMPDEST CALLVALUE DUP1 ISZERO PUSH2 0x36A JUMPI PUSH1 0x0 DUP1 REVERT JUMPDEST POP PUSH2 0x14F PUSH2 0x379 CALLDATASIZE PUSH1 0x4 PUSH2 0x1E27 JUMP JUMPDEST PUSH2 0x1CD9 JUMP JUMPDEST CALLVALUE DUP1 ISZERO PUSH2 0x38A JUMPI PUSH1 0x0 DUP1 REVERT JUMPDEST POP TIMESTAMP PUSH2 0x14F JUMP JUMPDEST CALLVALUE DUP1 ISZERO PUSH2 0x39D JUMPI PUSH1 0x0 DUP1 REVERT JUMPDEST POP PUSH2 0x3B1 PUSH2 0x3AC CALLDATASIZE PUSH1 0x4 PUSH2 0x1E27 JUMP JUMPDEST PUSH2 0x1D21 JUMP JUMPDEST PUSH1 0x40 DUP1 MLOAD SWAP13 ISZERO ISZERO DUP14 MSTORE PUSH1 0x1 PUSH1 0x1 PUSH1 0xA0 SHL SUB SWAP12 DUP13 AND PUSH1 0x20 DUP15 ADD MSTORE SWAP10 DUP12 AND SWAP10 DUP13 ADD SWAP10 SWAP1 SWAP10 MSTORE SWAP9 SWAP1 SWAP7 AND PUSH1 0x60 DUP11 ADD MSTORE PUSH1 0x80 DUP10 ADD SWAP5 SWAP1 SWAP5 MSTORE PUSH1 0xA0 DUP9 ADD SWAP3 SWAP1 SWAP3 MSTORE PUSH1 0xC0 DUP8 ADD MSTORE PUSH1 0xE0 DUP7 ADD MSTORE PUSH2 0x100 DUP6 ADD MSTORE PUSH2 0x120 DUP5 ADD MSTORE PUSH2 0x140 DUP4 ADD SWAP2 SWAP1 SWAP2 MSTORE ISZERO ISZERO PUSH2 0x160 DUP3 ADD MSTORE PUSH2 0x180 ADD PUSH2 0x159 JUMP JUMPDEST CALLVALUE DUP1 ISZERO PUSH2 0x429 JUMPI PUSH1 0x0 DUP1 REVERT JUMPDEST POP PUSH2 0x14F PUSH2 0x438 CALLDATASIZE PUSH1 0x4 PUSH2 0x1E27 JUMP JUMPDEST PUSH2 0x1DA7 JUMP JUMPDEST PUSH1 0x0 DUP1 PUSH1 0x0 DUP4 DUP2 SLOAD DUP2 LT PUSH2 0x461 JUMPI PUSH4 0x4E487B71 PUSH1 0xE0 SHL PUSH1 0x0 MSTORE PUSH1 0x32 PUSH1 0x4 MSTORE PUSH1 0x24 PUSH1 0x0 REVERT JUMPDEST SWAP1 PUSH1 0x0 MSTORE PUSH1 0x20 PUSH1 0x0 KECCAK256 SWAP1 PUSH1 0xB MUL ADD SWAP1 POP PUSH1 0x0 DUP2 PUSH1 0x5 ADD SLOAD TIMESTAMP PUSH2 0x483 SWAP2 SWAP1 PUSH2 0x1F80 JUMP JUMPDEST SWAP1 POP PUSH1 0x0 PUSH2 0x494 PUSH3 0x278D00 DUP4 PUSH2 0x1FB2 JUMP JUMPDEST SWAP1 POP PUSH1 0x0 PUSH2 0x4A5 DUP3 PUSH3 0x278D00 PUSH2 0x1F80 JUMP JUMPDEST SWAP1 POP PUSH1 0x0 PUSH2 0x4B3 DUP3 TIMESTAMP PUSH2 0x1F35 JUMP JUMPDEST SWAP8 SWAP7 POP POP POP POP POP POP POP JUMP JUMPDEST PUSH1 0x0 DUP1 DUP3 DUP2 SLOAD DUP2 LT PUSH2 0x4E0 JUMPI PUSH4 0x4E487B71 PUSH1 0xE0 SHL PUSH1 0x0 MSTORE PUSH1 0x32 PUSH1 0x4 MSTORE PUSH1 0x24 PUSH1 0x0 REVERT JUMPDEST PUSH1 0x0 SWAP2 DUP3 MSTORE PUSH1 0x20 SWAP1 SWAP2 KECCAK256 PUSH1 0xB SWAP1 SWAP2 MUL ADD DUP1 SLOAD SWAP1 SWAP2 POP PUSH2 0x100 SWAP1 DIV PUSH1 0x1 PUSH1 0x1 PUSH1 0xA0 SHL SUB AND CALLER EQ PUSH2 0x551 JUMPI PUSH1 0x40 MLOAD PUSH3 0x461BCD PUSH1 0xE5 SHL DUP2 MSTORE PUSH1 0x20 PUSH1 0x4 DUP3 ADD MSTORE PUSH1 0x18 PUSH1 0x24 DUP3 ADD MSTORE PUSH24 0x74686973206973206E6F7420796F7572206C697374696E67 PUSH1 0x40 SHL PUSH1 0x44 DUP3 ADD MSTORE PUSH1 0x64 ADD JUMPDEST PUSH1 0x40 MLOAD DUP1 SWAP2 SUB SWAP1 REVERT JUMPDEST PUSH2 0x55A DUP3 PUSH2 0x11D7 JUMP JUMPDEST DUP1 PUSH2 0x56A JUMPI POP PUSH1 0xA DUP2 ADD SLOAD PUSH1 0xFF AND ISZERO JUMPDEST PUSH2 0x590 JUMPI PUSH1 0x40 MLOAD PUSH3 0x461BCD PUSH1 0xE5 SHL DUP2 MSTORE PUSH1 0x20 PUSH1 0x4 DUP3 ADD MSTORE PUSH1 0x0 PUSH1 0x24 DUP3 ADD MSTORE PUSH1 0x44 ADD PUSH2 0x548 JUMP JUMPDEST DUP1 SLOAD PUSH1 0xFF NOT AND SWAP1 SSTORE POP JUMP JUMPDEST PUSH1 0x0 DUP1 PUSH1 0x0 DUP4 DUP2 SLOAD DUP2 LT PUSH2 0x5BF JUMPI PUSH4 0x4E487B71 PUSH1 0xE0 SHL PUSH1 0x0 MSTORE PUSH1 0x32 PUSH1 0x4 MSTORE PUSH1 0x24 PUSH1 0x0 REVERT JUMPDEST PUSH1 0x0 SWAP2 DUP3 MSTORE PUSH1 0x20 SWAP2 DUP3 SWAP1 KECCAK256 PUSH1 0x40 DUP1 MLOAD PUSH2 0x180 DUP2 ADD DUP3 MSTORE PUSH1 0xB SWAP1 SWAP4 MUL SWAP1 SWAP2 ADD DUP1 SLOAD PUSH1 0xFF DUP1 DUP3 AND ISZERO ISZERO DUP6 MSTORE PUSH1 0x1 PUSH1 0x1 PUSH1 0xA0 SHL SUB PUSH2 0x100 SWAP3 DUP4 SWAP1 DIV DUP2 AND SWAP7 DUP7 ADD SWAP7 SWAP1 SWAP7 MSTORE PUSH1 0x1 DUP4 ADD SLOAD DUP7 AND SWAP4 DUP6 ADD SWAP4 SWAP1 SWAP4 MSTORE PUSH1 0x2 DUP3 ADD SLOAD SWAP1 SWAP5 AND PUSH1 0x60 DUP5 ADD MSTORE PUSH1 0x3 DUP2 ADD SLOAD PUSH1 0x80 DUP5 ADD MSTORE PUSH1 0x4 DUP2 ADD SLOAD PUSH1 0xA0 DUP5 ADD MSTORE PUSH1 0x5 DUP2 ADD SLOAD PUSH1 0xC0 DUP5 ADD MSTORE PUSH1 0x6 DUP2 ADD SLOAD PUSH1 0xE0 DUP5 ADD MSTORE PUSH1 0x7 DUP2 ADD SLOAD SWAP4 DUP4 ADD SWAP4 SWAP1 SWAP4 MSTORE PUSH1 0x8 DUP4 ADD SLOAD PUSH2 0x120 DUP4 ADD MSTORE PUSH1 0x9 DUP4 ADD SLOAD PUSH2 0x140 DUP4 ADD DUP2 SWAP1 MSTORE PUSH1 0xA SWAP1 SWAP4 ADD SLOAD AND ISZERO ISZERO PUSH2 0x160 SWAP1 SWAP2 ADD MSTORE SWAP4 SWAP3 POP POP POP JUMP JUMPDEST PUSH1 0x0 CALLVALUE GT PUSH2 0x6DE JUMPI PUSH1 0x40 MLOAD PUSH3 0x461BCD PUSH1 0xE5 SHL DUP2 MSTORE PUSH1 0x20 PUSH1 0x4 DUP3 ADD MSTORE PUSH1 0x27 PUSH1 0x24 DUP3 ADD MSTORE PUSH32 0x746865726520776173206E6F206574682073656E742077697468207468697320 PUSH1 0x44 DUP3 ADD MSTORE PUSH7 0x1C185E5B595B9D PUSH1 0xCA SHL PUSH1 0x64 DUP3 ADD MSTORE PUSH1 0x84 ADD PUSH2 0x548 JUMP JUMPDEST PUSH2 0x6E7 DUP2 PUSH2 0x11D7 JUMP JUMPDEST ISZERO PUSH2 0x72A JUMPI PUSH1 0x40 MLOAD PUSH3 0x461BCD PUSH1 0xE5 SHL DUP2 MSTORE PUSH1 0x20 PUSH1 0x4 DUP3 ADD MSTORE PUSH1 0x13 PUSH1 0x24 DUP3 ADD MSTORE PUSH19 0x189D5E595C881A185CC8191959985D5B1D1959 PUSH1 0x6A SHL PUSH1 0x44 DUP3 ADD MSTORE PUSH1 0x64 ADD PUSH2 0x548 JUMP JUMPDEST PUSH1 0x0 DUP1 DUP3 DUP2 SLOAD DUP2 LT PUSH2 0x74C JUMPI PUSH4 0x4E487B71 PUSH1 0xE0 SHL PUSH1 0x0 MSTORE PUSH1 0x32 PUSH1 0x4 MSTORE PUSH1 0x24 PUSH1 0x0 REVERT JUMPDEST PUSH1 0x0 SWAP2 DUP3 MSTORE PUSH1 0x20 SWAP1 SWAP2 KECCAK256 PUSH1 0xB SWAP1 SWAP2 MUL ADD DUP1 SLOAD SWAP1 SWAP2 POP PUSH1 0xFF AND PUSH2 0x7B0 JUMPI PUSH1 0x40 MLOAD PUSH3 0x461BCD PUSH1 0xE5 SHL DUP2 MSTORE PUSH1 0x20 PUSH1 0x4 DUP3 ADD MSTORE PUSH1 0x1A PUSH1 0x24 DUP3 ADD MSTORE PUSH32 0x74686973206C697374696E67206973206E6F7420616374697665000000000000 PUSH1 0x44 DUP3 ADD MSTORE PUSH1 0x64 ADD PUSH2 0x548 JUMP JUMPDEST CALLVALUE DUP2 PUSH1 0x9 ADD PUSH1 0x0 DUP3 DUP3 SLOAD PUSH2 0x7C4 SWAP2 SWAP1 PUSH2 0x1F35 JUMP JUMPDEST SWAP3 POP POP DUP2 SWAP1 SSTORE POP CALLVALUE PUSH1 0x1 DUP4 DUP2 SLOAD DUP2 LT PUSH2 0x7ED JUMPI PUSH4 0x4E487B71 PUSH1 0xE0 SHL PUSH1 0x0 MSTORE PUSH1 0x32 PUSH1 0x4 MSTORE PUSH1 0x24 PUSH1 0x0 REVERT JUMPDEST SWAP1 PUSH1 0x0 MSTORE PUSH1 0x20 PUSH1 0x0 KECCAK256 ADD PUSH1 0x0 DUP3 DUP3 SLOAD PUSH2 0x806 SWAP2 SWAP1 PUSH2 0x1F35 JUMP JUMPDEST SWAP1 SWAP2 SSTORE POP POP POP POP JUMP JUMPDEST PUSH1 0x0 DUP1 PUSH1 0x0 DUP4 DUP2 SLOAD DUP2 LT PUSH2 0x833 JUMPI PUSH4 0x4E487B71 PUSH1 0xE0 SHL PUSH1 0x0 MSTORE PUSH1 0x32 PUSH1 0x4 MSTORE PUSH1 0x24 PUSH1 0x0 REVERT JUMPDEST PUSH1 0x0 SWAP2 DUP3 MSTORE PUSH1 0x20 SWAP2 DUP3 SWAP1 KECCAK256 PUSH1 0x40 DUP1 MLOAD PUSH2 0x180 DUP2 ADD DUP3 MSTORE PUSH1 0xB SWAP1 SWAP4 MUL SWAP1 SWAP2 ADD DUP1 SLOAD PUSH1 0xFF DUP1 DUP3 AND ISZERO ISZERO DUP6 MSTORE PUSH1 0x1 PUSH1 0x1 PUSH1 0xA0 SHL SUB PUSH2 0x100 SWAP3 DUP4 SWAP1 DIV DUP2 AND SWAP7 DUP7 ADD SWAP7 SWAP1 SWAP7 MSTORE PUSH1 0x1 DUP4 ADD SLOAD DUP7 AND SWAP4 DUP6 ADD SWAP4 SWAP1 SWAP4 MSTORE PUSH1 0x2 DUP3 ADD SLOAD SWAP1 SWAP5 AND PUSH1 0x60 DUP5 ADD MSTORE PUSH1 0x3 DUP2 ADD SLOAD PUSH1 0x80 DUP5 ADD MSTORE PUSH1 0x4 DUP2 ADD SLOAD PUSH1 0xA0 DUP5 ADD MSTORE PUSH1 0x5 DUP2 ADD SLOAD PUSH1 0xC0 DUP5 ADD MSTORE PUSH1 0x6 DUP2 ADD SLOAD PUSH1 0xE0 DUP5 ADD DUP2 SWAP1 MSTORE PUSH1 0x7 DUP3 ADD SLOAD SWAP5 DUP5 ADD DUP6 SWAP1 MSTORE PUSH1 0x8 DUP3 ADD SLOAD PUSH2 0x120 DUP6 ADD DUP2 SWAP1 MSTORE PUSH1 0x9 DUP4 ADD SLOAD PUSH2 0x140 DUP7 ADD MSTORE PUSH1 0xA SWAP1 SWAP3 ADD SLOAD SWAP1 SWAP3 AND ISZERO ISZERO PUSH2 0x160 DUP5 ADD MSTORE SWAP2 SWAP4 POP SWAP2 PUSH2 0x8FA SWAP2 PUSH2 0x1F80 JUMP JUMPDEST PUSH2 0x904 SWAP2 SWAP1 PUSH2 0x1F4D JUMP JUMPDEST PUSH2 0x90F SWAP1 PUSH1 0x1 PUSH2 0x1F35 JUMP JUMPDEST SWAP4 SWAP3 POP POP POP JUMP JUMPDEST PUSH1 0x0 DUP1 PUSH1 0x0 DUP4 DUP2 SLOAD DUP2 LT PUSH2 0x93A JUMPI PUSH4 0x4E487B71 PUSH1 0xE0 SHL PUSH1 0x0 MSTORE PUSH1 0x32 PUSH1 0x4 MSTORE PUSH1 0x24 PUSH1 0x0 REVERT JUMPDEST SWAP1 PUSH1 0x0 MSTORE PUSH1 0x20 PUSH1 0x0 KECCAK256 SWAP1 PUSH1 0xB MUL ADD SWAP1 POP PUSH2 0x953 DUP4 PUSH2 0x11D7 JUMP JUMPDEST ISZERO PUSH2 0x9AC JUMPI PUSH1 0x40 MLOAD PUSH3 0x461BCD PUSH1 0xE5 SHL DUP2 MSTORE PUSH1 0x20 PUSH1 0x4 DUP3 ADD MSTORE PUSH1 0x24 DUP1 DUP3 ADD MSTORE PUSH32 0x74686973207061796D656E742061677265656D656E7420686173206465666175 PUSH1 0x44 DUP3 ADD MSTORE PUSH4 0x1B1D1959 PUSH1 0xE2 SHL PUSH1 0x64 DUP3 ADD MSTORE PUSH1 0x84 ADD PUSH2 0x548 JUMP JUMPDEST PUSH1 0x0 DUP2 PUSH1 0x5 ADD SLOAD TIMESTAMP PUSH2 0x9BE SWAP2 SWAP1 PUSH2 0x1F80 JUMP JUMPDEST SWAP1 POP PUSH1 0x0 PUSH2 0x9CF PUSH3 0x278D00 DUP4 PUSH2 0x1F4D JUMP JUMPDEST SWAP1 POP PUSH1 0x0 PUSH2 0x9DC DUP7 PUSH2 0x80F JUMP JUMPDEST SWAP1 POP PUSH1 0x0 DUP5 PUSH1 0x9 ADD SLOAD DUP4 PUSH1 0x1 PUSH2 0x9F2 SWAP2 SWAP1 PUSH2 0x1F35 JUMP JUMPDEST PUSH2 0x9FC SWAP1 DUP5 PUSH2 0x1F61 JUMP JUMPDEST PUSH2 0x4B3 SWAP2 SWAP1 PUSH2 0x1F80 JUMP JUMPDEST PUSH1 0x0 DUP1 DUP3 DUP2 SLOAD DUP2 LT PUSH2 0xA28 JUMPI PUSH4 0x4E487B71 PUSH1 0xE0 SHL PUSH1 0x0 MSTORE PUSH1 0x32 PUSH1 0x4 MSTORE PUSH1 0x24 PUSH1 0x0 REVERT JUMPDEST PUSH1 0x0 SWAP2 DUP3 MSTORE PUSH1 0x20 SWAP1 SWAP2 KECCAK256 PUSH1 0xB SWAP1 SWAP2 MUL ADD DUP1 SLOAD SWAP1 SWAP2 POP PUSH2 0x100 SWAP1 DIV PUSH1 0x1 PUSH1 0x1 PUSH1 0xA0 SHL SUB AND CALLER EQ PUSH2 0xA69 JUMPI PUSH1 0x40 MLOAD PUSH3 0x461BCD PUSH1 0xE5 SHL DUP2 MSTORE PUSH1 0x4 ADD PUSH2 0x548 SWAP1 PUSH2 0x1EB2 JUMP JUMPDEST PUSH1 0x0 PUSH1 0x1 DUP4 DUP2 SLOAD DUP2 LT PUSH2 0xA8C JUMPI PUSH4 0x4E487B71 PUSH1 0xE0 SHL PUSH1 0x0 MSTORE PUSH1 0x32 PUSH1 0x4 MSTORE PUSH1 0x24 PUSH1 0x0 REVERT JUMPDEST SWAP1 PUSH1 0x0 MSTORE PUSH1 0x20 PUSH1 0x0 KECCAK256 ADD SLOAD GT PUSH2 0xAE4 JUMPI PUSH1 0x40 MLOAD PUSH3 0x461BCD PUSH1 0xE5 SHL DUP2 MSTORE PUSH1 0x20 PUSH1 0x4 DUP3 ADD MSTORE PUSH1 0x1C PUSH1 0x24 DUP3 ADD MSTORE PUSH32 0x7468657265206973206E6F7468696E6720746F20776974686472617700000000 PUSH1 0x44 DUP3 ADD MSTORE PUSH1 0x64 ADD PUSH2 0x548 JUMP JUMPDEST PUSH1 0x0 PUSH1 0x1 DUP4 DUP2 SLOAD DUP2 LT PUSH2 0xB07 JUMPI PUSH4 0x4E487B71 PUSH1 0xE0 SHL PUSH1 0x0 MSTORE PUSH1 0x32 PUSH1 0x4 MSTORE PUSH1 0x24 PUSH1 0x0 REVERT JUMPDEST SWAP1 PUSH1 0x0 MSTORE PUSH1 0x20 PUSH1 0x0 KECCAK256 ADD SLOAD SWAP1 POP PUSH1 0x0 PUSH1 0x1 DUP5 DUP2 SLOAD DUP2 LT PUSH2 0xB37 JUMPI PUSH4 0x4E487B71 PUSH1 0xE0 SHL PUSH1 0x0 MSTORE PUSH1 0x32 PUSH1 0x4 MSTORE PUSH1 0x24 PUSH1 0x0 REVERT JUMPDEST PUSH1 0x0 SWAP2 DUP3 MSTORE PUSH1 0x20 DUP3 KECCAK256 ADD SWAP2 SWAP1 SWAP2 SSTORE PUSH1 0x40 MLOAD CALLER SWAP1 DUP4 SWAP1 DUP4 DUP2 DUP2 DUP2 DUP6 DUP8 GAS CALL SWAP3 POP POP POP RETURNDATASIZE DUP1 PUSH1 0x0 DUP2 EQ PUSH2 0xB84 JUMPI PUSH1 0x40 MLOAD SWAP2 POP PUSH1 0x1F NOT PUSH1 0x3F RETURNDATASIZE ADD AND DUP3 ADD PUSH1 0x40 MSTORE RETURNDATASIZE DUP3 MSTORE RETURNDATASIZE PUSH1 0x0 PUSH1 0x20 DUP5 ADD RETURNDATACOPY PUSH2 0xB89 JUMP JUMPDEST PUSH1 0x60 SWAP2 POP JUMPDEST POP POP SWAP1 POP DUP1 PUSH2 0xBCC JUMPI PUSH1 0x40 MLOAD PUSH3 0x461BCD PUSH1 0xE5 SHL DUP2 MSTORE PUSH1 0x20 PUSH1 0x4 DUP3 ADD MSTORE PUSH1 0xF PUSH1 0x24 DUP3 ADD MSTORE PUSH15 0x1D1C985B9CD9995C8819985A5B1959 PUSH1 0x8A SHL PUSH1 0x44 DUP3 ADD MSTORE PUSH1 0x64 ADD PUSH2 0x548 JUMP JUMPDEST POP POP POP POP JUMP JUMPDEST PUSH1 0x0 DUP1 PUSH1 0x0 DUP4 DUP2 SLOAD DUP2 LT PUSH2 0xBF6 JUMPI PUSH4 0x4E487B71 PUSH1 0xE0 SHL PUSH1 0x0 MSTORE PUSH1 0x32 PUSH1 0x4 MSTORE PUSH1 0x24 PUSH1 0x0 REVERT JUMPDEST PUSH1 0x0 SWAP2 DUP3 MSTORE PUSH1 0x20 SWAP1 SWAP2 KECCAK256 PUSH1 0xB SWAP1 SWAP2 MUL ADD SLOAD PUSH1 0xFF AND SWAP4 SWAP3 POP POP POP JUMP JUMPDEST PUSH1 0x0 DUP1 DUP4 DUP2 SLOAD DUP2 LT PUSH2 0xC33 JUMPI PUSH4 0x4E487B71 PUSH1 0xE0 SHL PUSH1 0x0 MSTORE PUSH1 0x32 PUSH1 0x4 MSTORE PUSH1 0x24 PUSH1 0x0 REVERT JUMPDEST PUSH1 0x0 SWAP2 DUP3 MSTORE PUSH1 0x20 SWAP1 SWAP2 KECCAK256 PUSH1 0x1 PUSH1 0xB SWAP1 SWAP3 MUL ADD SWAP1 DUP2 ADD SLOAD SWAP1 SWAP2 POP PUSH1 0x1 PUSH1 0x1 PUSH1 0xA0 SHL SUB AND CALLER EQ PUSH2 0xCAD JUMPI PUSH1 0x40 MLOAD PUSH3 0x461BCD PUSH1 0xE5 SHL DUP2 MSTORE PUSH1 0x20 PUSH1 0x4 DUP3 ADD MSTORE PUSH1 0x21 PUSH1 0x24 DUP3 ADD MSTORE PUSH32 0x796F7520617265206E6F7420746865206275796572206F662074686973206E66 PUSH1 0x44 DUP3 ADD MSTORE PUSH1 0x1D PUSH1 0xFA SHL PUSH1 0x64 DUP3 ADD MSTORE PUSH1 0x84 ADD PUSH2 0x548 JUMP JUMPDEST PUSH2 0xCB6 DUP4 PUSH2 0x16CE JUMP JUMPDEST PUSH2 0xD02 JUMPI PUSH1 0x40 MLOAD PUSH3 0x461BCD PUSH1 0xE5 SHL DUP2 MSTORE PUSH1 0x20 PUSH1 0x4 DUP3 ADD MSTORE PUSH1 0x1E PUSH1 0x24 DUP3 ADD MSTORE PUSH32 0x74686973206E667420686173206E6F74206265656E2070616964206F66660000 PUSH1 0x44 DUP3 ADD MSTORE PUSH1 0x64 ADD PUSH2 0x548 JUMP JUMPDEST PUSH1 0x2 DUP2 ADD SLOAD PUSH1 0x3 DUP3 ADD SLOAD PUSH1 0x40 MLOAD PUSH4 0x23B872DD PUSH1 0xE0 SHL DUP2 MSTORE ADDRESS PUSH1 0x4 DUP3 ADD MSTORE PUSH1 0x1 PUSH1 0x1 PUSH1 0xA0 SHL SUB DUP6 DUP2 AND PUSH1 0x24 DUP4 ADD MSTORE PUSH1 0x44 DUP3 ADD SWAP3 SWAP1 SWAP3 MSTORE SWAP2 AND SWAP1 PUSH4 0x23B872DD SWAP1 PUSH1 0x64 ADD PUSH1 0x0 PUSH1 0x40 MLOAD DUP1 DUP4 SUB DUP2 PUSH1 0x0 DUP8 DUP1 EXTCODESIZE ISZERO DUP1 ISZERO PUSH2 0xD5D JUMPI PUSH1 0x0 DUP1 REVERT JUMPDEST POP GAS CALL ISZERO DUP1 ISZERO PUSH2 0xD71 JUMPI RETURNDATASIZE PUSH1 0x0 DUP1 RETURNDATACOPY RETURNDATASIZE PUSH1 0x0 REVERT JUMPDEST POP POP POP POP POP POP POP JUMP JUMPDEST PUSH1 0x40 MLOAD PUSH4 0x31A9108F PUSH1 0xE1 SHL DUP2 MSTORE PUSH1 0x4 DUP2 ADD DUP6 SWAP1 MSTORE CALLER SWAP1 PUSH1 0x1 PUSH1 0x1 PUSH1 0xA0 SHL SUB DUP8 AND SWAP1 PUSH4 0x6352211E SWAP1 PUSH1 0x24 ADD PUSH1 0x20 PUSH1 0x40 MLOAD DUP1 DUP4 SUB DUP2 DUP7 DUP1 EXTCODESIZE ISZERO DUP1 ISZERO PUSH2 0xDBC JUMPI PUSH1 0x0 DUP1 REVERT JUMPDEST POP GAS STATICCALL ISZERO DUP1 ISZERO PUSH2 0xDD0 JUMPI RETURNDATASIZE PUSH1 0x0 DUP1 RETURNDATACOPY RETURNDATASIZE PUSH1 0x0 REVERT JUMPDEST POP POP POP POP PUSH1 0x40 MLOAD RETURNDATASIZE PUSH1 0x1F NOT PUSH1 0x1F DUP3 ADD AND DUP3 ADD DUP1 PUSH1 0x40 MSTORE POP DUP2 ADD SWAP1 PUSH2 0xDF4 SWAP2 SWAP1 PUSH2 0x1DC8 JUMP JUMPDEST PUSH1 0x1 PUSH1 0x1 PUSH1 0xA0 SHL SUB AND EQ PUSH2 0xE1A JUMPI PUSH1 0x40 MLOAD PUSH3 0x461BCD PUSH1 0xE5 SHL DUP2 MSTORE PUSH1 0x4 ADD PUSH2 0x548 SWAP1 PUSH2 0x1EF4 JUMP JUMPDEST PUSH1 0x40 MLOAD PUSH4 0x20604BF PUSH1 0xE2 SHL DUP2 MSTORE PUSH1 0x4 DUP2 ADD DUP6 SWAP1 MSTORE ADDRESS SWAP1 PUSH1 0x1 PUSH1 0x1 PUSH1 0xA0 SHL SUB DUP8 AND SWAP1 PUSH4 0x81812FC SWAP1 PUSH1 0x24 ADD PUSH1 0x20 PUSH1 0x40 MLOAD DUP1 DUP4 SUB DUP2 DUP7 DUP1 EXTCODESIZE ISZERO DUP1 ISZERO PUSH2 0xE5C JUMPI PUSH1 0x0 DUP1 REVERT JUMPDEST POP GAS STATICCALL ISZERO DUP1 ISZERO PUSH2 0xE70 JUMPI RETURNDATASIZE PUSH1 0x0 DUP1 RETURNDATACOPY RETURNDATASIZE PUSH1 0x0 REVERT JUMPDEST POP POP POP POP PUSH1 0x40 MLOAD RETURNDATASIZE PUSH1 0x1F NOT PUSH1 0x1F DUP3 ADD AND DUP3 ADD DUP1 PUSH1 0x40 MSTORE POP DUP2 ADD SWAP1 PUSH2 0xE94 SWAP2 SWAP1 PUSH2 0x1DC8 JUMP JUMPDEST PUSH1 0x1 PUSH1 0x1 PUSH1 0xA0 SHL SUB AND EQ PUSH2 0xF00 JUMPI PUSH1 0x40 MLOAD PUSH3 0x461BCD PUSH1 0xE5 SHL DUP2 MSTORE PUSH1 0x20 PUSH1 0x4 DUP3 ADD MSTORE PUSH1 0x2D PUSH1 0x24 DUP3 ADD MSTORE PUSH32 0x7468697320636F6E747261637420686173206E6F74206265656E20617070726F PUSH1 0x44 DUP3 ADD MSTORE PUSH13 0x3B32B210313C9039B2B63632B9 PUSH1 0x99 SHL PUSH1 0x64 DUP3 ADD MSTORE PUSH1 0x84 ADD PUSH2 0x548 JUMP JUMPDEST PUSH1 0x0 DUP4 GT PUSH2 0xF0D JUMPI PUSH1 0x0 DUP1 REVERT JUMPDEST PUSH1 0x0 PUSH2 0xF1C PUSH3 0x278D00 DUP6 PUSH2 0x1F61 JUMP JUMPDEST SWAP1 POP PUSH2 0xF29 PUSH1 0x1E DUP3 PUSH2 0x1FB2 JUMP JUMPDEST ISZERO PUSH2 0xF33 JUMPI PUSH1 0x0 DUP1 REVERT JUMPDEST PUSH1 0x0 PUSH1 0x40 MLOAD DUP1 PUSH2 0x180 ADD PUSH1 0x40 MSTORE DUP1 PUSH1 0x1 ISZERO ISZERO DUP2 MSTORE PUSH1 0x20 ADD CALLER PUSH1 0x1 PUSH1 0x1 PUSH1 0xA0 SHL SUB AND DUP2 MSTORE PUSH1 0x20 ADD PUSH1 0x0 PUSH1 0x1 PUSH1 0x1 PUSH1 0xA0 SHL SUB AND DUP2 MSTORE PUSH1 0x20 ADD DUP9 PUSH1 0x1 PUSH1 0x1 PUSH1 0xA0 SHL SUB AND DUP2 MSTORE PUSH1 0x20 ADD DUP8 DUP2 MSTORE PUSH1 0x20 ADD DUP4 DUP2 MSTORE PUSH1 0x20 ADD PUSH1 0x0 DUP2 MSTORE PUSH1 0x20 ADD DUP7 DUP2 MSTORE PUSH1 0x20 ADD DUP5 DUP2 MSTORE PUSH1 0x20 ADD DUP6 DUP2 MSTORE PUSH1 0x20 ADD PUSH1 0x0 DUP2 MSTORE PUSH1 0x20 ADD PUSH1 0x0 ISZERO ISZERO DUP2 MSTORE POP SWAP1 POP PUSH1 0x0 DUP2 SWAP1 DUP1 PUSH1 0x1 DUP2 SLOAD ADD DUP1 DUP3 SSTORE DUP1 SWAP2 POP POP PUSH1 0x1 SWAP1 SUB SWAP1 PUSH1 0x0 MSTORE PUSH1 0x20 PUSH1 0x0 KECCAK256 SWAP1 PUSH1 0xB MUL ADD PUSH1 0x0 SWAP1 SWAP2 SWAP1 SWAP2 SWAP1 SWAP2 POP PUSH1 0x0 DUP3 ADD MLOAD DUP2 PUSH1 0x0 ADD PUSH1 0x0 PUSH2 0x100 EXP DUP2 SLOAD DUP2 PUSH1 0xFF MUL NOT AND SWAP1 DUP4 ISZERO ISZERO MUL OR SWAP1 SSTORE POP PUSH1 0x20 DUP3 ADD MLOAD DUP2 PUSH1 0x0 ADD PUSH1 0x1 PUSH2 0x100 EXP DUP2 SLOAD DUP2 PUSH1 0x1 PUSH1 0x1 PUSH1 0xA0 SHL SUB MUL NOT AND SWAP1 DUP4 PUSH1 0x1 PUSH1 0x1 PUSH1 0xA0 SHL SUB AND MUL OR SWAP1 SSTORE POP PUSH1 0x40 DUP3 ADD MLOAD DUP2 PUSH1 0x1 ADD PUSH1 0x0 PUSH2 0x100 EXP DUP2 SLOAD DUP2 PUSH1 0x1 PUSH1 0x1 PUSH1 0xA0 SHL SUB MUL NOT AND SWAP1 DUP4 PUSH1 0x1 PUSH1 0x1 PUSH1 0xA0 SHL SUB AND MUL OR SWAP1 SSTORE POP PUSH1 0x60 DUP3 ADD MLOAD DUP2 PUSH1 0x2 ADD PUSH1 0x0 PUSH2 0x100 EXP DUP2 SLOAD DUP2 PUSH1 0x1 PUSH1 0x1 PUSH1 0xA0 SHL SUB MUL NOT AND SWAP1 DUP4 PUSH1 0x1 PUSH1 0x1 PUSH1 0xA0 SHL SUB AND MUL OR SWAP1 SSTORE POP PUSH1 0x80 DUP3 ADD MLOAD DUP2 PUSH1 0x3 ADD SSTORE PUSH1 0xA0 DUP3 ADD MLOAD DUP2 PUSH1 0x4 ADD SSTORE PUSH1 0xC0 DUP3 ADD MLOAD DUP2 PUSH1 0x5 ADD SSTORE PUSH1 0xE0 DUP3 ADD MLOAD DUP2 PUSH1 0x6 ADD SSTORE PUSH2 0x100 DUP3 ADD MLOAD DUP2 PUSH1 0x7 ADD SSTORE PUSH2 0x120 DUP3 ADD MLOAD DUP2 PUSH1 0x8 ADD SSTORE PUSH2 0x140 DUP3 ADD MLOAD DUP2 PUSH1 0x9 ADD SSTORE PUSH2 0x160 DUP3 ADD MLOAD DUP2 PUSH1 0xA ADD PUSH1 0x0 PUSH2 0x100 EXP DUP2 SLOAD DUP2 PUSH1 0xFF MUL NOT AND SWAP1 DUP4 ISZERO ISZERO MUL OR SWAP1 SSTORE POP POP POP PUSH1 0x1 PUSH1 0x0 SWAP1 DUP1 PUSH1 0x1 DUP2 SLOAD ADD DUP1 DUP3 SSTORE DUP1 SWAP2 POP POP PUSH1 0x1 SWAP1 SUB SWAP1 PUSH1 0x0 MSTORE PUSH1 0x20 PUSH1 0x0 KECCAK256 ADD PUSH1 0x0 SWAP1 SWAP2 SWAP1 SWAP2 SWAP1 SWAP2 POP SSTORE POP POP POP POP POP POP POP JUMP JUMPDEST PUSH1 0x0 DUP1 DUP4 DUP2 SLOAD DUP2 LT PUSH2 0x1141 JUMPI PUSH4 0x4E487B71 PUSH1 0xE0 SHL PUSH1 0x0 MSTORE PUSH1 0x32 PUSH1 0x4 MSTORE PUSH1 0x24 PUSH1 0x0 REVERT JUMPDEST PUSH1 0x0 SWAP2 DUP3 MSTORE PUSH1 0x20 SWAP1 SWAP2 KECCAK256 PUSH1 0xB SWAP1 SWAP2 MUL ADD DUP1 SLOAD SWAP1 SWAP2 POP PUSH2 0x100 SWAP1 DIV PUSH1 0x1 PUSH1 0x1 PUSH1 0xA0 SHL SUB AND CALLER EQ PUSH2 0x1182 JUMPI PUSH1 0x40 MLOAD PUSH3 0x461BCD PUSH1 0xE5 SHL DUP2 MSTORE PUSH1 0x4 ADD PUSH2 0x548 SWAP1 PUSH2 0x1EB2 JUMP JUMPDEST PUSH2 0x118B DUP4 PUSH2 0x11D7 JUMP JUMPDEST PUSH2 0xD02 JUMPI PUSH1 0x40 MLOAD PUSH3 0x461BCD PUSH1 0xE5 SHL DUP2 MSTORE PUSH1 0x20 PUSH1 0x4 DUP3 ADD MSTORE PUSH1 0x1D PUSH1 0x24 DUP3 ADD MSTORE PUSH32 0x746869732073656C6C657220686173206E6F742064656661756C746564000000 PUSH1 0x44 DUP3 ADD MSTORE PUSH1 0x64 ADD PUSH2 0x548 JUMP JUMPDEST PUSH1 0x0 DUP1 PUSH1 0x0 DUP4 DUP2 SLOAD DUP2 LT PUSH2 0x11FB JUMPI PUSH4 0x4E487B71 PUSH1 0xE0 SHL PUSH1 0x0 MSTORE PUSH1 0x32 PUSH1 0x4 MSTORE PUSH1 0x24 PUSH1 0x0 REVERT JUMPDEST PUSH1 0x0 SWAP2 DUP3 MSTORE PUSH1 0x20 DUP1 DUP4 KECCAK256 PUSH1 0x40 DUP1 MLOAD PUSH2 0x180 DUP2 ADD DUP3 MSTORE PUSH1 0xB SWAP1 SWAP5 MUL SWAP1 SWAP2 ADD DUP1 SLOAD PUSH1 0xFF DUP1 DUP3 AND ISZERO ISZERO DUP7 MSTORE PUSH1 0x1 PUSH1 0x1 PUSH1 0xA0 SHL SUB PUSH2 0x100 SWAP3 DUP4 SWAP1 DIV DUP2 AND SWAP6 DUP8 ADD SWAP6 SWAP1 SWAP6 MSTORE PUSH1 0x1 DUP4 ADD SLOAD DUP6 AND SWAP4 DUP7 ADD SWAP4 SWAP1 SWAP4 MSTORE PUSH1 0x2 DUP3 ADD SLOAD SWAP1 SWAP4 AND PUSH1 0x60 DUP6 ADD MSTORE PUSH1 0x3 DUP2 ADD SLOAD PUSH1 0x80 DUP6 ADD MSTORE PUSH1 0x4 DUP2 ADD SLOAD PUSH1 0xA0 DUP6 ADD MSTORE PUSH1 0x5 DUP2 ADD SLOAD PUSH1 0xC0 DUP6 ADD DUP2 SWAP1 MSTORE PUSH1 0x6 DUP3 ADD SLOAD PUSH1 0xE0 DUP7 ADD MSTORE PUSH1 0x7 DUP3 ADD SLOAD SWAP4 DUP6 ADD SWAP4 SWAP1 SWAP4 MSTORE PUSH1 0x8 DUP2 ADD SLOAD PUSH2 0x120 DUP6 ADD MSTORE PUSH1 0x9 DUP2 ADD SLOAD PUSH2 0x140 DUP6 ADD MSTORE PUSH1 0xA ADD SLOAD AND ISZERO ISZERO PUSH2 0x160 DUP4 ADD MSTORE SWAP1 SWAP3 POP PUSH2 0x12BC SWAP1 TIMESTAMP PUSH2 0x1F80 JUMP JUMPDEST SWAP1 POP PUSH1 0x0 PUSH2 0x12CD PUSH3 0x278D00 DUP4 PUSH2 0x1F4D JUMP JUMPDEST SWAP1 POP DUP3 PUSH1 0xE0 ADD MLOAD DUP2 LT PUSH2 0x12EE JUMPI PUSH1 0x1 DUP4 PUSH1 0xE0 ADD MLOAD PUSH2 0x12EB SWAP2 SWAP1 PUSH2 0x1F80 JUMP JUMPDEST SWAP1 POP JUMPDEST PUSH1 0x0 PUSH2 0x12F9 DUP7 PUSH2 0x80F JUMP JUMPDEST SWAP1 POP PUSH1 0x0 DUP5 PUSH2 0x140 ADD MLOAD DUP4 PUSH1 0x1 PUSH2 0x1310 SWAP2 SWAP1 PUSH2 0x1F35 JUMP JUMPDEST PUSH2 0x131A SWAP1 DUP5 PUSH2 0x1F61 JUMP JUMPDEST PUSH2 0x1324 SWAP2 SWAP1 PUSH2 0x1F80 JUMP JUMPDEST SWAP1 POP DUP2 DUP2 GT ISZERO PUSH2 0x133B JUMPI POP PUSH1 0x1 SWAP7 SWAP6 POP POP POP POP POP POP JUMP JUMPDEST POP PUSH1 0x0 SWAP7 SWAP6 POP POP POP POP POP POP JUMP JUMPDEST PUSH1 0x0 DUP1 DUP3 DUP2 SLOAD DUP2 LT PUSH2 0x136A JUMPI PUSH4 0x4E487B71 PUSH1 0xE0 SHL PUSH1 0x0 MSTORE PUSH1 0x32 PUSH1 0x4 MSTORE PUSH1 0x24 PUSH1 0x0 REVERT JUMPDEST PUSH1 0x0 SWAP2 DUP3 MSTORE PUSH1 0x20 SWAP1 SWAP2 KECCAK256 PUSH1 0xB SWAP1 SWAP2 MUL ADD DUP1 SLOAD SWAP1 SWAP2 POP PUSH1 0xFF AND ISZERO PUSH2 0x13CF JUMPI PUSH1 0x40 MLOAD PUSH3 0x461BCD PUSH1 0xE5 SHL DUP2 MSTORE PUSH1 0x20 PUSH1 0x4 DUP3 ADD DUP2 SWAP1 MSTORE PUSH1 0x24 DUP3 ADD MSTORE PUSH32 0x74686973206C697374696E6720697320616C726561647920696E616374697665 PUSH1 0x44 DUP3 ADD MSTORE PUSH1 0x64 ADD PUSH2 0x548 JUMP JUMPDEST DUP1 SLOAD PUSH2 0x100 SWAP1 DIV PUSH1 0x1 PUSH1 0x1 PUSH1 0xA0 SHL SUB AND CALLER EQ PUSH2 0x1428 JUMPI PUSH1 0x40 MLOAD PUSH3 0x461BCD PUSH1 0xE5 SHL DUP2 MSTORE PUSH1 0x20 PUSH1 0x4 DUP3 ADD MSTORE PUSH1 0x18 PUSH1 0x24 DUP3 ADD MSTORE PUSH24 0x74686973206973206E6F7420796F7572206C697374696E67 PUSH1 0x40 SHL PUSH1 0x44 DUP3 ADD MSTORE PUSH1 0x64 ADD PUSH2 0x548 JUMP JUMPDEST PUSH1 0x2 DUP2 ADD SLOAD PUSH1 0x3 DUP3 ADD SLOAD PUSH1 0x40 MLOAD PUSH4 0x31A9108F PUSH1 0xE1 SHL DUP2 MSTORE PUSH1 0x4 DUP2 ADD SWAP2 SWAP1 SWAP2 MSTORE CALLER SWAP2 PUSH1 0x1 PUSH1 0x1 PUSH1 0xA0 SHL SUB AND SWAP1 PUSH4 0x6352211E SWAP1 PUSH1 0x24 ADD PUSH1 0x20 PUSH1 0x40 MLOAD DUP1 DUP4 SUB DUP2 DUP7 DUP1 EXTCODESIZE ISZERO DUP1 ISZERO PUSH2 0x1474 JUMPI PUSH1 0x0 DUP1 REVERT JUMPDEST POP GAS STATICCALL ISZERO DUP1 ISZERO PUSH2 0x1488 JUMPI RETURNDATASIZE PUSH1 0x0 DUP1 RETURNDATACOPY RETURNDATASIZE PUSH1 0x0 REVERT JUMPDEST POP POP POP POP PUSH1 0x40 MLOAD RETURNDATASIZE PUSH1 0x1F NOT PUSH1 0x1F DUP3 ADD AND DUP3 ADD DUP1 PUSH1 0x40 MSTORE POP DUP2 ADD SWAP1 PUSH2 0x14AC SWAP2 SWAP1 PUSH2 0x1DC8 JUMP JUMPDEST PUSH1 0x1 PUSH1 0x1 PUSH1 0xA0 SHL SUB AND EQ PUSH2 0x14D2 JUMPI PUSH1 0x40 MLOAD PUSH3 0x461BCD PUSH1 0xE5 SHL DUP2 MSTORE PUSH1 0x4 ADD PUSH2 0x548 SWAP1 PUSH2 0x1EF4 JUMP JUMPDEST PUSH1 0x2 DUP2 ADD SLOAD PUSH1 0x3 DUP3 ADD SLOAD PUSH1 0x40 MLOAD PUSH4 0x20604BF PUSH1 0xE2 SHL DUP2 MSTORE PUSH1 0x4 DUP2 ADD SWAP2 SWAP1 SWAP2 MSTORE ADDRESS SWAP2 PUSH1 0x1 PUSH1 0x1 PUSH1 0xA0 SHL SUB AND SWAP1 PUSH4 0x81812FC SWAP1 PUSH1 0x24 ADD PUSH1 0x20 PUSH1 0x40 MLOAD DUP1 DUP4 SUB DUP2 DUP7 DUP1 EXTCODESIZE ISZERO DUP1 ISZERO PUSH2 0x151E JUMPI PUSH1 0x0 DUP1 REVERT JUMPDEST POP GAS STATICCALL ISZERO DUP1 ISZERO PUSH2 0x1532 JUMPI RETURNDATASIZE PUSH1 0x0 DUP1 RETURNDATACOPY RETURNDATASIZE PUSH1 0x0 REVERT JUMPDEST POP POP POP POP PUSH1 0x40 MLOAD RETURNDATASIZE PUSH1 0x1F NOT PUSH1 0x1F DUP3 ADD AND DUP3 ADD DUP1 PUSH1 0x40 MSTORE POP DUP2 ADD SWAP1 PUSH2 0x1556 SWAP2 SWAP1 PUSH2 0x1DC8 JUMP JUMPDEST PUSH1 0x1 PUSH1 0x1 PUSH1 0xA0 SHL SUB AND EQ PUSH2 0x15C1 JUMPI PUSH1 0x40 MLOAD PUSH3 0x461BCD PUSH1 0xE5 SHL DUP2 MSTORE PUSH1 0x20 PUSH1 0x4 DUP3 ADD MSTORE PUSH1 0x2C PUSH1 0x24 DUP3 ADD MSTORE PUSH32 0x74686973206164647265737320686173206E6F74206265656E20617070726F76 PUSH1 0x44 DUP3 ADD MSTORE PUSH12 0x32B210313C9039B2B63632B9 PUSH1 0xA1 SHL PUSH1 0x64 DUP3 ADD MSTORE PUSH1 0x84 ADD PUSH2 0x548 JUMP JUMPDEST DUP1 SLOAD PUSH1 0xFF NOT AND PUSH1 0x1 OR SWAP1 SSTORE POP JUMP JUMPDEST PUSH1 0x60 PUSH1 0x0 DUP1 DUP4 DUP2 SLOAD DUP2 LT PUSH2 0x15F3 JUMPI PUSH4 0x4E487B71 PUSH1 0xE0 SHL PUSH1 0x0 MSTORE PUSH1 0x32 PUSH1 0x4 MSTORE PUSH1 0x24 PUSH1 0x0 REVERT JUMPDEST SWAP1 PUSH1 0x0 MSTORE PUSH1 0x20 PUSH1 0x0 KECCAK256 SWAP1 PUSH1 0xB MUL ADD SWAP1 POP PUSH1 0x0 DUP2 PUSH1 0x6 ADD SLOAD SWAP1 POP PUSH1 0x0 DUP2 PUSH8 0xFFFFFFFFFFFFFFFF DUP2 GT ISZERO PUSH2 0x1635 JUMPI PUSH4 0x4E487B71 PUSH1 0xE0 SHL PUSH1 0x0 MSTORE PUSH1 0x41 PUSH1 0x4 MSTORE PUSH1 0x24 PUSH1 0x0 REVERT JUMPDEST PUSH1 0x40 MLOAD SWAP1 DUP1 DUP3 MSTORE DUP1 PUSH1 0x20 MUL PUSH1 0x20 ADD DUP3 ADD PUSH1 0x40 MSTORE DUP1 ISZERO PUSH2 0x165E JUMPI DUP2 PUSH1 0x20 ADD PUSH1 0x20 DUP3 MUL DUP1 CALLDATASIZE DUP4 CALLDATACOPY ADD SWAP1 POP JUMPDEST POP SWAP1 POP PUSH1 0x0 JUMPDEST DUP3 DUP2 LT ISZERO PUSH2 0x16C5 JUMPI PUSH2 0x1679 PUSH3 0x278D00 DUP3 PUSH2 0x1F61 JUMP JUMPDEST DUP5 PUSH1 0x5 ADD SLOAD PUSH2 0x1688 SWAP2 SWAP1 PUSH2 0x1F35 JUMP JUMPDEST DUP3 DUP3 DUP2 MLOAD DUP2 LT PUSH2 0x16A8 JUMPI PUSH4 0x4E487B71 PUSH1 0xE0 SHL PUSH1 0x0 MSTORE PUSH1 0x32 PUSH1 0x4 MSTORE PUSH1 0x24 PUSH1 0x0 REVERT JUMPDEST PUSH1 0x20 SWAP1 DUP2 MUL SWAP2 SWAP1 SWAP2 ADD ADD MSTORE DUP1 PUSH2 0x16BD DUP2 PUSH2 0x1F97 JUMP JUMPDEST SWAP2 POP POP PUSH2 0x1664 JUMP JUMPDEST POP SWAP5 SWAP4 POP POP POP POP JUMP JUMPDEST PUSH1 0x0 DUP1 PUSH1 0x0 DUP4 DUP2 SLOAD DUP2 LT PUSH2 0x16F2 JUMPI PUSH4 0x4E487B71 PUSH1 0xE0 SHL PUSH1 0x0 MSTORE PUSH1 0x32 PUSH1 0x4 MSTORE PUSH1 0x24 PUSH1 0x0 REVERT JUMPDEST PUSH1 0x0 SWAP2 DUP3 MSTORE PUSH1 0x20 SWAP2 DUP3 SWAP1 KECCAK256 PUSH1 0x40 DUP1 MLOAD PUSH2 0x180 DUP2 ADD DUP3 MSTORE PUSH1 0xB SWAP1 SWAP4 MUL SWAP1 SWAP2 ADD DUP1 SLOAD PUSH1 0xFF DUP1 DUP3 AND ISZERO ISZERO DUP6 MSTORE PUSH1 0x1 PUSH1 0x1 PUSH1 0xA0 SHL SUB PUSH2 0x100 SWAP3 DUP4 SWAP1 DIV DUP2 AND SWAP7 DUP7 ADD SWAP7 SWAP1 SWAP7 MSTORE PUSH1 0x1 DUP4 ADD SLOAD DUP7 AND SWAP4 DUP6 ADD SWAP4 SWAP1 SWAP4 MSTORE PUSH1 0x2 DUP3 ADD SLOAD SWAP1 SWAP5 AND PUSH1 0x60 DUP5 ADD MSTORE PUSH1 0x3 DUP2 ADD SLOAD PUSH1 0x80 DUP5 ADD MSTORE PUSH1 0x4 DUP2 ADD SLOAD PUSH1 0xA0 DUP5 ADD MSTORE PUSH1 0x5 DUP2 ADD SLOAD PUSH1 0xC0 DUP5 ADD MSTORE PUSH1 0x6 DUP2 ADD SLOAD PUSH1 0xE0 DUP5 ADD MSTORE PUSH1 0x7 DUP2 ADD SLOAD SWAP4 DUP4 ADD SWAP4 SWAP1 SWAP4 MSTORE PUSH1 0x8 DUP4 ADD SLOAD PUSH2 0x120 DUP4 ADD DUP2 SWAP1 MSTORE PUSH1 0x9 DUP5 ADD SLOAD PUSH2 0x140 DUP5 ADD DUP2 SWAP1 MSTORE PUSH1 0xA SWAP1 SWAP5 ADD SLOAD SWAP1 SWAP2 AND ISZERO ISZERO PUSH2 0x160 DUP4 ADD MSTORE SWAP1 SWAP3 POP GT PUSH2 0x17BE JUMPI POP PUSH1 0x1 SWAP3 SWAP2 POP POP JUMP JUMPDEST POP PUSH1 0x0 SWAP3 SWAP2 POP POP JUMP JUMPDEST PUSH1 0x0 DUP1 DUP3 DUP2 SLOAD DUP2 LT PUSH2 0x17E9 JUMPI PUSH4 0x4E487B71 PUSH1 0xE0 SHL PUSH1 0x0 MSTORE PUSH1 0x32 PUSH1 0x4 MSTORE PUSH1 0x24 PUSH1 0x0 REVERT JUMPDEST PUSH1 0x0 SWAP2 DUP3 MSTORE PUSH1 0x20 SWAP1 SWAP2 KECCAK256 PUSH1 0xB SWAP1 SWAP2 MUL ADD DUP1 SLOAD SWAP1 SWAP2 POP PUSH1 0xFF AND PUSH2 0x184D JUMPI PUSH1 0x40 MLOAD PUSH3 0x461BCD PUSH1 0xE5 SHL DUP2 MSTORE PUSH1 0x20 PUSH1 0x4 DUP3 ADD MSTORE PUSH1 0x1D PUSH1 0x24 DUP3 ADD MSTORE PUSH32 0x74686973206C697374696E67206973206E6F7420617661696C61626C65000000 PUSH1 0x44 DUP3 ADD MSTORE PUSH1 0x64 ADD PUSH2 0x548 JUMP JUMPDEST PUSH1 0xA DUP2 ADD SLOAD PUSH1 0xFF AND ISZERO PUSH2 0x18B4 JUMPI PUSH1 0x40 MLOAD PUSH3 0x461BCD PUSH1 0xE5 SHL DUP2 MSTORE PUSH1 0x20 PUSH1 0x4 DUP3 ADD MSTORE PUSH1 0x29 PUSH1 0x24 DUP3 ADD MSTORE PUSH32 0x546865726520697320616C7265616479206120627579657220666F7220746869 PUSH1 0x44 DUP3 ADD MSTORE PUSH9 0x73206C697374696E67 PUSH1 0xB8 SHL PUSH1 0x64 DUP3 ADD MSTORE PUSH1 0x84 ADD PUSH2 0x548 JUMP JUMPDEST DUP1 PUSH1 0x7 ADD SLOAD CALLVALUE LT ISZERO PUSH2 0x191C JUMPI PUSH1 0x40 MLOAD PUSH3 0x461BCD PUSH1 0xE5 SHL DUP2 MSTORE PUSH1 0x20 PUSH1 0x4 DUP3 ADD MSTORE PUSH1 0x2B PUSH1 0x24 DUP3 ADD MSTORE PUSH32 0x446964206E6F742073656E6420656E6F75676820666F722074686520696E6974 PUSH1 0x44 DUP3 ADD MSTORE PUSH11 0x1A585B081C185E5B595B9D PUSH1 0xAA SHL PUSH1 0x64 DUP3 ADD MSTORE PUSH1 0x84 ADD PUSH2 0x548 JUMP JUMPDEST DUP1 SLOAD PUSH1 0x2 DUP3 ADD SLOAD PUSH1 0x3 DUP4 ADD SLOAD PUSH1 0x40 MLOAD PUSH4 0x31A9108F PUSH1 0xE1 SHL DUP2 MSTORE PUSH1 0x4 DUP2 ADD SWAP2 SWAP1 SWAP2 MSTORE PUSH2 0x100 SWAP1 SWAP3 DIV PUSH1 0x1 PUSH1 0x1 PUSH1 0xA0 SHL SUB SWAP1 DUP2 AND SWAP3 SWAP2 AND SWAP1 PUSH4 0x6352211E SWAP1 PUSH1 0x24 ADD PUSH1 0x20 PUSH1 0x40 MLOAD DUP1 DUP4 SUB DUP2 DUP7 DUP1 EXTCODESIZE ISZERO DUP1 ISZERO PUSH2 0x1973 JUMPI PUSH1 0x0 DUP1 REVERT JUMPDEST POP GAS STATICCALL ISZERO DUP1 ISZERO PUSH2 0x1987 JUMPI RETURNDATASIZE PUSH1 0x0 DUP1 RETURNDATACOPY RETURNDATASIZE PUSH1 0x0 REVERT JUMPDEST POP POP POP POP PUSH1 0x40 MLOAD RETURNDATASIZE PUSH1 0x1F NOT PUSH1 0x1F DUP3 ADD AND DUP3 ADD DUP1 PUSH1 0x40 MSTORE POP DUP2 ADD SWAP1 PUSH2 0x19AB SWAP2 SWAP1 PUSH2 0x1DC8 JUMP JUMPDEST PUSH1 0x1 PUSH1 0x1 PUSH1 0xA0 SHL SUB AND EQ PUSH2 0x1A13 JUMPI PUSH1 0x40 MLOAD PUSH3 0x461BCD PUSH1 0xE5 SHL DUP2 MSTORE PUSH1 0x20 PUSH1 0x4 DUP3 ADD MSTORE PUSH1 0x29 PUSH1 0x24 DUP3 ADD MSTORE PUSH32 0x73656C6C6572206973206E6F206C6F6E67657220746865206F776E6572206F66 PUSH1 0x44 DUP3 ADD MSTORE PUSH9 0x81D1A1A5CC81B999D PUSH1 0xBA SHL PUSH1 0x64 DUP3 ADD MSTORE PUSH1 0x84 ADD PUSH2 0x548 JUMP JUMPDEST PUSH1 0x2 DUP2 ADD SLOAD PUSH1 0x3 DUP3 ADD SLOAD PUSH1 0x40 MLOAD PUSH4 0x20604BF PUSH1 0xE2 SHL DUP2 MSTORE PUSH1 0x4 DUP2 ADD SWAP2 SWAP1 SWAP2 MSTORE ADDRESS SWAP2 PUSH1 0x1 PUSH1 0x1 PUSH1 0xA0 SHL SUB AND SWAP1 PUSH4 0x81812FC SWAP1 PUSH1 0x24 ADD PUSH1 0x20 PUSH1 0x40 MLOAD DUP1 DUP4 SUB DUP2 DUP7 DUP1 EXTCODESIZE ISZERO DUP1 ISZERO PUSH2 0x1A5F JUMPI PUSH1 0x0 DUP1 REVERT JUMPDEST POP GAS STATICCALL ISZERO DUP1 ISZERO PUSH2 0x1A73 JUMPI RETURNDATASIZE PUSH1 0x0 DUP1 RETURNDATACOPY RETURNDATASIZE PUSH1 0x0 REVERT JUMPDEST POP POP POP POP PUSH1 0x40 MLOAD RETURNDATASIZE PUSH1 0x1F NOT PUSH1 0x1F DUP3 ADD AND DUP3 ADD DUP1 PUSH1 0x40 MSTORE POP DUP2 ADD SWAP1 PUSH2 0x1A97 SWAP2 SWAP1 PUSH2 0x1DC8 JUMP JUMPDEST PUSH1 0x1 PUSH1 0x1 PUSH1 0xA0 SHL SUB AND EQ PUSH2 0x1AFD JUMPI PUSH1 0x40 MLOAD PUSH3 0x461BCD PUSH1 0xE5 SHL DUP2 MSTORE PUSH1 0x20 PUSH1 0x4 DUP3 ADD MSTORE PUSH1 0x27 PUSH1 0x24 DUP3 ADD MSTORE PUSH32 0x7468697320636F6E7472616374206973206E6F7420617070726F766564206279 PUSH1 0x44 DUP3 ADD MSTORE PUSH7 0x1039B2B63632B9 PUSH1 0xC9 SHL PUSH1 0x64 DUP3 ADD MSTORE PUSH1 0x84 ADD PUSH2 0x548 JUMP JUMPDEST PUSH1 0x2 DUP2 ADD SLOAD DUP2 SLOAD PUSH1 0x3 DUP4 ADD SLOAD PUSH1 0x40 MLOAD PUSH4 0x23B872DD PUSH1 0xE0 SHL DUP2 MSTORE PUSH1 0x1 PUSH1 0x1 PUSH1 0xA0 SHL SUB PUSH2 0x100 SWAP1 SWAP4 DIV DUP4 AND PUSH1 0x4 DUP3 ADD MSTORE ADDRESS PUSH1 0x24 DUP3 ADD MSTORE PUSH1 0x44 DUP2 ADD SWAP2 SWAP1 SWAP2 MSTORE SWAP2 AND SWAP1 PUSH4 0x23B872DD SWAP1 PUSH1 0x64 ADD PUSH1 0x0 PUSH1 0x40 MLOAD DUP1 DUP4 SUB DUP2 PUSH1 0x0 DUP8 DUP1 EXTCODESIZE ISZERO DUP1 ISZERO PUSH2 0x1B5F JUMPI PUSH1 0x0 DUP1 REVERT JUMPDEST POP GAS CALL ISZERO DUP1 ISZERO PUSH2 0x1B73 JUMPI RETURNDATASIZE PUSH1 0x0 DUP1 RETURNDATACOPY RETURNDATASIZE PUSH1 0x0 REVERT JUMPDEST POP POP POP POP PUSH1 0x2 DUP2 ADD SLOAD PUSH1 0x3 DUP3 ADD SLOAD PUSH1 0x40 MLOAD PUSH4 0x31A9108F PUSH1 0xE1 SHL DUP2 MSTORE PUSH1 0x4 DUP2 ADD SWAP2 SWAP1 SWAP2 MSTORE ADDRESS SWAP2 PUSH1 0x1 PUSH1 0x1 PUSH1 0xA0 SHL SUB AND SWAP1 PUSH4 0x6352211E SWAP1 PUSH1 0x24 ADD PUSH1 0x20 PUSH1 0x40 MLOAD DUP1 DUP4 SUB DUP2 DUP7 DUP1 EXTCODESIZE ISZERO DUP1 ISZERO PUSH2 0x1BC3 JUMPI PUSH1 0x0 DUP1 REVERT JUMPDEST POP GAS STATICCALL ISZERO DUP1 ISZERO PUSH2 0x1BD7 JUMPI RETURNDATASIZE PUSH1 0x0 DUP1 RETURNDATACOPY RETURNDATASIZE PUSH1 0x0 REVERT JUMPDEST POP POP POP POP PUSH1 0x40 MLOAD RETURNDATASIZE PUSH1 0x1F NOT PUSH1 0x1F DUP3 ADD AND DUP3 ADD DUP1 PUSH1 0x40 MSTORE POP DUP2 ADD SWAP1 PUSH2 0x1BFB SWAP2 SWAP1 PUSH2 0x1DC8 JUMP JUMPDEST PUSH1 0x1 PUSH1 0x1 PUSH1 0xA0 SHL SUB AND EQ PUSH2 0x1C6C JUMPI PUSH1 0x40 MLOAD PUSH3 0x461BCD PUSH1 0xE5 SHL DUP2 MSTORE PUSH1 0x20 PUSH1 0x4 DUP3 ADD MSTORE PUSH1 0x32 PUSH1 0x24 DUP3 ADD MSTORE PUSH32 0x636F756C64206E6F74207472616E73666572206E66742066726F6D206F776E65 PUSH1 0x44 DUP3 ADD MSTORE PUSH18 0x1C881D1BC81D1A1A5CC818DBDB9D1C9858DD PUSH1 0x72 SHL PUSH1 0x64 DUP3 ADD MSTORE PUSH1 0x84 ADD PUSH2 0x548 JUMP JUMPDEST CALLVALUE PUSH1 0x9 DUP3 ADD SSTORE PUSH1 0x1 DUP1 DUP3 ADD DUP1 SLOAD PUSH1 0x1 PUSH1 0x1 PUSH1 0xA0 SHL SUB NOT AND CALLER OR SWAP1 SSTORE PUSH1 0xA DUP3 ADD DUP1 SLOAD PUSH1 0xFF NOT AND SWAP1 SWAP2 OR SWAP1 SSTORE TIMESTAMP PUSH1 0x5 DUP3 ADD DUP2 SWAP1 SSTORE PUSH2 0x1CA7 JUMPI PUSH1 0x0 DUP1 REVERT JUMPDEST CALLVALUE PUSH1 0x1 DUP4 DUP2 SLOAD DUP2 LT PUSH2 0x1CC9 JUMPI PUSH4 0x4E487B71 PUSH1 0xE0 SHL PUSH1 0x0 MSTORE PUSH1 0x32 PUSH1 0x4 MSTORE PUSH1 0x24 PUSH1 0x0 REVERT JUMPDEST PUSH1 0x0 SWAP2 DUP3 MSTORE PUSH1 0x20 SWAP1 SWAP2 KECCAK256 ADD SSTORE POP POP JUMP JUMPDEST PUSH1 0x0 DUP1 PUSH1 0x0 DUP4 DUP2 SLOAD DUP2 LT PUSH2 0x1CFD JUMPI PUSH4 0x4E487B71 PUSH1 0xE0 SHL PUSH1 0x0 MSTORE PUSH1 0x32 PUSH1 0x4 MSTORE PUSH1 0x24 PUSH1 0x0 REVERT JUMPDEST SWAP1 PUSH1 0x0 MSTORE PUSH1 0x20 PUSH1 0x0 KECCAK256 SWAP1 PUSH1 0xB MUL ADD SWAP1 POP DUP1 PUSH1 0x4 ADD SLOAD DUP2 PUSH1 0x5 ADD SLOAD PUSH2 0x90F SWAP2 SWAP1 PUSH2 0x1F35 JUMP JUMPDEST PUSH1 0x0 DUP2 DUP2 SLOAD DUP2 LT PUSH2 0x1D31 JUMPI PUSH1 0x0 DUP1 REVERT JUMPDEST PUSH1 0x0 SWAP2 DUP3 MSTORE PUSH1 0x20 SWAP1 SWAP2 KECCAK256 PUSH1 0xB SWAP1 SWAP2 MUL ADD DUP1 SLOAD PUSH1 0x1 DUP3 ADD SLOAD PUSH1 0x2 DUP4 ADD SLOAD PUSH1 0x3 DUP5 ADD SLOAD PUSH1 0x4 DUP6 ADD SLOAD PUSH1 0x5 DUP7 ADD SLOAD PUSH1 0x6 DUP8 ADD SLOAD PUSH1 0x7 DUP9 ADD SLOAD PUSH1 0x8 DUP10 ADD SLOAD PUSH1 0x9 DUP11 ADD SLOAD PUSH1 0xA SWAP1 SWAP11 ADD SLOAD PUSH1 0xFF DUP1 DUP12 AND SWAP13 POP PUSH2 0x100 SWAP1 SWAP11 DIV PUSH1 0x1 PUSH1 0x1 PUSH1 0xA0 SHL SUB SWAP1 DUP2 AND SWAP12 SWAP10 DUP2 AND SWAP11 SWAP9 AND SWAP9 SWAP7 SWAP8 SWAP6 SWAP7 SWAP5 SWAP6 SWAP4 SWAP5 SWAP3 SWAP4 SWAP2 SWAP3 SWAP2 AND DUP13 JUMP JUMPDEST PUSH1 0x1 DUP2 DUP2 SLOAD DUP2 LT PUSH2 0x1DB7 JUMPI PUSH1 0x0 DUP1 REVERT JUMPDEST PUSH1 0x0 SWAP2 DUP3 MSTORE PUSH1 0x20 SWAP1 SWAP2 KECCAK256 ADD SLOAD SWAP1 POP DUP2 JUMP JUMPDEST PUSH1 0x0 PUSH1 0x20 DUP3 DUP5 SUB SLT ISZERO PUSH2 0x1DD9 JUMPI DUP1 DUP2 REVERT JUMPDEST DUP2 MLOAD PUSH2 0x90F DUP2 PUSH2 0x1FF2 JUMP JUMPDEST PUSH1 0x0 DUP1 PUSH1 0x0 DUP1 PUSH1 0x0 PUSH1 0xA0 DUP7 DUP9 SUB SLT ISZERO PUSH2 0x1DFB JUMPI DUP1 DUP2 REVERT JUMPDEST DUP6 CALLDATALOAD PUSH2 0x1E06 DUP2 PUSH2 0x1FF2 JUMP JUMPDEST SWAP8 PUSH1 0x20 DUP8 ADD CALLDATALOAD SWAP8 POP PUSH1 0x40 DUP8 ADD CALLDATALOAD SWAP7 PUSH1 0x60 DUP2 ADD CALLDATALOAD SWAP7 POP PUSH1 0x80 ADD CALLDATALOAD SWAP5 POP SWAP3 POP POP POP JUMP JUMPDEST PUSH1 0x0 PUSH1 0x20 DUP3 DUP5 SUB SLT ISZERO PUSH2 0x1E38 JUMPI DUP1 DUP2 REVERT JUMPDEST POP CALLDATALOAD SWAP2 SWAP1 POP JUMP JUMPDEST PUSH1 0x0 DUP1 PUSH1 0x40 DUP4 DUP6 SUB SLT ISZERO PUSH2 0x1E51 JUMPI DUP2 DUP3 REVERT JUMPDEST DUP3 CALLDATALOAD SWAP2 POP PUSH1 0x20 DUP4 ADD CALLDATALOAD PUSH2 0x1E63 DUP2 PUSH2 0x1FF2 JUMP JUMPDEST DUP1 SWAP2 POP POP SWAP3 POP SWAP3 SWAP1 POP JUMP JUMPDEST PUSH1 0x20 DUP1 DUP3 MSTORE DUP3 MLOAD DUP3 DUP3 ADD DUP2 SWAP1 MSTORE PUSH1 0x0 SWAP2 SWAP1 DUP5 DUP3 ADD SWAP1 PUSH1 0x40 DUP6 ADD SWAP1 DUP5 JUMPDEST DUP2 DUP2 LT ISZERO PUSH2 0x1EA6 JUMPI DUP4 MLOAD DUP4 MSTORE SWAP3 DUP5 ADD SWAP3 SWAP2 DUP5 ADD SWAP2 PUSH1 0x1 ADD PUSH2 0x1E8A JUMP JUMPDEST POP SWAP1 SWAP7 SWAP6 POP POP POP POP POP POP JUMP JUMPDEST PUSH1 0x20 DUP1 DUP3 MSTORE PUSH1 0x22 SWAP1 DUP3 ADD MSTORE PUSH32 0x796F7520617265206E6F74207468652073656C6C6572206F662074686973206E PUSH1 0x40 DUP3 ADD MSTORE PUSH2 0x199D PUSH1 0xF2 SHL PUSH1 0x60 DUP3 ADD MSTORE PUSH1 0x80 ADD SWAP1 JUMP JUMPDEST PUSH1 0x20 DUP1 DUP3 MSTORE PUSH1 0x21 SWAP1 DUP3 ADD MSTORE PUSH32 0x796F7520617265206E6F7420746865206F776E6572206F662074686973206E66 PUSH1 0x40 DUP3 ADD MSTORE PUSH1 0x1D PUSH1 0xFA SHL PUSH1 0x60 DUP3 ADD MSTORE PUSH1 0x80 ADD SWAP1 JUMP JUMPDEST PUSH1 0x0 DUP3 NOT DUP3 GT ISZERO PUSH2 0x1F48 JUMPI PUSH2 0x1F48 PUSH2 0x1FC6 JUMP JUMPDEST POP ADD SWAP1 JUMP JUMPDEST PUSH1 0x0 DUP3 PUSH2 0x1F5C JUMPI PUSH2 0x1F5C PUSH2 0x1FDC JUMP JUMPDEST POP DIV SWAP1 JUMP JUMPDEST PUSH1 0x0 DUP2 PUSH1 0x0 NOT DIV DUP4 GT DUP3 ISZERO ISZERO AND ISZERO PUSH2 0x1F7B JUMPI PUSH2 0x1F7B PUSH2 0x1FC6 JUMP JUMPDEST POP MUL SWAP1 JUMP JUMPDEST PUSH1 0x0 DUP3 DUP3 LT ISZERO PUSH2 0x1F92 JUMPI PUSH2 0x1F92 PUSH2 0x1FC6 JUMP JUMPDEST POP SUB SWAP1 JUMP JUMPDEST PUSH1 0x0 PUSH1 0x0 NOT DUP3 EQ ISZERO PUSH2 0x1FAB JUMPI PUSH2 0x1FAB PUSH2 0x1FC6 JUMP JUMPDEST POP PUSH1 0x1 ADD SWAP1 JUMP JUMPDEST PUSH1 0x0 DUP3 PUSH2 0x1FC1 JUMPI PUSH2 0x1FC1 PUSH2 0x1FDC JUMP JUMPDEST POP MOD SWAP1 JUMP JUMPDEST PUSH4 0x4E487B71 PUSH1 0xE0 SHL PUSH1 0x0 MSTORE PUSH1 0x11 PUSH1 0x4 MSTORE PUSH1 0x24 PUSH1 0x0 REVERT JUMPDEST PUSH4 0x4E487B71 PUSH1 0xE0 SHL PUSH1 0x0 MSTORE PUSH1 0x12 PUSH1 0x4 MSTORE PUSH1 0x24 PUSH1 0x0 REVERT JUMPDEST PUSH1 0x1 PUSH1 0x1 PUSH1 0xA0 SHL SUB DUP2 AND DUP2 EQ PUSH2 0x2007 JUMPI PUSH1 0x0 DUP1 REVERT JUMPDEST POP JUMP INVALID LOG2 PUSH5 0x6970667358 0x22 SLT KECCAK256 DIV PUSH23 0x9183E844A5CEE393B11C52C7B4628267BA1DFBA6B3028D SSTORE 0x26 ADDMOD 0xB1 0xBC 0x1F REVERT PUSH5 0x736F6C6343 STOP ADDMOD DIV STOP CALLER "},"gasEstimates":{"creation":{"codeDepositCost":"1651200","executionCost":"1729","totalCost":"1652929"},"external":{"PAYMENT_PERIODS_TO_SECONDS()":"251","acceptPaymentPlan(uint256)":"infinite","buyerWithdrawNft(uint256,address)":"12526","createListing(address,uint256,uint256,uint256,uint256)":"infinite","currentTime()":"268","deactivateListing(uint256)":"infinite","getAmountDueByPayment(uint256)":"infinite","getAmountPaid(uint256)":"10475","getAmountPerPayPeriod(uint256)":"10730","getNextPaymemtTime(uint256)":"infinite","getTimesDue(uint256)":"infinite","hasDefaulted(uint256)":"infinite","isActive(uint256)":"2100","isPaidOff(uint256)":"10483","listings(uint256)":"10572","makePayment(uint256)":"infinite","reActivateListing(uint256)":"infinite","sellerBalances(uint256)":"2096","sellerWithdrawBalance(uint256)":"infinite","sellerWithdrawNft(uint256,address)":"infinite","timeOfFinalPayment(uint256)":"2938"}},"methodIdentifiers":{"PAYMENT_PERIODS_TO_SECONDS()":"68d70e83","acceptPaymentPlan(uint256)":"c262cadc","buyerWithdrawNft(uint256,address)":"82e5f0e0","createListing(address,uint256,uint256,uint256,uint256)":"9057f289","currentTime()":"d18e81b3","deactivateListing(uint256)":"3b8d915f","getAmountDueByPayment(uint256)":"5d54e2cb","getAmountPaid(uint256)":"44193de8","getAmountPerPayPeriod(uint256)":"5b4112df","getNextPaymemtTime(uint256)":"314bc6cd","getTimesDue(uint256)":"a646e664","hasDefaulted(uint256)":"94049ae2","isActive(uint256)":"82afd23b","isPaidOff(uint256)":"bac94b7a","listings(uint256)":"de74e57b","makePayment(uint256)":"5114cb52","reActivateListing(uint256)":"9f63b5b1","sellerBalances(uint256)":"faf6a54a","sellerWithdrawBalance(uint256)":"5f54ffd6","sellerWithdrawNft(uint256,address)":"91627eb0","timeOfFinalPayment(uint256)":"c7e380e1"}},"storageLayout":{"storage":[{"astId":159,"contract":"contracts/YourContract.sol:YourContract","label":"listings","offset":0,"slot":"0","type":"t_array(t_struct(Listing)155_storage)dyn_storage"},{"astId":162,"contract":"contracts/YourContract.sol:YourContract","label":"sellerBalances","offset":0,"slot":"1","type":"t_array(t_uint256)dyn_storage"}],"types":{"t_address":{"encoding":"inplace","label":"address","numberOfBytes":"20"},"t_array(t_struct(Listing)155_storage)dyn_storage":{"base":"t_struct(Listing)155_storage","encoding":"dynamic_array","label":"struct YourContract.Listing[]","numberOfBytes":"32"},"t_array(t_uint256)dyn_storage":{"base":"t_uint256","encoding":"dynamic_array","label":"uint256[]","numberOfBytes":"32"},"t_bool":{"encoding":"inplace","label":"bool","numberOfBytes":"1"},"t_struct(Listing)155_storage":{"encoding":"inplace","label":"struct YourContract.Listing","members":[{"astId":132,"contract":"contracts/YourContract.sol:YourContract","label":"isActive","offset":0,"slot":"0","type":"t_bool"},{"astId":134,"contract":"contracts/YourContract.sol:YourContract","label":"seller","offset":1,"slot":"0","type":"t_address"},{"astId":136,"contract":"contracts/YourContract.sol:YourContract","label":"buyer","offset":0,"slot":"1","type":"t_address"},{"astId":138,"contract":"contracts/YourContract.sol:YourContract","label":"nftContractAddress","offset":0,"slot":"2","type":"t_address"},{"astId":140,"contract":"contracts/YourContract.sol:YourContract","label":"tokenId","offset":0,"slot":"3","type":"t_uint256"},{"astId":142,"contract":"contracts/YourContract.sol:YourContract","label":"lockTime","offset":0,"slot":"4","type":"t_uint256"},{"astId":144,"contract":"contracts/YourContract.sol:YourContract","label":"timeAtLock","offset":0,"slot":"5","type":"t_uint256"},{"astId":146,"contract":"contracts/YourContract.sol:YourContract","label":"paymentPeriods","offset":0,"slot":"6","type":"t_uint256"},{"astId":148,"contract":"contracts/YourContract.sol:YourContract","label":"initialPayment","offset":0,"slot":"7","type":"t_uint256"},{"astId":150,"contract":"contracts/YourContract.sol:YourContract","label":"price","offset":0,"slot":"8","type":"t_uint256"},{"astId":152,"contract":"contracts/YourContract.sol:YourContract","label":"amountPaid","offset":0,"slot":"9","type":"t_uint256"},{"astId":154,"contract":"contracts/YourContract.sol:YourContract","label":"hasBuyer","offset":0,"slot":"10","type":"t_bool"}],"numberOfBytes":"352"},"t_uint256":{"encoding":"inplace","label":"uint256","numberOfBytes":"32"}}},"userdoc":{"kind":"user","methods":{},"version":1}}}}